{
  "contractName": "LostStaking",
  "abi": [
    {
      "inputs": [
        {
          "internalType": "address",
          "name": "_stakingDestinationAddress",
          "type": "address"
        },
        {
          "internalType": "address",
          "name": "_stakingLostGirlAddress",
          "type": "address"
        },
        {
          "internalType": "uint256",
          "name": "_expiration",
          "type": "uint256"
        },
        {
          "internalType": "address",
          "name": "_erc20Address",
          "type": "address"
        },
        {
          "internalType": "uint256[]",
          "name": "rewardArray",
          "type": "uint256[]"
        },
        {
          "internalType": "uint256[]",
          "name": "rewardRarity",
          "type": "uint256[]"
        }
      ],
      "stateMutability": "nonpayable",
      "type": "constructor"
    },
    {
      "anonymous": false,
      "inputs": [
        {
          "indexed": true,
          "internalType": "address",
          "name": "previousOwner",
          "type": "address"
        },
        {
          "indexed": true,
          "internalType": "address",
          "name": "newOwner",
          "type": "address"
        }
      ],
      "name": "OwnershipTransferred",
      "type": "event"
    },
    {
      "anonymous": false,
      "inputs": [
        {
          "indexed": false,
          "internalType": "address",
          "name": "account",
          "type": "address"
        }
      ],
      "name": "Paused",
      "type": "event"
    },
    {
      "anonymous": false,
      "inputs": [
        {
          "indexed": false,
          "internalType": "address",
          "name": "account",
          "type": "address"
        }
      ],
      "name": "Unpaused",
      "type": "event"
    },
    {
      "inputs": [
        {
          "internalType": "address",
          "name": "",
          "type": "address"
        },
        {
          "internalType": "uint256",
          "name": "",
          "type": "uint256"
        }
      ],
      "name": "_depositBlocks",
      "outputs": [
        {
          "internalType": "uint256",
          "name": "",
          "type": "uint256"
        }
      ],
      "stateMutability": "view",
      "type": "function",
      "constant": true
    },
    {
      "inputs": [
        {
          "internalType": "address",
          "name": "",
          "type": "address"
        },
        {
          "internalType": "uint256",
          "name": "",
          "type": "uint256"
        }
      ],
      "name": "_depositBlocksTmp",
      "outputs": [
        {
          "internalType": "uint256",
          "name": "",
          "type": "uint256"
        }
      ],
      "stateMutability": "view",
      "type": "function",
      "constant": true
    },
    {
      "inputs": [
        {
          "internalType": "address",
          "name": "",
          "type": "address"
        },
        {
          "internalType": "uint256",
          "name": "",
          "type": "uint256"
        }
      ],
      "name": "_depositRarity",
      "outputs": [
        {
          "internalType": "uint256",
          "name": "",
          "type": "uint256"
        }
      ],
      "stateMutability": "view",
      "type": "function",
      "constant": true
    },
    {
      "inputs": [
        {
          "internalType": "uint256",
          "name": "",
          "type": "uint256"
        }
      ],
      "name": "_rewardArray",
      "outputs": [
        {
          "internalType": "uint256",
          "name": "",
          "type": "uint256"
        }
      ],
      "stateMutability": "view",
      "type": "function",
      "constant": true
    },
    {
      "inputs": [
        {
          "internalType": "uint256",
          "name": "",
          "type": "uint256"
        }
      ],
      "name": "_rewardRarity",
      "outputs": [
        {
          "internalType": "uint256",
          "name": "",
          "type": "uint256"
        }
      ],
      "stateMutability": "view",
      "type": "function",
      "constant": true
    },
    {
      "inputs": [],
      "name": "erc20Address",
      "outputs": [
        {
          "internalType": "address",
          "name": "",
          "type": "address"
        }
      ],
      "stateMutability": "view",
      "type": "function",
      "constant": true
    },
    {
      "inputs": [],
      "name": "expiration",
      "outputs": [
        {
          "internalType": "uint256",
          "name": "",
          "type": "uint256"
        }
      ],
      "stateMutability": "view",
      "type": "function",
      "constant": true
    },
    {
      "inputs": [],
      "name": "freezingDays",
      "outputs": [
        {
          "internalType": "uint256",
          "name": "",
          "type": "uint256"
        }
      ],
      "stateMutability": "view",
      "type": "function",
      "constant": true
    },
    {
      "inputs": [],
      "name": "owner",
      "outputs": [
        {
          "internalType": "address",
          "name": "",
          "type": "address"
        }
      ],
      "stateMutability": "view",
      "type": "function",
      "constant": true
    },
    {
      "inputs": [],
      "name": "ownerAddr",
      "outputs": [
        {
          "internalType": "address",
          "name": "",
          "type": "address"
        }
      ],
      "stateMutability": "view",
      "type": "function",
      "constant": true
    },
    {
      "inputs": [],
      "name": "paused",
      "outputs": [
        {
          "internalType": "bool",
          "name": "",
          "type": "bool"
        }
      ],
      "stateMutability": "view",
      "type": "function",
      "constant": true
    },
    {
      "inputs": [],
      "name": "renounceOwnership",
      "outputs": [],
      "stateMutability": "nonpayable",
      "type": "function"
    },
    {
      "inputs": [],
      "name": "stakingDestinationAddress",
      "outputs": [
        {
          "internalType": "address",
          "name": "",
          "type": "address"
        }
      ],
      "stateMutability": "view",
      "type": "function",
      "constant": true
    },
    {
      "inputs": [],
      "name": "stakingLostGirlAddr",
      "outputs": [
        {
          "internalType": "address",
          "name": "",
          "type": "address"
        }
      ],
      "stateMutability": "view",
      "type": "function",
      "constant": true
    },
    {
      "inputs": [
        {
          "internalType": "address",
          "name": "newOwner",
          "type": "address"
        }
      ],
      "name": "transferOwnership",
      "outputs": [],
      "stateMutability": "nonpayable",
      "type": "function"
    },
    {
      "inputs": [],
      "name": "pause",
      "outputs": [],
      "stateMutability": "nonpayable",
      "type": "function"
    },
    {
      "inputs": [],
      "name": "unpause",
      "outputs": [],
      "stateMutability": "nonpayable",
      "type": "function"
    },
    {
      "inputs": [
        {
          "internalType": "address",
          "name": "account",
          "type": "address"
        },
        {
          "internalType": "uint256",
          "name": "tokenId",
          "type": "uint256"
        }
      ],
      "name": "setOneDayPrev",
      "outputs": [],
      "stateMutability": "nonpayable",
      "type": "function"
    },
    {
      "inputs": [
        {
          "internalType": "uint256[]",
          "name": "_updateReward",
          "type": "uint256[]"
        }
      ],
      "name": "updateReward",
      "outputs": [],
      "stateMutability": "nonpayable",
      "type": "function"
    },
    {
      "inputs": [
        {
          "internalType": "uint256[]",
          "name": "_updateRarity",
          "type": "uint256[]"
        }
      ],
      "name": "updateRarity",
      "outputs": [],
      "stateMutability": "nonpayable",
      "type": "function"
    },
    {
      "inputs": [
        {
          "internalType": "uint256",
          "name": "_freezDay",
          "type": "uint256"
        }
      ],
      "name": "setfreezingDays",
      "outputs": [],
      "stateMutability": "nonpayable",
      "type": "function"
    },
    {
      "inputs": [
        {
          "internalType": "uint256",
          "name": "_expiration",
          "type": "uint256"
        }
      ],
      "name": "setExpiration",
      "outputs": [],
      "stateMutability": "nonpayable",
      "type": "function"
    },
    {
      "inputs": [
        {
          "internalType": "address",
          "name": "account",
          "type": "address"
        },
        {
          "internalType": "uint256",
          "name": "tokens",
          "type": "uint256"
        }
      ],
      "name": "balanceOfLostGirl",
      "outputs": [
        {
          "internalType": "uint256",
          "name": "balance",
          "type": "uint256"
        }
      ],
      "stateMutability": "view",
      "type": "function",
      "constant": true
    },
    {
      "inputs": [
        {
          "internalType": "address",
          "name": "account",
          "type": "address"
        }
      ],
      "name": "depositsOf",
      "outputs": [
        {
          "internalType": "uint256[]",
          "name": "",
          "type": "uint256[]"
        }
      ],
      "stateMutability": "view",
      "type": "function",
      "constant": true
    },
    {
      "inputs": [
        {
          "internalType": "address",
          "name": "account",
          "type": "address"
        },
        {
          "internalType": "uint256[]",
          "name": "tokenIds",
          "type": "uint256[]"
        }
      ],
      "name": "calculateRewards",
      "outputs": [
        {
          "internalType": "uint256[]",
          "name": "rewards",
          "type": "uint256[]"
        }
      ],
      "stateMutability": "view",
      "type": "function",
      "constant": true
    },
    {
      "inputs": [
        {
          "internalType": "address",
          "name": "account",
          "type": "address"
        },
        {
          "internalType": "uint256",
          "name": "tokenId",
          "type": "uint256"
        }
      ],
      "name": "calculateReward",
      "outputs": [
        {
          "internalType": "uint256",
          "name": "",
          "type": "uint256"
        }
      ],
      "stateMutability": "view",
      "type": "function",
      "constant": true
    },
    {
      "inputs": [
        {
          "internalType": "uint256[]",
          "name": "tokenIds",
          "type": "uint256[]"
        }
      ],
      "name": "claimRewards",
      "outputs": [],
      "stateMutability": "nonpayable",
      "type": "function"
    },
    {
      "inputs": [
        {
          "internalType": "uint256[]",
          "name": "tokenIds",
          "type": "uint256[]"
        },
        {
          "internalType": "uint256[]",
          "name": "_rarity",
          "type": "uint256[]"
        }
      ],
      "name": "deposit",
      "outputs": [],
      "stateMutability": "nonpayable",
      "type": "function"
    },
    {
      "inputs": [
        {
          "internalType": "uint256[]",
          "name": "tokenIds",
          "type": "uint256[]"
        }
      ],
      "name": "withdraw",
      "outputs": [],
      "stateMutability": "nonpayable",
      "type": "function"
    },
    {
      "inputs": [
        {
          "internalType": "address",
          "name": "",
          "type": "address"
        },
        {
          "internalType": "address",
          "name": "",
          "type": "address"
        },
        {
          "internalType": "uint256",
          "name": "",
          "type": "uint256"
        },
        {
          "internalType": "bytes",
          "name": "",
          "type": "bytes"
        }
      ],
      "name": "onERC721Received",
      "outputs": [
        {
          "internalType": "bytes4",
          "name": "",
          "type": "bytes4"
        }
      ],
      "stateMutability": "pure",
      "type": "function",
      "constant": true
    }
  ],
  "bytecode": "0x60806040526000600260016101000a81548173ffffffffffffffffffffffffffffffffffffffff021916908373ffffffffffffffffffffffffffffffffffffffff1602179055503480156200005357600080fd5b5060405162003b5538038062003b5583398181016040528101906200007991906200067d565b620000996200008d620002b960201b60201c565b620002c160201b60201c565b600180819055506000600260006101000a81548160ff02191690831515021790555084600460006101000a81548173ffffffffffffffffffffffffffffffffffffffff021916908373ffffffffffffffffffffffffffffffffffffffff16021790555085600360006101000a81548173ffffffffffffffffffffffffffffffffffffffff021916908373ffffffffffffffffffffffffffffffffffffffff16021790555062015180846200014e919062000786565b426200015b919062000786565b60078190555082600560006101000a81548173ffffffffffffffffffffffffffffffffffffffff021916908373ffffffffffffffffffffffffffffffffffffffff16021790555033600660006101000a81548173ffffffffffffffffffffffffffffffffffffffff021916908373ffffffffffffffffffffffffffffffffffffffff160217905550600060088190555060005b825181101562000243578281815181106200020e576200020d620007e7565b5b6020026020010151600d60008381526020019081526020016000208190555080806200023a9062000816565b915050620001ee565b5060005b81518110156200029c57818181518110620002675762000266620007e7565b5b6020026020010151600e6000838152602001908152602001600020819055508080620002939062000816565b91505062000247565b50620002ad6200038560201b60201c565b50505050505062000915565b600033905090565b60008060009054906101000a900473ffffffffffffffffffffffffffffffffffffffff169050816000806101000a81548173ffffffffffffffffffffffffffffffffffffffff021916908373ffffffffffffffffffffffffffffffffffffffff1602179055508173ffffffffffffffffffffffffffffffffffffffff168173ffffffffffffffffffffffffffffffffffffffff167f8be0079c531659141344cd1fd0a4f28419497f9722a3daafe3b4186f6b6457e060405160405180910390a35050565b620003956200043d60201b60201c565b15620003d8576040517f08c379a0000000000000000000000000000000000000000000000000000000008152600401620003cf90620008c5565b60405180910390fd5b6001600260006101000a81548160ff0219169083151502179055507f62e78cea01bee320cd4e420270b5ea74000d11b0c9f74754ebdbfc544b05a25862000424620002b960201b60201c565b604051620004339190620008f8565b60405180910390a1565b6000600260009054906101000a900460ff16905090565b6000604051905090565b600080fd5b600080fd5b600073ffffffffffffffffffffffffffffffffffffffff82169050919050565b6000620004958262000468565b9050919050565b620004a78162000488565b8114620004b357600080fd5b50565b600081519050620004c7816200049c565b92915050565b6000819050919050565b620004e281620004cd565b8114620004ee57600080fd5b50565b6000815190506200050281620004d7565b92915050565b600080fd5b6000601f19601f8301169050919050565b7f4e487b7100000000000000000000000000000000000000000000000000000000600052604160045260246000fd5b62000558826200050d565b810181811067ffffffffffffffff821117156200057a57620005796200051e565b5b80604052505050565b60006200058f62000454565b90506200059d82826200054d565b919050565b600067ffffffffffffffff821115620005c057620005bf6200051e565b5b602082029050602081019050919050565b600080fd5b6000620005ed620005e784620005a2565b62000583565b90508083825260208201905060208402830185811115620006135762000612620005d1565b5b835b818110156200064057806200062b8882620004f1565b84526020840193505060208101905062000615565b5050509392505050565b600082601f83011262000662576200066162000508565b5b815162000674848260208601620005d6565b91505092915050565b60008060008060008060c087890312156200069d576200069c6200045e565b5b6000620006ad89828a01620004b6565b9650506020620006c089828a01620004b6565b9550506040620006d389828a01620004f1565b9450506060620006e689828a01620004b6565b935050608087015167ffffffffffffffff8111156200070a576200070962000463565b5b6200071889828a016200064a565b92505060a087015167ffffffffffffffff8111156200073c576200073b62000463565b5b6200074a89828a016200064a565b9150509295509295509295565b7f4e487b7100000000000000000000000000000000000000000000000000000000600052601160045260246000fd5b60006200079382620004cd565b9150620007a083620004cd565b9250817fffffffffffffffffffffffffffffffffffffffffffffffffffffffffffffffff0483118215151615620007dc57620007db62000757565b5b828202905092915050565b7f4e487b7100000000000000000000000000000000000000000000000000000000600052603260045260246000fd5b60006200082382620004cd565b91507fffffffffffffffffffffffffffffffffffffffffffffffffffffffffffffffff82141562000859576200085862000757565b5b600182019050919050565b600082825260208201905092915050565b7f5061757361626c653a2070617573656400000000000000000000000000000000600082015250565b6000620008ad60108362000864565b9150620008ba8262000875565b602082019050919050565b60006020820190508181036000830152620008e0816200089e565b9050919050565b620008f28162000488565b82525050565b60006020820190506200090f6000830184620008e7565b92915050565b61323080620009256000396000f3fe608060405234801561001057600080fd5b50600436106101da5760003560e01c8063753eb2f711610104578063983d95ce116100a2578063c407c5b711610071578063c407c5b714610545578063e3a9db1a14610561578063f223885a14610591578063f2fde38b146105ad576101da565b8063983d95ce146104ab5780639a30cae4146104c75780639c675eaa146104f7578063b343ae1414610515576101da565b806387ce25e0116100de57806387ce25e0146104375780638d2a2b5f146104555780638da5cb5b146104715780639788e2ac1461048f576101da565b8063753eb2f7146103df5780638456cb591461040f57806386858fa414610419576101da565b80633f4ba83a1161017c5780635c975abb1161014b5780635c975abb1461036b5780635eac6239146103895780636e188ea9146103a5578063715018a6146103d5576101da565b80633f4ba83a1461030b5780634665096d146103155780634fac720814610333578063515a20ba1461034f576101da565b80631852e8d9116101b85780631852e8d91461025d578063276184ae1461028d5780632b403b08146102ab5780632d875b07146102db576101da565b80630222a2c4146101df578063068c526f146101fd578063150b7a021461022d575b600080fd5b6101e76105c9565b6040516101f4919061239b565b60405180910390f35b61021760048036038101906102129190612585565b6105ef565b604051610224919061269f565b60405180910390f35b6102476004803603810190610242919061271c565b610893565b60405161025491906127df565b60405180910390f35b610277600480360381019061027291906127fa565b6108a8565b6040516102849190612849565b60405180910390f35b610295610b19565b6040516102a2919061239b565b60405180910390f35b6102c560048036038101906102c091906127fa565b610b3f565b6040516102d29190612849565b60405180910390f35b6102f560048036038101906102f091906127fa565b610ce7565b6040516103029190612849565b60405180910390f35b610313610d0c565b005b61031d610d92565b60405161032a9190612849565b60405180910390f35b61034d60048036038101906103489190612864565b610d98565b005b610369600480360381019061036491906128ad565b610e69565b005b610373610f08565b60405161038091906128f5565b60405180910390f35b6103a3600480360381019061039e9190612966565b610f1f565b005b6103bf60048036038101906103ba91906127fa565b61112c565b6040516103cc9190612849565b60405180910390f35b6103dd611151565b005b6103f960048036038101906103f491906128ad565b6111d9565b6040516104069190612849565b60405180910390f35b6104176111f1565b005b610421611277565b60405161042e9190612849565b60405180910390f35b61043f61127d565b60405161044c919061239b565b60405180910390f35b61046f600480360381019061046a9190612864565b6112a3565b005b610479611374565b604051610486919061239b565b60405180910390f35b6104a960048036038101906104a491906128ad565b61139d565b005b6104c560048036038101906104c09190612966565b611423565b005b6104e160048036038101906104dc91906128ad565b611790565b6040516104ee9190612849565b60405180910390f35b6104ff6117a8565b60405161050c919061239b565b60405180910390f35b61052f600480360381019061052a91906127fa565b6117ce565b60405161053c9190612849565b60405180910390f35b61055f600480360381019061055a91906127fa565b6117f3565b005b61057b600480360381019061057691906129b3565b6119d9565b604051610588919061269f565b60405180910390f35b6105ab60048036038101906105a691906129e0565b611ad6565b005b6105c760048036038101906105c291906129b3565b611df1565b005b600360009054906101000a900473ffffffffffffffffffffffffffffffffffffffff1681565b6060815167ffffffffffffffff81111561060c5761060b61240c565b5b60405190808252806020026020018201604052801561063a5781602001602082028036833780820191505090505b50905060005b825181101561088c57600083828151811061065e5761065d612a61565b5b602002602001015190506106b981600960008873ffffffffffffffffffffffffffffffffffffffff1673ffffffffffffffffffffffffffffffffffffffff168152602001908152602001600020611ee990919063ffffffff16565b156108565760006018603c80600a60008a73ffffffffffffffffffffffffffffffffffffffff1673ffffffffffffffffffffffffffffffffffffffff168152602001908152602001600020600086815260200190815260200160002054426107219190612abf565b61072b9190612b22565b6107359190612b22565b61073f9190612b22565b9050600081600e6000600c60008b73ffffffffffffffffffffffffffffffffffffffff1673ffffffffffffffffffffffffffffffffffffffff1681526020019081526020016000206000878152602001908152602001600020548152602001908152602001600020546107b29190612b53565b90503073ffffffffffffffffffffffffffffffffffffffff16632b403b0888836040518363ffffffff1660e01b81526004016107ef929190612bad565b602060405180830381865afa15801561080c573d6000803e3d6000fd5b505050506040513d601f19601f820116820180604052508101906108309190612beb565b85858151811061084357610842612a61565b5b6020026020010181815250505050610878565b600083838151811061086b5761086a612a61565b5b6020026020010181815250505b50808061088490612c18565b915050610640565b5092915050565b600063150b7a0260e01b905095945050505050565b60006018603c80426007546108bd9190612abf565b6108c79190612b22565b6108d19190612b22565b6108db9190612b22565b60001061091d576040517f08c379a000000000000000000000000000000000000000000000000000000000815260040161091490612cbe565b60405180910390fd5b60006018603c80600a60008873ffffffffffffffffffffffffffffffffffffffff1673ffffffffffffffffffffffffffffffffffffffff168152602001908152602001600020600087815260200190815260200160002054426109809190612abf565b61098a9190612b22565b6109949190612b22565b61099e9190612b22565b90506008548110610b0d576000816109fd85600960008973ffffffffffffffffffffffffffffffffffffffff1673ffffffffffffffffffffffffffffffffffffffff168152602001908152602001600020611ee990919063ffffffff16565b610a08576000610a0b565b60015b60ff16610a189190612b53565b600e6000600c60008973ffffffffffffffffffffffffffffffffffffffff1673ffffffffffffffffffffffffffffffffffffffff168152602001908152602001600020600088815260200190815260200160002054815260200190815260200160002054610a869190612b53565b90503073ffffffffffffffffffffffffffffffffffffffff16632b403b0886836040518363ffffffff1660e01b8152600401610ac3929190612bad565b602060405180830381865afa158015610ae0573d6000803e3d6000fd5b505050506040513d601f19601f82011682018060405250810190610b049190612beb565b92505050610b13565b60009150505b92915050565b600560009054906101000a900473ffffffffffffffffffffffffffffffffffffffff1681565b600080600460009054906101000a900473ffffffffffffffffffffffffffffffffffffffff1673ffffffffffffffffffffffffffffffffffffffff166370a08231856040518263ffffffff1660e01b8152600401610b9d919061239b565b602060405180830381865afa158015610bba573d6000803e3d6000fd5b505050506040513d601f19601f82011682018060405250810190610bde9190612beb565b905060038111610c0f57600d60008081526020019081526020016000205483610c079190612b53565b915050610ce1565b60068111610c3f57600d6000600181526020019081526020016000205483610c379190612b53565b915050610ce1565b60098111610c6f57600d6000600281526020019081526020016000205483610c679190612b53565b915050610ce1565b600f8111610c9f57600d6000600381526020019081526020016000205483610c979190612b53565b915050610ce1565b600f811115610cd057600d6000600481526020019081526020016000205483610cc89190612b53565b915050610ce1565b606483610cdd9190612b53565b9150505b92915050565b600c602052816000526040600020602052806000526040600020600091509150505481565b610d14611f03565b73ffffffffffffffffffffffffffffffffffffffff16610d32611374565b73ffffffffffffffffffffffffffffffffffffffff1614610d88576040517f08c379a0000000000000000000000000000000000000000000000000000000008152600401610d7f90612d2a565b60405180910390fd5b610d90611f0b565b565b60075481565b610da0611f03565b73ffffffffffffffffffffffffffffffffffffffff16610dbe611374565b73ffffffffffffffffffffffffffffffffffffffff1614610e14576040517f08c379a0000000000000000000000000000000000000000000000000000000008152600401610e0b90612d2a565b60405180910390fd5b60005b8151811015610e6557818181518110610e3357610e32612a61565b5b6020026020010151600d6000838152602001908152602001600020819055508080610e5d90612c18565b915050610e17565b5050565b610e71611f03565b73ffffffffffffffffffffffffffffffffffffffff16610e8f611374565b73ffffffffffffffffffffffffffffffffffffffff1614610ee5576040517f08c379a0000000000000000000000000000000000000000000000000000000008152600401610edc90612d2a565b60405180910390fd5b6201518081610ef49190612b53565b42610eff9190612b53565b60078190555050565b6000600260009054906101000a900460ff16905090565b610f27610f08565b15610f67576040517f08c379a0000000000000000000000000000000000000000000000000000000008152600401610f5e90612d96565b60405180910390fd5b60008042905060005b8484905081101561102c57610f9e33868684818110610f9257610f91612a61565b5b905060200201356108a8565b83610fa99190612db6565b925081600a60003373ffffffffffffffffffffffffffffffffffffffff1673ffffffffffffffffffffffffffffffffffffffff168152602001908152602001600020600087878581811061100057610fff612a61565b5b90506020020135815260200190815260200160002081905550808061102490612c18565b915050610f70565b50600082111561112657600560009054906101000a900473ffffffffffffffffffffffffffffffffffffffff1673ffffffffffffffffffffffffffffffffffffffff166323b872dd600660009054906101000a900473ffffffffffffffffffffffffffffffffffffffff1633606480670de0b6b3a7640000886110af9190612b53565b6110b99190612b22565b6110c39190612b22565b6040518463ffffffff1660e01b81526004016110e193929190612e0c565b6020604051808303816000875af1158015611100573d6000803e3d6000fd5b505050506040513d601f19601f820116820180604052508101906111249190612e6f565b505b50505050565b600b602052816000526040600020602052806000526040600020600091509150505481565b611159611f03565b73ffffffffffffffffffffffffffffffffffffffff16611177611374565b73ffffffffffffffffffffffffffffffffffffffff16146111cd576040517f08c379a00000000000000000000000000000000000000000000000000000000081526004016111c490612d2a565b60405180910390fd5b6111d76000611fad565b565b600e6020528060005260406000206000915090505481565b6111f9611f03565b73ffffffffffffffffffffffffffffffffffffffff16611217611374565b73ffffffffffffffffffffffffffffffffffffffff161461126d576040517f08c379a000000000000000000000000000000000000000000000000000000000815260040161126490612d2a565b60405180910390fd5b611275612071565b565b60085481565b600460009054906101000a900473ffffffffffffffffffffffffffffffffffffffff1681565b6112ab611f03565b73ffffffffffffffffffffffffffffffffffffffff166112c9611374565b73ffffffffffffffffffffffffffffffffffffffff161461131f576040517f08c379a000000000000000000000000000000000000000000000000000000000815260040161131690612d2a565b60405180910390fd5b60005b81518110156113705781818151811061133e5761133d612a61565b5b6020026020010151600e600083815260200190815260200160002081905550808061136890612c18565b915050611322565b5050565b60008060009054906101000a900473ffffffffffffffffffffffffffffffffffffffff16905090565b6113a5611f03565b73ffffffffffffffffffffffffffffffffffffffff166113c3611374565b73ffffffffffffffffffffffffffffffffffffffff1614611419576040517f08c379a000000000000000000000000000000000000000000000000000000000815260040161141090612d2a565b60405180910390fd5b8060088190555050565b61142b610f08565b1561146b576040517f08c379a000000000000000000000000000000000000000000000000000000000815260040161146290612d96565b60405180910390fd5b600260015414156114b1576040517f08c379a00000000000000000000000000000000000000000000000000000000081526004016114a890612ee8565b60405180910390fd5b60026001819055506114c38282610f1f565b60005b828290508110156117845761153b8383838181106114e7576114e6612a61565b5b90506020020135600960003373ffffffffffffffffffffffffffffffffffffffff1673ffffffffffffffffffffffffffffffffffffffff168152602001908152602001600020611ee990919063ffffffff16565b61157a576040517f08c379a000000000000000000000000000000000000000000000000000000000815260040161157190612f54565b60405180910390fd5b60006018603c80600b60003373ffffffffffffffffffffffffffffffffffffffff1673ffffffffffffffffffffffffffffffffffffffff16815260200190815260200160002060008888888181106115d5576115d4612a61565b5b90506020020135815260200190815260200160002054426115f69190612abf565b6116009190612b22565b61160a9190612b22565b6116149190612b22565b905060085481101561165b576040517f08c379a000000000000000000000000000000000000000000000000000000000815260040161165290612fc0565b60405180910390fd5b6116c584848481811061167157611670612a61565b5b90506020020135600960003373ffffffffffffffffffffffffffffffffffffffff1673ffffffffffffffffffffffffffffffffffffffff16815260200190815260200160002061211490919063ffffffff16565b50600360009054906101000a900473ffffffffffffffffffffffffffffffffffffffff1673ffffffffffffffffffffffffffffffffffffffff1663b88d4fde303387878781811061171957611718612a61565b5b905060200201356040518463ffffffff1660e01b815260040161173e93929190613017565b600060405180830381600087803b15801561175857600080fd5b505af115801561176c573d6000803e3d6000fd5b5050505050808061177c90612c18565b9150506114c6565b50600180819055505050565b600d6020528060005260406000206000915090505481565b600660009054906101000a900473ffffffffffffffffffffffffffffffffffffffff1681565b600a602052816000526040600020602052806000526040600020600091509150505481565b6117fb611f03565b73ffffffffffffffffffffffffffffffffffffffff16611819611374565b73ffffffffffffffffffffffffffffffffffffffff161461186f576040517f08c379a000000000000000000000000000000000000000000000000000000000815260040161186690612d2a565b60405180910390fd5b62015180600b60008473ffffffffffffffffffffffffffffffffffffffff1673ffffffffffffffffffffffffffffffffffffffff1681526020019081526020016000206000838152602001908152602001600020546118ce9190612abf565b600b60008473ffffffffffffffffffffffffffffffffffffffff1673ffffffffffffffffffffffffffffffffffffffff16815260200190815260200160002060008381526020019081526020016000208190555062015180600a60008473ffffffffffffffffffffffffffffffffffffffff1673ffffffffffffffffffffffffffffffffffffffff1681526020019081526020016000206000838152602001908152602001600020546119819190612abf565b600a60008473ffffffffffffffffffffffffffffffffffffffff1673ffffffffffffffffffffffffffffffffffffffff1681526020019081526020016000206000838152602001908152602001600020819055505050565b60606000600960008473ffffffffffffffffffffffffffffffffffffffff1673ffffffffffffffffffffffffffffffffffffffff16815260200190815260200160002090506000611a298261212e565b67ffffffffffffffff811115611a4257611a4161240c565b5b604051908082528060200260200182016040528015611a705781602001602082028036833780820191505090505b50905060005b611a7f8361212e565b811015611acb57611a99818461214390919063ffffffff16565b828281518110611aac57611aab612a61565b5b6020026020010181815250508080611ac390612c18565b915050611a76565b508092505050919050565b611ade610f08565b15611b1e576040517f08c379a0000000000000000000000000000000000000000000000000000000008152600401611b1590612d96565b60405180910390fd5b600360009054906101000a900473ffffffffffffffffffffffffffffffffffffffff1673ffffffffffffffffffffffffffffffffffffffff163373ffffffffffffffffffffffffffffffffffffffff161415611baf576040517f08c379a0000000000000000000000000000000000000000000000000000000008152600401611ba6906130ad565b60405180910390fd5b611bb98484610f1f565b60005b84849050811015611dea57600042905080600b60003373ffffffffffffffffffffffffffffffffffffffff1673ffffffffffffffffffffffffffffffffffffffff1681526020019081526020016000206000888886818110611c2157611c20612a61565b5b90506020020135815260200190815260200160002081905550838383818110611c4d57611c4c612a61565b5b90506020020135600c60003373ffffffffffffffffffffffffffffffffffffffff1673ffffffffffffffffffffffffffffffffffffffff1681526020019081526020016000206000888886818110611ca857611ca7612a61565b5b90506020020135815260200190815260200160002081905550600360009054906101000a900473ffffffffffffffffffffffffffffffffffffffff1673ffffffffffffffffffffffffffffffffffffffff1663b88d4fde3330898987818110611d1457611d13612a61565b5b905060200201356040518463ffffffff1660e01b8152600401611d3993929190613017565b600060405180830381600087803b158015611d5357600080fd5b505af1158015611d67573d6000803e3d6000fd5b50505050611dd5868684818110611d8157611d80612a61565b5b90506020020135600960003373ffffffffffffffffffffffffffffffffffffffff1673ffffffffffffffffffffffffffffffffffffffff16815260200190815260200160002061215d90919063ffffffff16565b50508080611de290612c18565b915050611bbc565b5050505050565b611df9611f03565b73ffffffffffffffffffffffffffffffffffffffff16611e17611374565b73ffffffffffffffffffffffffffffffffffffffff1614611e6d576040517f08c379a0000000000000000000000000000000000000000000000000000000008152600401611e6490612d2a565b60405180910390fd5b600073ffffffffffffffffffffffffffffffffffffffff168173ffffffffffffffffffffffffffffffffffffffff161415611edd576040517f08c379a0000000000000000000000000000000000000000000000000000000008152600401611ed49061313f565b60405180910390fd5b611ee681611fad565b50565b6000611efb836000018360001b612177565b905092915050565b600033905090565b611f13610f08565b611f52576040517f08c379a0000000000000000000000000000000000000000000000000000000008152600401611f49906131ab565b60405180910390fd5b6000600260006101000a81548160ff0219169083151502179055507f5db9ee0a495bf2e6ff9c91a7834c1ba4fdd244a5e8aa4e537bd38aeae4b073aa611f96611f03565b604051611fa3919061239b565b60405180910390a1565b60008060009054906101000a900473ffffffffffffffffffffffffffffffffffffffff169050816000806101000a81548173ffffffffffffffffffffffffffffffffffffffff021916908373ffffffffffffffffffffffffffffffffffffffff1602179055508173ffffffffffffffffffffffffffffffffffffffff168173ffffffffffffffffffffffffffffffffffffffff167f8be0079c531659141344cd1fd0a4f28419497f9722a3daafe3b4186f6b6457e060405160405180910390a35050565b612079610f08565b156120b9576040517f08c379a00000000000000000000000000000000000000000000000000000000081526004016120b090612d96565b60405180910390fd5b6001600260006101000a81548160ff0219169083151502179055507f62e78cea01bee320cd4e420270b5ea74000d11b0c9f74754ebdbfc544b05a2586120fd611f03565b60405161210a919061239b565b60405180910390a1565b6000612126836000018360001b61219a565b905092915050565b600061213c826000016122ae565b9050919050565b600061215283600001836122bf565b60001c905092915050565b600061216f836000018360001b6122ea565b905092915050565b600080836001016000848152602001908152602001600020541415905092915050565b600080836001016000848152602001908152602001600020549050600081146122a25760006001826121cc9190612abf565b90506000600186600001805490506121e49190612abf565b905081811461225357600086600001828154811061220557612204612a61565b5b906000526020600020015490508087600001848154811061222957612228612a61565b5b90600052602060002001819055508387600101600083815260200190815260200160002081905550505b85600001805480612267576122666131cb565b5b6001900381819060005260206000200160009055905585600101600086815260200190815260200160002060009055600193505050506122a8565b60009150505b92915050565b600081600001805490509050919050565b60008260000182815481106122d7576122d6612a61565b5b9060005260206000200154905092915050565b60006122f68383612177565b61234f578260000182908060018154018082558091505060019003906000526020600020016000909190919091505582600001805490508360010160008481526020019081526020016000208190555060019050612354565b600090505b92915050565b600073ffffffffffffffffffffffffffffffffffffffff82169050919050565b60006123858261235a565b9050919050565b6123958161237a565b82525050565b60006020820190506123b0600083018461238c565b92915050565b6000604051905090565b600080fd5b600080fd5b6123d38161237a565b81146123de57600080fd5b50565b6000813590506123f0816123ca565b92915050565b600080fd5b6000601f19601f8301169050919050565b7f4e487b7100000000000000000000000000000000000000000000000000000000600052604160045260246000fd5b612444826123fb565b810181811067ffffffffffffffff821117156124635761246261240c565b5b80604052505050565b60006124766123b6565b9050612482828261243b565b919050565b600067ffffffffffffffff8211156124a2576124a161240c565b5b602082029050602081019050919050565b600080fd5b6000819050919050565b6124cb816124b8565b81146124d657600080fd5b50565b6000813590506124e8816124c2565b92915050565b60006125016124fc84612487565b61246c565b90508083825260208201905060208402830185811115612524576125236124b3565b5b835b8181101561254d578061253988826124d9565b845260208401935050602081019050612526565b5050509392505050565b600082601f83011261256c5761256b6123f6565b5b813561257c8482602086016124ee565b91505092915050565b6000806040838503121561259c5761259b6123c0565b5b60006125aa858286016123e1565b925050602083013567ffffffffffffffff8111156125cb576125ca6123c5565b5b6125d785828601612557565b9150509250929050565b600081519050919050565b600082825260208201905092915050565b6000819050602082019050919050565b612616816124b8565b82525050565b6000612628838361260d565b60208301905092915050565b6000602082019050919050565b600061264c826125e1565b61265681856125ec565b9350612661836125fd565b8060005b83811015612692578151612679888261261c565b975061268483612634565b925050600181019050612665565b5085935050505092915050565b600060208201905081810360008301526126b98184612641565b905092915050565b600080fd5b60008083601f8401126126dc576126db6123f6565b5b8235905067ffffffffffffffff8111156126f9576126f86126c1565b5b602083019150836001820283011115612715576127146124b3565b5b9250929050565b600080600080600060808688031215612738576127376123c0565b5b6000612746888289016123e1565b9550506020612757888289016123e1565b9450506040612768888289016124d9565b935050606086013567ffffffffffffffff811115612789576127886123c5565b5b612795888289016126c6565b92509250509295509295909350565b60007fffffffff0000000000000000000000000000000000000000000000000000000082169050919050565b6127d9816127a4565b82525050565b60006020820190506127f460008301846127d0565b92915050565b60008060408385031215612811576128106123c0565b5b600061281f858286016123e1565b9250506020612830858286016124d9565b9150509250929050565b612843816124b8565b82525050565b600060208201905061285e600083018461283a565b92915050565b60006020828403121561287a576128796123c0565b5b600082013567ffffffffffffffff811115612898576128976123c5565b5b6128a484828501612557565b91505092915050565b6000602082840312156128c3576128c26123c0565b5b60006128d1848285016124d9565b91505092915050565b60008115159050919050565b6128ef816128da565b82525050565b600060208201905061290a60008301846128e6565b92915050565b60008083601f840112612926576129256123f6565b5b8235905067ffffffffffffffff811115612943576129426126c1565b5b60208301915083602082028301111561295f5761295e6124b3565b5b9250929050565b6000806020838503121561297d5761297c6123c0565b5b600083013567ffffffffffffffff81111561299b5761299a6123c5565b5b6129a785828601612910565b92509250509250929050565b6000602082840312156129c9576129c86123c0565b5b60006129d7848285016123e1565b91505092915050565b600080600080604085870312156129fa576129f96123c0565b5b600085013567ffffffffffffffff811115612a1857612a176123c5565b5b612a2487828801612910565b9450945050602085013567ffffffffffffffff811115612a4757612a466123c5565b5b612a5387828801612910565b925092505092959194509250565b7f4e487b7100000000000000000000000000000000000000000000000000000000600052603260045260246000fd5b7f4e487b7100000000000000000000000000000000000000000000000000000000600052601160045260246000fd5b6000612aca826124b8565b9150612ad5836124b8565b925082821015612ae857612ae7612a90565b5b828203905092915050565b7f4e487b7100000000000000000000000000000000000000000000000000000000600052601260045260246000fd5b6000612b2d826124b8565b9150612b38836124b8565b925082612b4857612b47612af3565b5b828204905092915050565b6000612b5e826124b8565b9150612b69836124b8565b9250817fffffffffffffffffffffffffffffffffffffffffffffffffffffffffffffffff0483118215151615612ba257612ba1612a90565b5b828202905092915050565b6000604082019050612bc2600083018561238c565b612bcf602083018461283a565b9392505050565b600081519050612be5816124c2565b92915050565b600060208284031215612c0157612c006123c0565b5b6000612c0f84828501612bd6565b91505092915050565b6000612c23826124b8565b91507fffffffffffffffffffffffffffffffffffffffffffffffffffffffffffffffff821415612c5657612c55612a90565b5b600182019050919050565b600082825260208201905092915050565b7f436c6f7365205374616b696e6700000000000000000000000000000000000000600082015250565b6000612ca8600d83612c61565b9150612cb382612c72565b602082019050919050565b60006020820190508181036000830152612cd781612c9b565b9050919050565b7f4f776e61626c653a2063616c6c6572206973206e6f7420746865206f776e6572600082015250565b6000612d14602083612c61565b9150612d1f82612cde565b602082019050919050565b60006020820190508181036000830152612d4381612d07565b9050919050565b7f5061757361626c653a2070617573656400000000000000000000000000000000600082015250565b6000612d80601083612c61565b9150612d8b82612d4a565b602082019050919050565b60006020820190508181036000830152612daf81612d73565b9050919050565b6000612dc1826124b8565b9150612dcc836124b8565b9250827fffffffffffffffffffffffffffffffffffffffffffffffffffffffffffffffff03821115612e0157612e00612a90565b5b828201905092915050565b6000606082019050612e21600083018661238c565b612e2e602083018561238c565b612e3b604083018461283a565b949350505050565b612e4c816128da565b8114612e5757600080fd5b50565b600081519050612e6981612e43565b92915050565b600060208284031215612e8557612e846123c0565b5b6000612e9384828501612e5a565b91505092915050565b7f5265656e7472616e637947756172643a207265656e7472616e742063616c6c00600082015250565b6000612ed2601f83612c61565b9150612edd82612e9c565b602082019050919050565b60006020820190508181036000830152612f0181612ec5565b9050919050565b7f5374616b696e673a20746f6b656e206e6f74206465706f736974656400000000600082015250565b6000612f3e601c83612c61565b9150612f4982612f08565b602082019050919050565b60006020820190508181036000830152612f6d81612f31565b9050919050565b7f467265657a696e67206e667420666f72204c696d697465642064617973000000600082015250565b6000612faa601d83612c61565b9150612fb582612f74565b602082019050919050565b60006020820190508181036000830152612fd981612f9d565b9050919050565b600082825260208201905092915050565b50565b6000613001600083612fe0565b915061300c82612ff1565b600082019050919050565b600060808201905061302c600083018661238c565b613039602083018561238c565b613046604083018461283a565b818103606083015261305781612ff4565b9050949350505050565b7f496e76616c696420616464726573730000000000000000000000000000000000600082015250565b6000613097600f83612c61565b91506130a282613061565b602082019050919050565b600060208201905081810360008301526130c68161308a565b9050919050565b7f4f776e61626c653a206e6577206f776e657220697320746865207a65726f206160008201527f6464726573730000000000000000000000000000000000000000000000000000602082015250565b6000613129602683612c61565b9150613134826130cd565b604082019050919050565b600060208201905081810360008301526131588161311c565b9050919050565b7f5061757361626c653a206e6f7420706175736564000000000000000000000000600082015250565b6000613195601483612c61565b91506131a08261315f565b602082019050919050565b600060208201905081810360008301526131c481613188565b9050919050565b7f4e487b7100000000000000000000000000000000000000000000000000000000600052603160045260246000fdfea2646970667358221220374599ab8aa93dc164f9193c8691fbe41ee8cba4bb6df86794400224a948847464736f6c634300080b0033",
  "immutableReferences": {},
  "source": "// SPDX-License-Identifier: MIT\npragma solidity ^0.8.0;\n\nimport \"@openzeppelin/contracts/access/Ownable.sol\";\nimport \"@openzeppelin/contracts/utils/math/SafeMath.sol\";\nimport \"@openzeppelin/contracts/token/ERC721/extensions/IERC721Enumerable.sol\";\nimport \"@openzeppelin/contracts/token/ERC721/IERC721Receiver.sol\";\nimport \"@openzeppelin/contracts/utils/structs/EnumerableSet.sol\";\nimport \"@openzeppelin/contracts/security/ReentrancyGuard.sol\";\nimport '@openzeppelin/contracts/utils/math/Math.sol';\nimport \"@openzeppelin/contracts/security/Pausable.sol\";\nimport \"@openzeppelin/contracts/token/ERC20/IERC20.sol\";\n\n\ncontract LostStaking is Ownable, IERC721Receiver, ReentrancyGuard, Pausable {\n    using EnumerableSet for EnumerableSet.UintSet; \n    \n    //addresses \n    address nullAddress = 0x0000000000000000000000000000000000000000;\n    address public stakingDestinationAddress;\n    address public stakingLostGirlAddr;\n    address public erc20Address;\n    address public ownerAddr;\n\n    //uint256's \n    uint256 public expiration; \n    uint public freezingDays;\n  \n    // mappings \n    mapping(address => EnumerableSet.UintSet) private _deposits;\n    mapping(address => mapping(uint256 => uint256)) public _depositBlocks;\n    mapping(address => mapping(uint256 => uint256)) public _depositBlocksTmp;\n    mapping(address => mapping(uint256 => uint256)) public _depositRarity;\n    mapping(uint256 => uint256) public _rewardArray;\n    mapping(uint256 => uint256) public _rewardRarity;\n\n    constructor(\n      address _stakingDestinationAddress, // Nft Contract Address\n      address _stakingLostGirlAddress, //nft Contract girl\n      uint256 _expiration,  //in days\n      address _erc20Address, // Token address\n      uint256[] memory rewardArray,\n      uint256[] memory rewardRarity\n    ) {\n        stakingLostGirlAddr = _stakingLostGirlAddress;\n        stakingDestinationAddress = _stakingDestinationAddress;\n        expiration = block.timestamp * (_expiration * 1 days);\n        erc20Address = _erc20Address;\n        ownerAddr = msg.sender;\n        freezingDays = 0;\n        \n        for (uint256 i; i < rewardArray.length; i++) {\n            _rewardArray[i] = rewardArray[i];\n        }\n\n        for (uint256 i; i < rewardRarity.length; i++) {\n            _rewardRarity[i] = rewardRarity[i];\n        }\n        \n        _pause();\n    }\n\n    modifier isExpired() {\n        require(0 < ((expiration - block.timestamp) / 60 / 60 / 24), \"Close Staking\");\n        _;\n    }\n\n    function pause() public onlyOwner {\n        _pause();\n    }\n\n    function unpause() public onlyOwner {\n        _unpause();\n    }\n\n    function setOneDayPrev(address account, uint256 tokenId) public onlyOwner(){\n        _depositBlocksTmp[account][tokenId] = _depositBlocksTmp[account][tokenId] - 1 days;\n        _depositBlocks[account][tokenId] = _depositBlocks[account][tokenId] - 1 days;\n    }\n\n    /* STAKING MECHANICS */\n\n    // Set a multiplier for how many tokens to earn each time a block passes.\n    function updateReward(uint256[] memory _updateReward) public onlyOwner() {\n        for (uint256 i; i < _updateReward.length; i++) {\n            _rewardArray[i] = _updateReward[i];\n        }\n    }\n\n    // Set a multiplier for how many tokens to earn each time a block passes.\n    function updateRarity(uint256[] memory _updateRarity) public onlyOwner() {\n        for (uint256 i; i < _updateRarity.length; i++) {\n            _rewardRarity[i] = _updateRarity[i];\n        }\n    }\n\n    function setfreezingDays(uint _freezDay) public onlyOwner() {\n        freezingDays = _freezDay;\n    }\n\n    // Set this to a block to disable the ability to continue accruing tokens past that block number.\n    function setExpiration(uint256 _expiration) public onlyOwner() {\n        expiration = block.timestamp * (_expiration * 1 days);\n    }\n\n    //check Lostboy Balance. \n    function balanceOfLostGirl(address account, uint256 tokens) external view returns (uint256 balance) {\n        uint256 balanceOfd = IERC721(stakingLostGirlAddr).balanceOf(account);\n        \n        if(balanceOfd <= 3){\n            return (tokens*_rewardArray[0]);\n        }else if(balanceOfd <= 6){\n            return (tokens*_rewardArray[1]);\n        }else if(balanceOfd <= 9){\n            return (tokens*_rewardArray[2]);\n        }else if(balanceOfd <= 15){\n            return (tokens*_rewardArray[3]);\n        }else if(balanceOfd > 15){\n            return (tokens*_rewardArray[4]);\n        }\n        return (tokens*100);\n    }\n\n    //check deposit amount. \n    function depositsOf(address account) external view returns (uint256[] memory) {\n      EnumerableSet.UintSet storage depositSet = _deposits[account];\n      uint256[] memory tokenIds = new uint256[] (depositSet.length());\n\n      for (uint256 i; i < depositSet.length(); i++) {\n        tokenIds[i] = depositSet.at(i);\n      }\n      return tokenIds;\n    }\n\n    function calculateRewards(address account, uint256[] memory tokenIds) \n      public \n      view \n      returns (uint256[] memory rewards) \n    {\n      rewards = new uint256[](tokenIds.length);\n\n      for (uint256 i; i < tokenIds.length; i++) {\n\n            uint256 tokenId = tokenIds[i];\n        \n            if(_deposits[account].contains(tokenId)){\n                uint256 diff = (block.timestamp - _depositBlocks[account][tokenId]) / 60 / 60 / 24;\n                uint256 tokenCount = _rewardRarity[_depositRarity[account][tokenId]] * diff;\n                rewards[i] = this.balanceOfLostGirl(account, tokenCount);\n            }else{\n                rewards[i] = 0;\n            }\n        \n      }\n\n      return rewards;\n    }\n\n    //reward amount by address/tokenIds[]\n    function calculateReward(address account, uint256 tokenId) public view isExpired returns (uint256) {\n        uint256 diff = (block.timestamp - _depositBlocks[account][tokenId]) / 60 / 60 / 24;\n        if(diff >= freezingDays){\n            uint256 totalToken = (_rewardRarity[_depositRarity[account][tokenId]] * ((_deposits[account].contains(tokenId) ? 1 : 0) * diff));\n            return this.balanceOfLostGirl(account, totalToken);\n        }\n        return 0;\n    }\n\n    //reward claim function \n    function claimRewards(uint256[] calldata tokenIds) public whenNotPaused {\n        uint256 reward; \n        uint256 blockCur = block.timestamp;\n\n        for (uint256 i; i < tokenIds.length; i++) {\n            reward += calculateReward(msg.sender, tokenIds[i]);\n\n            _depositBlocks[msg.sender][tokenIds[i]] = blockCur;\n        }\n        \n        if (reward > 0) {\n            IERC20(erc20Address).transferFrom(ownerAddr, msg.sender, (((reward * 10**18)/100)/100));\n        } \n    }\n\n    //deposit function. \n    function deposit(uint256[] calldata tokenIds, uint256[] calldata _rarity) external whenNotPaused {\n        require(msg.sender != stakingDestinationAddress, \"Invalid address\");\n        claimRewards(tokenIds);\n\n        for (uint256 i; i < tokenIds.length; i++) {\n            uint256 blockCur1 = block.timestamp;\n            _depositBlocksTmp[msg.sender][tokenIds[i]] = blockCur1;\n            _depositRarity[msg.sender][tokenIds[i]] = _rarity[i];\n            \n            IERC721(stakingDestinationAddress).safeTransferFrom(\n                msg.sender,\n                address(this),\n                tokenIds[i],\n                \"\"\n            );\n\n            _deposits[msg.sender].add(tokenIds[i]);\n        }\n    }\n\n    //withdrawal function.\n    function withdraw(uint256[] calldata tokenIds) external whenNotPaused nonReentrant() {\n        claimRewards(tokenIds);\n\n        for (uint256 i; i < tokenIds.length; i++) {\n            require( _deposits[msg.sender].contains(tokenIds[i]), \"Staking: token not deposited\");\n            uint256 diff = (block.timestamp - _depositBlocksTmp[msg.sender][tokenIds[i]]) / 60 / 60 / 24;\n            require( diff >= freezingDays , \"Freezing nft for Limited days\");\n\n            _deposits[msg.sender].remove(tokenIds[i]);\n\n            IERC721(stakingDestinationAddress).safeTransferFrom(\n                address(this),\n                msg.sender,\n                tokenIds[i],\n                \"\"\n            );\n        }\n    }\n \n    function onERC721Received(\n        address,\n        address,\n        uint256,\n        bytes calldata\n    ) external pure override returns (bytes4) {\n        return IERC721Receiver.onERC721Received.selector;\n    }\n}",
  "sourcePath": "/home/maulik/Desktop/Solidity/lostb_erc20/contract/contracts/LostStaking.sol",
  "compiler": {
    "name": "solc",
    "version": "0.8.11+commit.d7f03943.Emscripten.clang"
  },
  "schemaVersion": "3.4.3",
  "updatedAt": "2022-02-01T11:10:12.483Z",
  "networkType": "ethereum",
  "devdoc": {
    "kind": "dev",
    "methods": {
      "owner()": {
        "details": "Returns the address of the current owner."
      },
      "paused()": {
        "details": "Returns true if the contract is paused, and false otherwise."
      },
      "renounceOwnership()": {
        "details": "Leaves the contract without owner. It will not be possible to call `onlyOwner` functions anymore. Can only be called by the current owner. NOTE: Renouncing ownership will leave the contract without an owner, thereby removing any functionality that is only available to the owner."
      },
      "transferOwnership(address)": {
        "details": "Transfers ownership of the contract to a new account (`newOwner`). Can only be called by the current owner."
      }
    },
    "version": 1
  },
  "userdoc": {
    "kind": "user",
    "methods": {},
    "version": 1
  }
}