{
  "contractName": "LostStaking",
  "abi": [
    {
      "inputs": [
        {
          "internalType": "address",
          "name": "_stakingDestinationAddress",
          "type": "address"
        },
        {
          "internalType": "address",
          "name": "_stakingLostGirlAddress",
          "type": "address"
        },
        {
          "internalType": "uint256",
          "name": "_expiration",
          "type": "uint256"
        },
        {
          "internalType": "address",
          "name": "_erc20Address",
          "type": "address"
        },
        {
          "internalType": "uint256[]",
          "name": "rewardArray",
          "type": "uint256[]"
        },
        {
          "internalType": "uint256[]",
          "name": "rewardRarity",
          "type": "uint256[]"
        }
      ],
      "stateMutability": "nonpayable",
      "type": "constructor"
    },
    {
      "anonymous": false,
      "inputs": [
        {
          "indexed": true,
          "internalType": "address",
          "name": "previousOwner",
          "type": "address"
        },
        {
          "indexed": true,
          "internalType": "address",
          "name": "newOwner",
          "type": "address"
        }
      ],
      "name": "OwnershipTransferred",
      "type": "event"
    },
    {
      "anonymous": false,
      "inputs": [
        {
          "indexed": false,
          "internalType": "address",
          "name": "account",
          "type": "address"
        }
      ],
      "name": "Paused",
      "type": "event"
    },
    {
      "anonymous": false,
      "inputs": [
        {
          "indexed": false,
          "internalType": "address",
          "name": "account",
          "type": "address"
        }
      ],
      "name": "Unpaused",
      "type": "event"
    },
    {
      "inputs": [
        {
          "internalType": "address",
          "name": "",
          "type": "address"
        },
        {
          "internalType": "uint256",
          "name": "",
          "type": "uint256"
        }
      ],
      "name": "_depositBlocks",
      "outputs": [
        {
          "internalType": "uint256",
          "name": "",
          "type": "uint256"
        }
      ],
      "stateMutability": "view",
      "type": "function",
      "constant": true
    },
    {
      "inputs": [
        {
          "internalType": "address",
          "name": "",
          "type": "address"
        },
        {
          "internalType": "uint256",
          "name": "",
          "type": "uint256"
        }
      ],
      "name": "_depositBlocksTmp",
      "outputs": [
        {
          "internalType": "uint256",
          "name": "",
          "type": "uint256"
        }
      ],
      "stateMutability": "view",
      "type": "function",
      "constant": true
    },
    {
      "inputs": [
        {
          "internalType": "address",
          "name": "",
          "type": "address"
        },
        {
          "internalType": "uint256",
          "name": "",
          "type": "uint256"
        }
      ],
      "name": "_depositRarity",
      "outputs": [
        {
          "internalType": "uint256",
          "name": "",
          "type": "uint256"
        }
      ],
      "stateMutability": "view",
      "type": "function",
      "constant": true
    },
    {
      "inputs": [
        {
          "internalType": "uint256",
          "name": "",
          "type": "uint256"
        }
      ],
      "name": "_rewardArray",
      "outputs": [
        {
          "internalType": "uint256",
          "name": "",
          "type": "uint256"
        }
      ],
      "stateMutability": "view",
      "type": "function",
      "constant": true
    },
    {
      "inputs": [
        {
          "internalType": "uint256",
          "name": "",
          "type": "uint256"
        }
      ],
      "name": "_rewardRarity",
      "outputs": [
        {
          "internalType": "uint256",
          "name": "",
          "type": "uint256"
        }
      ],
      "stateMutability": "view",
      "type": "function",
      "constant": true
    },
    {
      "inputs": [],
      "name": "erc20Address",
      "outputs": [
        {
          "internalType": "address",
          "name": "",
          "type": "address"
        }
      ],
      "stateMutability": "view",
      "type": "function",
      "constant": true
    },
    {
      "inputs": [],
      "name": "expiration",
      "outputs": [
        {
          "internalType": "uint256",
          "name": "",
          "type": "uint256"
        }
      ],
      "stateMutability": "view",
      "type": "function",
      "constant": true
    },
    {
      "inputs": [],
      "name": "freezingDays",
      "outputs": [
        {
          "internalType": "uint256",
          "name": "",
          "type": "uint256"
        }
      ],
      "stateMutability": "view",
      "type": "function",
      "constant": true
    },
    {
      "inputs": [],
      "name": "owner",
      "outputs": [
        {
          "internalType": "address",
          "name": "",
          "type": "address"
        }
      ],
      "stateMutability": "view",
      "type": "function",
      "constant": true
    },
    {
      "inputs": [],
      "name": "ownerAddr",
      "outputs": [
        {
          "internalType": "address",
          "name": "",
          "type": "address"
        }
      ],
      "stateMutability": "view",
      "type": "function",
      "constant": true
    },
    {
      "inputs": [],
      "name": "paused",
      "outputs": [
        {
          "internalType": "bool",
          "name": "",
          "type": "bool"
        }
      ],
      "stateMutability": "view",
      "type": "function",
      "constant": true
    },
    {
      "inputs": [],
      "name": "renounceOwnership",
      "outputs": [],
      "stateMutability": "nonpayable",
      "type": "function"
    },
    {
      "inputs": [],
      "name": "stakingDestinationAddress",
      "outputs": [
        {
          "internalType": "address",
          "name": "",
          "type": "address"
        }
      ],
      "stateMutability": "view",
      "type": "function",
      "constant": true
    },
    {
      "inputs": [],
      "name": "stakingLostGirlAddr",
      "outputs": [
        {
          "internalType": "address",
          "name": "",
          "type": "address"
        }
      ],
      "stateMutability": "view",
      "type": "function",
      "constant": true
    },
    {
      "inputs": [
        {
          "internalType": "address",
          "name": "newOwner",
          "type": "address"
        }
      ],
      "name": "transferOwnership",
      "outputs": [],
      "stateMutability": "nonpayable",
      "type": "function"
    },
    {
      "inputs": [],
      "name": "pause",
      "outputs": [],
      "stateMutability": "nonpayable",
      "type": "function"
    },
    {
      "inputs": [],
      "name": "unpause",
      "outputs": [],
      "stateMutability": "nonpayable",
      "type": "function"
    },
    {
      "inputs": [
        {
          "internalType": "address",
          "name": "account",
          "type": "address"
        },
        {
          "internalType": "uint256",
          "name": "tokenId",
          "type": "uint256"
        }
      ],
      "name": "setOneDayPrev",
      "outputs": [],
      "stateMutability": "nonpayable",
      "type": "function"
    },
    {
      "inputs": [
        {
          "internalType": "address",
          "name": "account",
          "type": "address"
        },
        {
          "internalType": "uint256",
          "name": "tokenId",
          "type": "uint256"
        }
      ],
      "name": "getDiffrents",
      "outputs": [
        {
          "internalType": "uint256[]",
          "name": "",
          "type": "uint256[]"
        }
      ],
      "stateMutability": "view",
      "type": "function",
      "constant": true
    },
    {
      "inputs": [
        {
          "internalType": "uint256[]",
          "name": "_updateReward",
          "type": "uint256[]"
        }
      ],
      "name": "updateReward",
      "outputs": [],
      "stateMutability": "nonpayable",
      "type": "function"
    },
    {
      "inputs": [
        {
          "internalType": "uint256[]",
          "name": "_updateRarity",
          "type": "uint256[]"
        }
      ],
      "name": "updateRarity",
      "outputs": [],
      "stateMutability": "nonpayable",
      "type": "function"
    },
    {
      "inputs": [
        {
          "internalType": "uint256",
          "name": "_freezDay",
          "type": "uint256"
        }
      ],
      "name": "setfreezingDays",
      "outputs": [],
      "stateMutability": "nonpayable",
      "type": "function"
    },
    {
      "inputs": [
        {
          "internalType": "uint256",
          "name": "_expiration",
          "type": "uint256"
        }
      ],
      "name": "setExpiration",
      "outputs": [],
      "stateMutability": "nonpayable",
      "type": "function"
    },
    {
      "inputs": [
        {
          "internalType": "address",
          "name": "account",
          "type": "address"
        },
        {
          "internalType": "uint256",
          "name": "tokens",
          "type": "uint256"
        }
      ],
      "name": "balanceOfLostGirl",
      "outputs": [
        {
          "internalType": "uint256",
          "name": "balance",
          "type": "uint256"
        }
      ],
      "stateMutability": "view",
      "type": "function",
      "constant": true
    },
    {
      "inputs": [
        {
          "internalType": "address",
          "name": "account",
          "type": "address"
        }
      ],
      "name": "depositsOf",
      "outputs": [
        {
          "internalType": "uint256[]",
          "name": "",
          "type": "uint256[]"
        }
      ],
      "stateMutability": "view",
      "type": "function",
      "constant": true
    },
    {
      "inputs": [
        {
          "internalType": "address",
          "name": "account",
          "type": "address"
        },
        {
          "internalType": "uint256[]",
          "name": "tokenIds",
          "type": "uint256[]"
        }
      ],
      "name": "calculateRewards",
      "outputs": [
        {
          "internalType": "uint256[]",
          "name": "rewards",
          "type": "uint256[]"
        }
      ],
      "stateMutability": "view",
      "type": "function",
      "constant": true
    },
    {
      "inputs": [
        {
          "internalType": "address",
          "name": "account",
          "type": "address"
        },
        {
          "internalType": "uint256",
          "name": "tokenId",
          "type": "uint256"
        }
      ],
      "name": "calculateReward",
      "outputs": [
        {
          "internalType": "uint256",
          "name": "",
          "type": "uint256"
        }
      ],
      "stateMutability": "view",
      "type": "function",
      "constant": true
    },
    {
      "inputs": [
        {
          "internalType": "uint256[]",
          "name": "tokenIds",
          "type": "uint256[]"
        }
      ],
      "name": "claimRewards",
      "outputs": [],
      "stateMutability": "nonpayable",
      "type": "function"
    },
    {
      "inputs": [
        {
          "internalType": "uint256[]",
          "name": "tokenIds",
          "type": "uint256[]"
        },
        {
          "internalType": "uint256[]",
          "name": "_rarity",
          "type": "uint256[]"
        }
      ],
      "name": "deposit",
      "outputs": [],
      "stateMutability": "nonpayable",
      "type": "function"
    },
    {
      "inputs": [
        {
          "internalType": "uint256[]",
          "name": "tokenIds",
          "type": "uint256[]"
        }
      ],
      "name": "withdraw",
      "outputs": [],
      "stateMutability": "nonpayable",
      "type": "function"
    },
    {
      "inputs": [
        {
          "internalType": "address",
          "name": "",
          "type": "address"
        },
        {
          "internalType": "address",
          "name": "",
          "type": "address"
        },
        {
          "internalType": "uint256",
          "name": "",
          "type": "uint256"
        },
        {
          "internalType": "bytes",
          "name": "",
          "type": "bytes"
        }
      ],
      "name": "onERC721Received",
      "outputs": [
        {
          "internalType": "bytes4",
          "name": "",
          "type": "bytes4"
        }
      ],
      "stateMutability": "pure",
      "type": "function",
      "constant": true
    }
  ],
  "bytecode": "0x60806040526000600260016101000a81548173ffffffffffffffffffffffffffffffffffffffff021916908373ffffffffffffffffffffffffffffffffffffffff1602179055503480156200005357600080fd5b5060405162003dc238038062003dc283398181016040528101906200007991906200067d565b620000996200008d620002b960201b60201c565b620002c160201b60201c565b600180819055506000600260006101000a81548160ff02191690831515021790555084600460006101000a81548173ffffffffffffffffffffffffffffffffffffffff021916908373ffffffffffffffffffffffffffffffffffffffff16021790555085600360006101000a81548173ffffffffffffffffffffffffffffffffffffffff021916908373ffffffffffffffffffffffffffffffffffffffff16021790555062015180846200014e919062000786565b426200015b919062000786565b60078190555082600560006101000a81548173ffffffffffffffffffffffffffffffffffffffff021916908373ffffffffffffffffffffffffffffffffffffffff16021790555033600660006101000a81548173ffffffffffffffffffffffffffffffffffffffff021916908373ffffffffffffffffffffffffffffffffffffffff160217905550600060088190555060005b825181101562000243578281815181106200020e576200020d620007e7565b5b6020026020010151600d60008381526020019081526020016000208190555080806200023a9062000816565b915050620001ee565b5060005b81518110156200029c57818181518110620002675762000266620007e7565b5b6020026020010151600e6000838152602001908152602001600020819055508080620002939062000816565b91505062000247565b50620002ad6200038560201b60201c565b50505050505062000915565b600033905090565b60008060009054906101000a900473ffffffffffffffffffffffffffffffffffffffff169050816000806101000a81548173ffffffffffffffffffffffffffffffffffffffff021916908373ffffffffffffffffffffffffffffffffffffffff1602179055508173ffffffffffffffffffffffffffffffffffffffff168173ffffffffffffffffffffffffffffffffffffffff167f8be0079c531659141344cd1fd0a4f28419497f9722a3daafe3b4186f6b6457e060405160405180910390a35050565b620003956200043d60201b60201c565b15620003d8576040517f08c379a0000000000000000000000000000000000000000000000000000000008152600401620003cf90620008c5565b60405180910390fd5b6001600260006101000a81548160ff0219169083151502179055507f62e78cea01bee320cd4e420270b5ea74000d11b0c9f74754ebdbfc544b05a25862000424620002b960201b60201c565b604051620004339190620008f8565b60405180910390a1565b6000600260009054906101000a900460ff16905090565b6000604051905090565b600080fd5b600080fd5b600073ffffffffffffffffffffffffffffffffffffffff82169050919050565b6000620004958262000468565b9050919050565b620004a78162000488565b8114620004b357600080fd5b50565b600081519050620004c7816200049c565b92915050565b6000819050919050565b620004e281620004cd565b8114620004ee57600080fd5b50565b6000815190506200050281620004d7565b92915050565b600080fd5b6000601f19601f8301169050919050565b7f4e487b7100000000000000000000000000000000000000000000000000000000600052604160045260246000fd5b62000558826200050d565b810181811067ffffffffffffffff821117156200057a57620005796200051e565b5b80604052505050565b60006200058f62000454565b90506200059d82826200054d565b919050565b600067ffffffffffffffff821115620005c057620005bf6200051e565b5b602082029050602081019050919050565b600080fd5b6000620005ed620005e784620005a2565b62000583565b90508083825260208201905060208402830185811115620006135762000612620005d1565b5b835b818110156200064057806200062b8882620004f1565b84526020840193505060208101905062000615565b5050509392505050565b600082601f83011262000662576200066162000508565b5b815162000674848260208601620005d6565b91505092915050565b60008060008060008060c087890312156200069d576200069c6200045e565b5b6000620006ad89828a01620004b6565b9650506020620006c089828a01620004b6565b9550506040620006d389828a01620004f1565b9450506060620006e689828a01620004b6565b935050608087015167ffffffffffffffff8111156200070a576200070962000463565b5b6200071889828a016200064a565b92505060a087015167ffffffffffffffff8111156200073c576200073b62000463565b5b6200074a89828a016200064a565b9150509295509295509295565b7f4e487b7100000000000000000000000000000000000000000000000000000000600052601160045260246000fd5b60006200079382620004cd565b9150620007a083620004cd565b9250817fffffffffffffffffffffffffffffffffffffffffffffffffffffffffffffffff0483118215151615620007dc57620007db62000757565b5b828202905092915050565b7f4e487b7100000000000000000000000000000000000000000000000000000000600052603260045260246000fd5b60006200082382620004cd565b91507fffffffffffffffffffffffffffffffffffffffffffffffffffffffffffffffff82141562000859576200085862000757565b5b600182019050919050565b600082825260208201905092915050565b7f5061757361626c653a2070617573656400000000000000000000000000000000600082015250565b6000620008ad60108362000864565b9150620008ba8262000875565b602082019050919050565b60006020820190508181036000830152620008e0816200089e565b9050919050565b620008f28162000488565b82525050565b60006020820190506200090f6000830184620008e7565b92915050565b61349d80620009256000396000f3fe608060405234801561001057600080fd5b50600436106101e55760003560e01c8063715018a61161010f578063983d95ce116100a2578063c407c5b711610071578063c407c5b714610580578063e3a9db1a1461059c578063f223885a146105cc578063f2fde38b146105e8576101e5565b8063983d95ce146104e65780639a30cae4146105025780639c675eaa14610532578063b343ae1414610550576101e5565b806387ce25e0116100de57806387ce25e0146104725780638d2a2b5f146104905780638da5cb5b146104ac5780639788e2ac146104ca576101e5565b8063715018a614610410578063753eb2f71461041a5780638456cb591461044a57806386858fa414610454576101e5565b80633f4ba83a1161018757806353751c2f1161015657806353751c2f146103765780635c975abb146103a65780635eac6239146103c45780636e188ea9146103e0576101e5565b80633f4ba83a146103165780634665096d146103205780634fac72081461033e578063515a20ba1461035a576101e5565b80631852e8d9116101c35780631852e8d914610268578063276184ae146102985780632b403b08146102b65780632d875b07146102e6576101e5565b80630222a2c4146101ea578063068c526f14610208578063150b7a0214610238575b600080fd5b6101f2610604565b6040516101ff9190612608565b60405180910390f35b610222600480360381019061021d91906127f2565b61062a565b60405161022f919061290c565b60405180910390f35b610252600480360381019061024d9190612989565b6108ce565b60405161025f9190612a4c565b60405180910390f35b610282600480360381019061027d9190612a67565b6108e3565b60405161028f9190612ab6565b60405180910390f35b6102a0610b54565b6040516102ad9190612608565b60405180910390f35b6102d060048036038101906102cb9190612a67565b610b7a565b6040516102dd9190612ab6565b60405180910390f35b61030060048036038101906102fb9190612a67565b610d5d565b60405161030d9190612ab6565b60405180910390f35b61031e610d82565b005b610328610e08565b6040516103359190612ab6565b60405180910390f35b61035860048036038101906103539190612ad1565b610e0e565b005b610374600480360381019061036f9190612b1a565b610edf565b005b610390600480360381019061038b9190612a67565b610f7e565b60405161039d919061290c565b60405180910390f35b6103ae611175565b6040516103bb9190612b62565b60405180910390f35b6103de60048036038101906103d99190612bd3565b61118c565b005b6103fa60048036038101906103f59190612a67565b611399565b6040516104079190612ab6565b60405180910390f35b6104186113be565b005b610434600480360381019061042f9190612b1a565b611446565b6040516104419190612ab6565b60405180910390f35b61045261145e565b005b61045c6114e4565b6040516104699190612ab6565b60405180910390f35b61047a6114ea565b6040516104879190612608565b60405180910390f35b6104aa60048036038101906104a59190612ad1565b611510565b005b6104b46115e1565b6040516104c19190612608565b60405180910390f35b6104e460048036038101906104df9190612b1a565b61160a565b005b61050060048036038101906104fb9190612bd3565b611690565b005b61051c60048036038101906105179190612b1a565b6119fd565b6040516105299190612ab6565b60405180910390f35b61053a611a15565b6040516105479190612608565b60405180910390f35b61056a60048036038101906105659190612a67565b611a3b565b6040516105779190612ab6565b60405180910390f35b61059a60048036038101906105959190612a67565b611a60565b005b6105b660048036038101906105b19190612c20565b611c46565b6040516105c3919061290c565b60405180910390f35b6105e660048036038101906105e19190612c4d565b611d43565b005b61060260048036038101906105fd9190612c20565b61205e565b005b600360009054906101000a900473ffffffffffffffffffffffffffffffffffffffff1681565b6060815167ffffffffffffffff81111561064757610646612679565b5b6040519080825280602002602001820160405280156106755781602001602082028036833780820191505090505b50905060005b82518110156108c757600083828151811061069957610698612cce565b5b602002602001015190506106f481600960008873ffffffffffffffffffffffffffffffffffffffff1673ffffffffffffffffffffffffffffffffffffffff16815260200190815260200160002061215690919063ffffffff16565b156108915760006018603c80600a60008a73ffffffffffffffffffffffffffffffffffffffff1673ffffffffffffffffffffffffffffffffffffffff1681526020019081526020016000206000868152602001908152602001600020544261075c9190612d2c565b6107669190612d8f565b6107709190612d8f565b61077a9190612d8f565b9050600081600e6000600c60008b73ffffffffffffffffffffffffffffffffffffffff1673ffffffffffffffffffffffffffffffffffffffff1681526020019081526020016000206000878152602001908152602001600020548152602001908152602001600020546107ed9190612dc0565b90503073ffffffffffffffffffffffffffffffffffffffff16632b403b0888836040518363ffffffff1660e01b815260040161082a929190612e1a565b602060405180830381865afa158015610847573d6000803e3d6000fd5b505050506040513d601f19601f8201168201806040525081019061086b9190612e58565b85858151811061087e5761087d612cce565b5b60200260200101818152505050506108b3565b60008383815181106108a6576108a5612cce565b5b6020026020010181815250505b5080806108bf90612e85565b91505061067b565b5092915050565b600063150b7a0260e01b905095945050505050565b60006018603c80426007546108f89190612d2c565b6109029190612d8f565b61090c9190612d8f565b6109169190612d8f565b600010610958576040517f08c379a000000000000000000000000000000000000000000000000000000000815260040161094f90612f2b565b60405180910390fd5b60006018603c80600a60008873ffffffffffffffffffffffffffffffffffffffff1673ffffffffffffffffffffffffffffffffffffffff168152602001908152602001600020600087815260200190815260200160002054426109bb9190612d2c565b6109c59190612d8f565b6109cf9190612d8f565b6109d99190612d8f565b90506008548110610b4857600081610a3885600960008973ffffffffffffffffffffffffffffffffffffffff1673ffffffffffffffffffffffffffffffffffffffff16815260200190815260200160002061215690919063ffffffff16565b610a43576000610a46565b60015b60ff16610a539190612dc0565b600e6000600c60008973ffffffffffffffffffffffffffffffffffffffff1673ffffffffffffffffffffffffffffffffffffffff168152602001908152602001600020600088815260200190815260200160002054815260200190815260200160002054610ac19190612dc0565b90503073ffffffffffffffffffffffffffffffffffffffff16632b403b0886836040518363ffffffff1660e01b8152600401610afe929190612e1a565b602060405180830381865afa158015610b1b573d6000803e3d6000fd5b505050506040513d601f19601f82011682018060405250810190610b3f9190612e58565b92505050610b4e565b60009150505b92915050565b600560009054906101000a900473ffffffffffffffffffffffffffffffffffffffff1681565b600080600460009054906101000a900473ffffffffffffffffffffffffffffffffffffffff1673ffffffffffffffffffffffffffffffffffffffff166370a08231856040518263ffffffff1660e01b8152600401610bd89190612608565b602060405180830381865afa158015610bf5573d6000803e3d6000fd5b505050506040513d601f19601f82011682018060405250810190610c199190612e58565b9050600081118015610c2c575060038111155b15610c5857600d60008081526020019081526020016000205483610c509190612dc0565b915050610d57565b60048110158015610c6a575060068111155b15610c9757600d6000600181526020019081526020016000205483610c8f9190612dc0565b915050610d57565b60078110158015610ca9575060098111155b15610cd657600d6000600281526020019081526020016000205483610cce9190612dc0565b915050610d57565b600a8110158015610ce85750600f8111155b15610d1557600d6000600381526020019081526020016000205483610d0d9190612dc0565b915050610d57565b600f811115610d4657600d6000600481526020019081526020016000205483610d3e9190612dc0565b915050610d57565b606483610d539190612dc0565b9150505b92915050565b600c602052816000526040600020602052806000526040600020600091509150505481565b610d8a612170565b73ffffffffffffffffffffffffffffffffffffffff16610da86115e1565b73ffffffffffffffffffffffffffffffffffffffff1614610dfe576040517f08c379a0000000000000000000000000000000000000000000000000000000008152600401610df590612f97565b60405180910390fd5b610e06612178565b565b60075481565b610e16612170565b73ffffffffffffffffffffffffffffffffffffffff16610e346115e1565b73ffffffffffffffffffffffffffffffffffffffff1614610e8a576040517f08c379a0000000000000000000000000000000000000000000000000000000008152600401610e8190612f97565b60405180910390fd5b60005b8151811015610edb57818181518110610ea957610ea8612cce565b5b6020026020010151600d6000838152602001908152602001600020819055508080610ed390612e85565b915050610e8d565b5050565b610ee7612170565b73ffffffffffffffffffffffffffffffffffffffff16610f056115e1565b73ffffffffffffffffffffffffffffffffffffffff1614610f5b576040517f08c379a0000000000000000000000000000000000000000000000000000000008152600401610f5290612f97565b60405180910390fd5b6201518081610f6a9190612dc0565b42610f759190612dc0565b60078190555050565b60606000600267ffffffffffffffff811115610f9d57610f9c612679565b5b604051908082528060200260200182016040528015610fcb5781602001602082028036833780820191505090505b50905060006018603c80600a60008973ffffffffffffffffffffffffffffffffffffffff1673ffffffffffffffffffffffffffffffffffffffff168152602001908152602001600020600088815260200190815260200160002054426110319190612d2c565b61103b9190612d8f565b6110459190612d8f565b61104f9190612d8f565b9050600081600e6000600c60008a73ffffffffffffffffffffffffffffffffffffffff1673ffffffffffffffffffffffffffffffffffffffff1681526020019081526020016000206000898152602001908152602001600020548152602001908152602001600020546110c29190612dc0565b905080836000815181106110d9576110d8612cce565b5b602002602001018181525050600e6000600c60008973ffffffffffffffffffffffffffffffffffffffff1673ffffffffffffffffffffffffffffffffffffffff1681526020019081526020016000206000888152602001908152602001600020548152602001908152602001600020548360018151811061115d5761115c612cce565b5b60200260200101818152505082935050505092915050565b6000600260009054906101000a900460ff16905090565b611194611175565b156111d4576040517f08c379a00000000000000000000000000000000000000000000000000000000081526004016111cb90613003565b60405180910390fd5b60008042905060005b848490508110156112995761120b338686848181106111ff576111fe612cce565b5b905060200201356108e3565b836112169190613023565b925081600a60003373ffffffffffffffffffffffffffffffffffffffff1673ffffffffffffffffffffffffffffffffffffffff168152602001908152602001600020600087878581811061126d5761126c612cce565b5b90506020020135815260200190815260200160002081905550808061129190612e85565b9150506111dd565b50600082111561139357600560009054906101000a900473ffffffffffffffffffffffffffffffffffffffff1673ffffffffffffffffffffffffffffffffffffffff166323b872dd600660009054906101000a900473ffffffffffffffffffffffffffffffffffffffff1633606480670de0b6b3a76400008861131c9190612dc0565b6113269190612d8f565b6113309190612d8f565b6040518463ffffffff1660e01b815260040161134e93929190613079565b6020604051808303816000875af115801561136d573d6000803e3d6000fd5b505050506040513d601f19601f8201168201806040525081019061139191906130dc565b505b50505050565b600b602052816000526040600020602052806000526040600020600091509150505481565b6113c6612170565b73ffffffffffffffffffffffffffffffffffffffff166113e46115e1565b73ffffffffffffffffffffffffffffffffffffffff161461143a576040517f08c379a000000000000000000000000000000000000000000000000000000000815260040161143190612f97565b60405180910390fd5b611444600061221a565b565b600e6020528060005260406000206000915090505481565b611466612170565b73ffffffffffffffffffffffffffffffffffffffff166114846115e1565b73ffffffffffffffffffffffffffffffffffffffff16146114da576040517f08c379a00000000000000000000000000000000000000000000000000000000081526004016114d190612f97565b60405180910390fd5b6114e26122de565b565b60085481565b600460009054906101000a900473ffffffffffffffffffffffffffffffffffffffff1681565b611518612170565b73ffffffffffffffffffffffffffffffffffffffff166115366115e1565b73ffffffffffffffffffffffffffffffffffffffff161461158c576040517f08c379a000000000000000000000000000000000000000000000000000000000815260040161158390612f97565b60405180910390fd5b60005b81518110156115dd578181815181106115ab576115aa612cce565b5b6020026020010151600e60008381526020019081526020016000208190555080806115d590612e85565b91505061158f565b5050565b60008060009054906101000a900473ffffffffffffffffffffffffffffffffffffffff16905090565b611612612170565b73ffffffffffffffffffffffffffffffffffffffff166116306115e1565b73ffffffffffffffffffffffffffffffffffffffff1614611686576040517f08c379a000000000000000000000000000000000000000000000000000000000815260040161167d90612f97565b60405180910390fd5b8060088190555050565b611698611175565b156116d8576040517f08c379a00000000000000000000000000000000000000000000000000000000081526004016116cf90613003565b60405180910390fd5b6002600154141561171e576040517f08c379a000000000000000000000000000000000000000000000000000000000815260040161171590613155565b60405180910390fd5b6002600181905550611730828261118c565b60005b828290508110156119f1576117a883838381811061175457611753612cce565b5b90506020020135600960003373ffffffffffffffffffffffffffffffffffffffff1673ffffffffffffffffffffffffffffffffffffffff16815260200190815260200160002061215690919063ffffffff16565b6117e7576040517f08c379a00000000000000000000000000000000000000000000000000000000081526004016117de906131c1565b60405180910390fd5b60006018603c80600b60003373ffffffffffffffffffffffffffffffffffffffff1673ffffffffffffffffffffffffffffffffffffffff168152602001908152602001600020600088888881811061184257611841612cce565b5b90506020020135815260200190815260200160002054426118639190612d2c565b61186d9190612d8f565b6118779190612d8f565b6118819190612d8f565b90506008548110156118c8576040517f08c379a00000000000000000000000000000000000000000000000000000000081526004016118bf9061322d565b60405180910390fd5b6119328484848181106118de576118dd612cce565b5b90506020020135600960003373ffffffffffffffffffffffffffffffffffffffff1673ffffffffffffffffffffffffffffffffffffffff16815260200190815260200160002061238190919063ffffffff16565b50600360009054906101000a900473ffffffffffffffffffffffffffffffffffffffff1673ffffffffffffffffffffffffffffffffffffffff1663b88d4fde303387878781811061198657611985612cce565b5b905060200201356040518463ffffffff1660e01b81526004016119ab93929190613284565b600060405180830381600087803b1580156119c557600080fd5b505af11580156119d9573d6000803e3d6000fd5b505050505080806119e990612e85565b915050611733565b50600180819055505050565b600d6020528060005260406000206000915090505481565b600660009054906101000a900473ffffffffffffffffffffffffffffffffffffffff1681565b600a602052816000526040600020602052806000526040600020600091509150505481565b611a68612170565b73ffffffffffffffffffffffffffffffffffffffff16611a866115e1565b73ffffffffffffffffffffffffffffffffffffffff1614611adc576040517f08c379a0000000000000000000000000000000000000000000000000000000008152600401611ad390612f97565b60405180910390fd5b62015180600b60008473ffffffffffffffffffffffffffffffffffffffff1673ffffffffffffffffffffffffffffffffffffffff168152602001908152602001600020600083815260200190815260200160002054611b3b9190612d2c565b600b60008473ffffffffffffffffffffffffffffffffffffffff1673ffffffffffffffffffffffffffffffffffffffff16815260200190815260200160002060008381526020019081526020016000208190555062015180600a60008473ffffffffffffffffffffffffffffffffffffffff1673ffffffffffffffffffffffffffffffffffffffff168152602001908152602001600020600083815260200190815260200160002054611bee9190612d2c565b600a60008473ffffffffffffffffffffffffffffffffffffffff1673ffffffffffffffffffffffffffffffffffffffff1681526020019081526020016000206000838152602001908152602001600020819055505050565b60606000600960008473ffffffffffffffffffffffffffffffffffffffff1673ffffffffffffffffffffffffffffffffffffffff16815260200190815260200160002090506000611c968261239b565b67ffffffffffffffff811115611caf57611cae612679565b5b604051908082528060200260200182016040528015611cdd5781602001602082028036833780820191505090505b50905060005b611cec8361239b565b811015611d3857611d0681846123b090919063ffffffff16565b828281518110611d1957611d18612cce565b5b6020026020010181815250508080611d3090612e85565b915050611ce3565b508092505050919050565b611d4b611175565b15611d8b576040517f08c379a0000000000000000000000000000000000000000000000000000000008152600401611d8290613003565b60405180910390fd5b600360009054906101000a900473ffffffffffffffffffffffffffffffffffffffff1673ffffffffffffffffffffffffffffffffffffffff163373ffffffffffffffffffffffffffffffffffffffff161415611e1c576040517f08c379a0000000000000000000000000000000000000000000000000000000008152600401611e139061331a565b60405180910390fd5b611e26848461118c565b60005b8484905081101561205757600042905080600b60003373ffffffffffffffffffffffffffffffffffffffff1673ffffffffffffffffffffffffffffffffffffffff1681526020019081526020016000206000888886818110611e8e57611e8d612cce565b5b90506020020135815260200190815260200160002081905550838383818110611eba57611eb9612cce565b5b90506020020135600c60003373ffffffffffffffffffffffffffffffffffffffff1673ffffffffffffffffffffffffffffffffffffffff1681526020019081526020016000206000888886818110611f1557611f14612cce565b5b90506020020135815260200190815260200160002081905550600360009054906101000a900473ffffffffffffffffffffffffffffffffffffffff1673ffffffffffffffffffffffffffffffffffffffff1663b88d4fde3330898987818110611f8157611f80612cce565b5b905060200201356040518463ffffffff1660e01b8152600401611fa693929190613284565b600060405180830381600087803b158015611fc057600080fd5b505af1158015611fd4573d6000803e3d6000fd5b50505050612042868684818110611fee57611fed612cce565b5b90506020020135600960003373ffffffffffffffffffffffffffffffffffffffff1673ffffffffffffffffffffffffffffffffffffffff1681526020019081526020016000206123ca90919063ffffffff16565b5050808061204f90612e85565b915050611e29565b5050505050565b612066612170565b73ffffffffffffffffffffffffffffffffffffffff166120846115e1565b73ffffffffffffffffffffffffffffffffffffffff16146120da576040517f08c379a00000000000000000000000000000000000000000000000000000000081526004016120d190612f97565b60405180910390fd5b600073ffffffffffffffffffffffffffffffffffffffff168173ffffffffffffffffffffffffffffffffffffffff16141561214a576040517f08c379a0000000000000000000000000000000000000000000000000000000008152600401612141906133ac565b60405180910390fd5b6121538161221a565b50565b6000612168836000018360001b6123e4565b905092915050565b600033905090565b612180611175565b6121bf576040517f08c379a00000000000000000000000000000000000000000000000000000000081526004016121b690613418565b60405180910390fd5b6000600260006101000a81548160ff0219169083151502179055507f5db9ee0a495bf2e6ff9c91a7834c1ba4fdd244a5e8aa4e537bd38aeae4b073aa612203612170565b6040516122109190612608565b60405180910390a1565b60008060009054906101000a900473ffffffffffffffffffffffffffffffffffffffff169050816000806101000a81548173ffffffffffffffffffffffffffffffffffffffff021916908373ffffffffffffffffffffffffffffffffffffffff1602179055508173ffffffffffffffffffffffffffffffffffffffff168173ffffffffffffffffffffffffffffffffffffffff167f8be0079c531659141344cd1fd0a4f28419497f9722a3daafe3b4186f6b6457e060405160405180910390a35050565b6122e6611175565b15612326576040517f08c379a000000000000000000000000000000000000000000000000000000000815260040161231d90613003565b60405180910390fd5b6001600260006101000a81548160ff0219169083151502179055507f62e78cea01bee320cd4e420270b5ea74000d11b0c9f74754ebdbfc544b05a25861236a612170565b6040516123779190612608565b60405180910390a1565b6000612393836000018360001b612407565b905092915050565b60006123a98260000161251b565b9050919050565b60006123bf836000018361252c565b60001c905092915050565b60006123dc836000018360001b612557565b905092915050565b600080836001016000848152602001908152602001600020541415905092915050565b6000808360010160008481526020019081526020016000205490506000811461250f5760006001826124399190612d2c565b90506000600186600001805490506124519190612d2c565b90508181146124c057600086600001828154811061247257612471612cce565b5b906000526020600020015490508087600001848154811061249657612495612cce565b5b90600052602060002001819055508387600101600083815260200190815260200160002081905550505b856000018054806124d4576124d3613438565b5b600190038181906000526020600020016000905590558560010160008681526020019081526020016000206000905560019350505050612515565b60009150505b92915050565b600081600001805490509050919050565b600082600001828154811061254457612543612cce565b5b9060005260206000200154905092915050565b600061256383836123e4565b6125bc5782600001829080600181540180825580915050600190039060005260206000200160009091909190915055826000018054905083600101600084815260200190815260200160002081905550600190506125c1565b600090505b92915050565b600073ffffffffffffffffffffffffffffffffffffffff82169050919050565b60006125f2826125c7565b9050919050565b612602816125e7565b82525050565b600060208201905061261d60008301846125f9565b92915050565b6000604051905090565b600080fd5b600080fd5b612640816125e7565b811461264b57600080fd5b50565b60008135905061265d81612637565b92915050565b600080fd5b6000601f19601f8301169050919050565b7f4e487b7100000000000000000000000000000000000000000000000000000000600052604160045260246000fd5b6126b182612668565b810181811067ffffffffffffffff821117156126d0576126cf612679565b5b80604052505050565b60006126e3612623565b90506126ef82826126a8565b919050565b600067ffffffffffffffff82111561270f5761270e612679565b5b602082029050602081019050919050565b600080fd5b6000819050919050565b61273881612725565b811461274357600080fd5b50565b6000813590506127558161272f565b92915050565b600061276e612769846126f4565b6126d9565b9050808382526020820190506020840283018581111561279157612790612720565b5b835b818110156127ba57806127a68882612746565b845260208401935050602081019050612793565b5050509392505050565b600082601f8301126127d9576127d8612663565b5b81356127e984826020860161275b565b91505092915050565b600080604083850312156128095761280861262d565b5b60006128178582860161264e565b925050602083013567ffffffffffffffff81111561283857612837612632565b5b612844858286016127c4565b9150509250929050565b600081519050919050565b600082825260208201905092915050565b6000819050602082019050919050565b61288381612725565b82525050565b6000612895838361287a565b60208301905092915050565b6000602082019050919050565b60006128b98261284e565b6128c38185612859565b93506128ce8361286a565b8060005b838110156128ff5781516128e68882612889565b97506128f1836128a1565b9250506001810190506128d2565b5085935050505092915050565b6000602082019050818103600083015261292681846128ae565b905092915050565b600080fd5b60008083601f84011261294957612948612663565b5b8235905067ffffffffffffffff8111156129665761296561292e565b5b60208301915083600182028301111561298257612981612720565b5b9250929050565b6000806000806000608086880312156129a5576129a461262d565b5b60006129b38882890161264e565b95505060206129c48882890161264e565b94505060406129d588828901612746565b935050606086013567ffffffffffffffff8111156129f6576129f5612632565b5b612a0288828901612933565b92509250509295509295909350565b60007fffffffff0000000000000000000000000000000000000000000000000000000082169050919050565b612a4681612a11565b82525050565b6000602082019050612a616000830184612a3d565b92915050565b60008060408385031215612a7e57612a7d61262d565b5b6000612a8c8582860161264e565b9250506020612a9d85828601612746565b9150509250929050565b612ab081612725565b82525050565b6000602082019050612acb6000830184612aa7565b92915050565b600060208284031215612ae757612ae661262d565b5b600082013567ffffffffffffffff811115612b0557612b04612632565b5b612b11848285016127c4565b91505092915050565b600060208284031215612b3057612b2f61262d565b5b6000612b3e84828501612746565b91505092915050565b60008115159050919050565b612b5c81612b47565b82525050565b6000602082019050612b776000830184612b53565b92915050565b60008083601f840112612b9357612b92612663565b5b8235905067ffffffffffffffff811115612bb057612baf61292e565b5b602083019150836020820283011115612bcc57612bcb612720565b5b9250929050565b60008060208385031215612bea57612be961262d565b5b600083013567ffffffffffffffff811115612c0857612c07612632565b5b612c1485828601612b7d565b92509250509250929050565b600060208284031215612c3657612c3561262d565b5b6000612c448482850161264e565b91505092915050565b60008060008060408587031215612c6757612c6661262d565b5b600085013567ffffffffffffffff811115612c8557612c84612632565b5b612c9187828801612b7d565b9450945050602085013567ffffffffffffffff811115612cb457612cb3612632565b5b612cc087828801612b7d565b925092505092959194509250565b7f4e487b7100000000000000000000000000000000000000000000000000000000600052603260045260246000fd5b7f4e487b7100000000000000000000000000000000000000000000000000000000600052601160045260246000fd5b6000612d3782612725565b9150612d4283612725565b925082821015612d5557612d54612cfd565b5b828203905092915050565b7f4e487b7100000000000000000000000000000000000000000000000000000000600052601260045260246000fd5b6000612d9a82612725565b9150612da583612725565b925082612db557612db4612d60565b5b828204905092915050565b6000612dcb82612725565b9150612dd683612725565b9250817fffffffffffffffffffffffffffffffffffffffffffffffffffffffffffffffff0483118215151615612e0f57612e0e612cfd565b5b828202905092915050565b6000604082019050612e2f60008301856125f9565b612e3c6020830184612aa7565b9392505050565b600081519050612e528161272f565b92915050565b600060208284031215612e6e57612e6d61262d565b5b6000612e7c84828501612e43565b91505092915050565b6000612e9082612725565b91507fffffffffffffffffffffffffffffffffffffffffffffffffffffffffffffffff821415612ec357612ec2612cfd565b5b600182019050919050565b600082825260208201905092915050565b7f436c6f7365205374616b696e6700000000000000000000000000000000000000600082015250565b6000612f15600d83612ece565b9150612f2082612edf565b602082019050919050565b60006020820190508181036000830152612f4481612f08565b9050919050565b7f4f776e61626c653a2063616c6c6572206973206e6f7420746865206f776e6572600082015250565b6000612f81602083612ece565b9150612f8c82612f4b565b602082019050919050565b60006020820190508181036000830152612fb081612f74565b9050919050565b7f5061757361626c653a2070617573656400000000000000000000000000000000600082015250565b6000612fed601083612ece565b9150612ff882612fb7565b602082019050919050565b6000602082019050818103600083015261301c81612fe0565b9050919050565b600061302e82612725565b915061303983612725565b9250827fffffffffffffffffffffffffffffffffffffffffffffffffffffffffffffffff0382111561306e5761306d612cfd565b5b828201905092915050565b600060608201905061308e60008301866125f9565b61309b60208301856125f9565b6130a86040830184612aa7565b949350505050565b6130b981612b47565b81146130c457600080fd5b50565b6000815190506130d6816130b0565b92915050565b6000602082840312156130f2576130f161262d565b5b6000613100848285016130c7565b91505092915050565b7f5265656e7472616e637947756172643a207265656e7472616e742063616c6c00600082015250565b600061313f601f83612ece565b915061314a82613109565b602082019050919050565b6000602082019050818103600083015261316e81613132565b9050919050565b7f5374616b696e673a20746f6b656e206e6f74206465706f736974656400000000600082015250565b60006131ab601c83612ece565b91506131b682613175565b602082019050919050565b600060208201905081810360008301526131da8161319e565b9050919050565b7f467265657a696e67206e667420666f72204c696d697465642064617973000000600082015250565b6000613217601d83612ece565b9150613222826131e1565b602082019050919050565b600060208201905081810360008301526132468161320a565b9050919050565b600082825260208201905092915050565b50565b600061326e60008361324d565b91506132798261325e565b600082019050919050565b600060808201905061329960008301866125f9565b6132a660208301856125f9565b6132b36040830184612aa7565b81810360608301526132c481613261565b9050949350505050565b7f496e76616c696420616464726573730000000000000000000000000000000000600082015250565b6000613304600f83612ece565b915061330f826132ce565b602082019050919050565b60006020820190508181036000830152613333816132f7565b9050919050565b7f4f776e61626c653a206e6577206f776e657220697320746865207a65726f206160008201527f6464726573730000000000000000000000000000000000000000000000000000602082015250565b6000613396602683612ece565b91506133a18261333a565b604082019050919050565b600060208201905081810360008301526133c581613389565b9050919050565b7f5061757361626c653a206e6f7420706175736564000000000000000000000000600082015250565b6000613402601483612ece565b915061340d826133cc565b602082019050919050565b60006020820190508181036000830152613431816133f5565b9050919050565b7f4e487b7100000000000000000000000000000000000000000000000000000000600052603160045260246000fdfea26469706673582212206dcdefc61b6a7d1f224f29633202c0e6b890f73075aced0b913400c5278651bd64736f6c634300080b0033",
  "immutableReferences": {},
  "source": "// SPDX-License-Identifier: MIT\npragma solidity ^0.8.0;\n\nimport \"@openzeppelin/contracts/access/Ownable.sol\";\nimport \"@openzeppelin/contracts/utils/math/SafeMath.sol\";\nimport \"@openzeppelin/contracts/token/ERC721/extensions/IERC721Enumerable.sol\";\nimport \"@openzeppelin/contracts/token/ERC721/IERC721Receiver.sol\";\nimport \"@openzeppelin/contracts/utils/structs/EnumerableSet.sol\";\nimport \"@openzeppelin/contracts/security/ReentrancyGuard.sol\";\nimport '@openzeppelin/contracts/utils/math/Math.sol';\nimport \"@openzeppelin/contracts/security/Pausable.sol\";\nimport \"@openzeppelin/contracts/token/ERC20/IERC20.sol\";\n\n\ncontract LostStaking is Ownable, IERC721Receiver, ReentrancyGuard, Pausable {\n    using EnumerableSet for EnumerableSet.UintSet; \n    \n    //addresses \n    address nullAddress = 0x0000000000000000000000000000000000000000;\n    address public stakingDestinationAddress;\n    address public stakingLostGirlAddr;\n    address public erc20Address;\n    address public ownerAddr;\n\n    //uint256's \n    uint256 public expiration; \n    uint public freezingDays;\n  \n    // mappings \n    mapping(address => EnumerableSet.UintSet) private _deposits;\n    mapping(address => mapping(uint256 => uint256)) public _depositBlocks;\n    mapping(address => mapping(uint256 => uint256)) public _depositBlocksTmp;\n    mapping(address => mapping(uint256 => uint256)) public _depositRarity;\n    mapping(uint256 => uint256) public _rewardArray;\n    mapping(uint256 => uint256) public _rewardRarity;\n\n    constructor(\n      address _stakingDestinationAddress, // Nft Contract Address\n      address _stakingLostGirlAddress, //nft Contract girl\n      uint256 _expiration,  //in days\n      address _erc20Address, // Token address\n      uint256[] memory rewardArray,\n      uint256[] memory rewardRarity\n    ) {\n        stakingLostGirlAddr = _stakingLostGirlAddress;\n        stakingDestinationAddress = _stakingDestinationAddress;\n        expiration = block.timestamp * (_expiration * 1 days);\n        erc20Address = _erc20Address;\n        ownerAddr = msg.sender;\n        freezingDays = 0;\n        \n        for (uint256 i; i < rewardArray.length; i++) {\n            _rewardArray[i] = rewardArray[i];\n        }\n\n        for (uint256 i; i < rewardRarity.length; i++) {\n            _rewardRarity[i] = rewardRarity[i];\n        }\n        \n        _pause();\n    }\n\n    modifier isExpired() {\n        require(0 < ((expiration - block.timestamp) / 60 / 60 / 24), \"Close Staking\");\n        _;\n    }\n\n    function pause() public onlyOwner {\n        _pause();\n    }\n\n    function unpause() public onlyOwner {\n        _unpause();\n    }\n\n    function setOneDayPrev(address account, uint256 tokenId) public onlyOwner(){\n        _depositBlocksTmp[account][tokenId] = _depositBlocksTmp[account][tokenId] - 1 days;\n        _depositBlocks[account][tokenId] = _depositBlocks[account][tokenId] - 1 days;\n    }\n\n    function getDiffrents(address account, uint256 tokenId) public view returns(uint256[] memory){\n        \n        uint256[] memory diffrent = new uint256[] (2);\n        \n        uint256 diff = (block.timestamp - _depositBlocks[account][tokenId]) / 60 / 60 / 24;\n        uint256 tokenCount = _rewardRarity[_depositRarity[account][tokenId]] * diff;\n        diffrent[0] = tokenCount;\n        diffrent[1] = _rewardRarity[_depositRarity[account][tokenId]];\n        \n        return diffrent;\n\n\n\n    }\n\n    /* STAKING MECHANICS */\n\n    // Set a multiplier for how many tokens to earn each time a block passes.\n    function updateReward(uint256[] memory _updateReward) public onlyOwner() {\n        for (uint256 i; i < _updateReward.length; i++) {\n            _rewardArray[i] = _updateReward[i];\n        }\n    }\n\n    // Set a multiplier for how many tokens to earn each time a block passes.\n    function updateRarity(uint256[] memory _updateRarity) public onlyOwner() {\n        for (uint256 i; i < _updateRarity.length; i++) {\n            _rewardRarity[i] = _updateRarity[i];\n        }\n    }\n\n    function setfreezingDays(uint _freezDay) public onlyOwner() {\n        freezingDays = _freezDay;\n    }\n\n    // Set this to a block to disable the ability to continue accruing tokens past that block number.\n    function setExpiration(uint256 _expiration) public onlyOwner() {\n        expiration = block.timestamp * (_expiration * 1 days);\n    }\n\n    //check Lostboy Balance. \n    function balanceOfLostGirl(address account, uint256 tokens) external view returns (uint256 balance) {\n        uint256 balanceOfd = IERC721(stakingLostGirlAddr).balanceOf(account);\n        \n        if(balanceOfd > 0 && balanceOfd <= 3){\n            return (tokens*_rewardArray[0]);\n        }else if(balanceOfd >= 4 && balanceOfd <= 6){\n            return (tokens*_rewardArray[1]);\n        }else if(balanceOfd >= 7 && balanceOfd <= 9){\n            return (tokens*_rewardArray[2]);\n        }else if(balanceOfd >= 10 && balanceOfd <= 15){\n            return (tokens*_rewardArray[3]);\n        }else if(balanceOfd > 15){\n            return (tokens*_rewardArray[4]);\n        }\n        return (tokens*100);\n    }\n\n    //check deposit amount. \n    function depositsOf(address account) external view returns (uint256[] memory) {\n      EnumerableSet.UintSet storage depositSet = _deposits[account];\n      uint256[] memory tokenIds = new uint256[] (depositSet.length());\n\n      for (uint256 i; i < depositSet.length(); i++) {\n        tokenIds[i] = depositSet.at(i);\n      }\n      return tokenIds;\n    }\n\n    function calculateRewards(address account, uint256[] memory tokenIds) \n      public \n      view \n      returns (uint256[] memory rewards) \n    {\n      rewards = new uint256[](tokenIds.length);\n\n      for (uint256 i; i < tokenIds.length; i++) {\n\n            uint256 tokenId = tokenIds[i];\n        \n            if(_deposits[account].contains(tokenId)){\n                uint256 diff = (block.timestamp - _depositBlocks[account][tokenId]) / 60 / 60 / 24;\n                uint256 tokenCount = _rewardRarity[_depositRarity[account][tokenId]] * diff;\n                rewards[i] = this.balanceOfLostGirl(account, tokenCount);\n            }else{\n                rewards[i] = 0;\n            }\n        \n      }\n\n      return rewards;\n    }\n\n    //reward amount by address/tokenIds[]\n    function calculateReward(address account, uint256 tokenId) public view isExpired returns (uint256) {\n        uint256 diff = (block.timestamp - _depositBlocks[account][tokenId]) / 60 / 60 / 24;\n        if(diff >= freezingDays){\n            uint256 totalToken = (_rewardRarity[_depositRarity[account][tokenId]] * ((_deposits[account].contains(tokenId) ? 1 : 0) * diff));\n            return this.balanceOfLostGirl(account, totalToken);\n        }\n        return 0;\n    }\n\n    //reward claim function \n    function claimRewards(uint256[] calldata tokenIds) public whenNotPaused {\n        uint256 reward; \n        uint256 blockCur = block.timestamp;\n\n        for (uint256 i; i < tokenIds.length; i++) {\n            reward += calculateReward(msg.sender, tokenIds[i]);\n\n            _depositBlocks[msg.sender][tokenIds[i]] = blockCur;\n        }\n        \n        if (reward > 0) {\n            IERC20(erc20Address).transferFrom(ownerAddr, msg.sender, (((reward * 10**18)/100)/100));\n        } \n    }\n\n    //deposit function. \n    function deposit(uint256[] calldata tokenIds, uint256[] calldata _rarity) external whenNotPaused {\n        require(msg.sender != stakingDestinationAddress, \"Invalid address\");\n        claimRewards(tokenIds);\n\n        for (uint256 i; i < tokenIds.length; i++) {\n            uint256 blockCur1 = block.timestamp;\n            _depositBlocksTmp[msg.sender][tokenIds[i]] = blockCur1;\n            _depositRarity[msg.sender][tokenIds[i]] = _rarity[i];\n            \n            IERC721(stakingDestinationAddress).safeTransferFrom(\n                msg.sender,\n                address(this),\n                tokenIds[i],\n                \"\"\n            );\n\n            _deposits[msg.sender].add(tokenIds[i]);\n        }\n    }\n\n    //withdrawal function.\n    function withdraw(uint256[] calldata tokenIds) external whenNotPaused nonReentrant() {\n        claimRewards(tokenIds);\n\n        for (uint256 i; i < tokenIds.length; i++) {\n            require( _deposits[msg.sender].contains(tokenIds[i]), \"Staking: token not deposited\");\n            uint256 diff = (block.timestamp - _depositBlocksTmp[msg.sender][tokenIds[i]]) / 60 / 60 / 24;\n            require( diff >= freezingDays , \"Freezing nft for Limited days\");\n\n            _deposits[msg.sender].remove(tokenIds[i]);\n\n            IERC721(stakingDestinationAddress).safeTransferFrom(\n                address(this),\n                msg.sender,\n                tokenIds[i],\n                \"\"\n            );\n        }\n    }\n \n    function onERC721Received(\n        address,\n        address,\n        uint256,\n        bytes calldata\n    ) external pure override returns (bytes4) {\n        return IERC721Receiver.onERC721Received.selector;\n    }\n}",
  "sourcePath": "/home/maulik/Desktop/Solidity/lostb_erc20/contract/contracts/LostStaking.sol",
  "compiler": {
    "name": "solc",
    "version": "0.8.11+commit.d7f03943.Emscripten.clang"
  },
  "schemaVersion": "3.4.3",
  "updatedAt": "2022-02-02T07:02:09.486Z",
  "networkType": "ethereum",
  "devdoc": {
    "kind": "dev",
    "methods": {
      "owner()": {
        "details": "Returns the address of the current owner."
      },
      "paused()": {
        "details": "Returns true if the contract is paused, and false otherwise."
      },
      "renounceOwnership()": {
        "details": "Leaves the contract without owner. It will not be possible to call `onlyOwner` functions anymore. Can only be called by the current owner. NOTE: Renouncing ownership will leave the contract without an owner, thereby removing any functionality that is only available to the owner."
      },
      "transferOwnership(address)": {
        "details": "Transfers ownership of the contract to a new account (`newOwner`). Can only be called by the current owner."
      }
    },
    "version": 1
  },
  "userdoc": {
    "kind": "user",
    "methods": {},
    "version": 1
  }
}