{
  "contractName": "ERC721EnumerableNameable",
  "abi": [
    {
      "inputs": [
        {
          "internalType": "string",
          "name": "_name",
          "type": "string"
        },
        {
          "internalType": "string",
          "name": "_symbol",
          "type": "string"
        }
      ],
      "stateMutability": "nonpayable",
      "type": "constructor"
    },
    {
      "anonymous": false,
      "inputs": [
        {
          "indexed": true,
          "internalType": "address",
          "name": "owner",
          "type": "address"
        },
        {
          "indexed": true,
          "internalType": "address",
          "name": "approved",
          "type": "address"
        },
        {
          "indexed": true,
          "internalType": "uint256",
          "name": "tokenId",
          "type": "uint256"
        }
      ],
      "name": "Approval",
      "type": "event"
    },
    {
      "anonymous": false,
      "inputs": [
        {
          "indexed": true,
          "internalType": "address",
          "name": "owner",
          "type": "address"
        },
        {
          "indexed": true,
          "internalType": "address",
          "name": "operator",
          "type": "address"
        },
        {
          "indexed": false,
          "internalType": "bool",
          "name": "approved",
          "type": "bool"
        }
      ],
      "name": "ApprovalForAll",
      "type": "event"
    },
    {
      "anonymous": false,
      "inputs": [
        {
          "indexed": true,
          "internalType": "uint256",
          "name": "tokenId",
          "type": "uint256"
        },
        {
          "indexed": false,
          "internalType": "string",
          "name": "bio",
          "type": "string"
        }
      ],
      "name": "BioChange",
      "type": "event"
    },
    {
      "anonymous": false,
      "inputs": [
        {
          "indexed": true,
          "internalType": "uint256",
          "name": "tokenId",
          "type": "uint256"
        },
        {
          "indexed": false,
          "internalType": "string",
          "name": "newName",
          "type": "string"
        }
      ],
      "name": "NameChange",
      "type": "event"
    },
    {
      "anonymous": false,
      "inputs": [
        {
          "indexed": true,
          "internalType": "address",
          "name": "previousOwner",
          "type": "address"
        },
        {
          "indexed": true,
          "internalType": "address",
          "name": "newOwner",
          "type": "address"
        }
      ],
      "name": "OwnershipTransferred",
      "type": "event"
    },
    {
      "anonymous": false,
      "inputs": [
        {
          "indexed": true,
          "internalType": "address",
          "name": "from",
          "type": "address"
        },
        {
          "indexed": true,
          "internalType": "address",
          "name": "to",
          "type": "address"
        },
        {
          "indexed": true,
          "internalType": "uint256",
          "name": "tokenId",
          "type": "uint256"
        }
      ],
      "name": "Transfer",
      "type": "event"
    },
    {
      "inputs": [
        {
          "internalType": "address",
          "name": "to",
          "type": "address"
        },
        {
          "internalType": "uint256",
          "name": "tokenId",
          "type": "uint256"
        }
      ],
      "name": "approve",
      "outputs": [],
      "stateMutability": "nonpayable",
      "type": "function"
    },
    {
      "inputs": [
        {
          "internalType": "address",
          "name": "owner",
          "type": "address"
        }
      ],
      "name": "balanceOf",
      "outputs": [
        {
          "internalType": "uint256",
          "name": "",
          "type": "uint256"
        }
      ],
      "stateMutability": "view",
      "type": "function"
    },
    {
      "inputs": [],
      "name": "bioChangePrice",
      "outputs": [
        {
          "internalType": "uint256",
          "name": "",
          "type": "uint256"
        }
      ],
      "stateMutability": "view",
      "type": "function"
    },
    {
      "inputs": [
        {
          "internalType": "uint256",
          "name": "tokenId",
          "type": "uint256"
        }
      ],
      "name": "getApproved",
      "outputs": [
        {
          "internalType": "address",
          "name": "",
          "type": "address"
        }
      ],
      "stateMutability": "view",
      "type": "function"
    },
    {
      "inputs": [
        {
          "internalType": "address",
          "name": "owner",
          "type": "address"
        },
        {
          "internalType": "address",
          "name": "operator",
          "type": "address"
        }
      ],
      "name": "isApprovedForAll",
      "outputs": [
        {
          "internalType": "bool",
          "name": "",
          "type": "bool"
        }
      ],
      "stateMutability": "view",
      "type": "function"
    },
    {
      "inputs": [],
      "name": "name",
      "outputs": [
        {
          "internalType": "string",
          "name": "",
          "type": "string"
        }
      ],
      "stateMutability": "view",
      "type": "function"
    },
    {
      "inputs": [],
      "name": "nameChangePrice",
      "outputs": [
        {
          "internalType": "uint256",
          "name": "",
          "type": "uint256"
        }
      ],
      "stateMutability": "view",
      "type": "function"
    },
    {
      "inputs": [],
      "name": "owner",
      "outputs": [
        {
          "internalType": "address",
          "name": "",
          "type": "address"
        }
      ],
      "stateMutability": "view",
      "type": "function"
    },
    {
      "inputs": [
        {
          "internalType": "uint256",
          "name": "tokenId",
          "type": "uint256"
        }
      ],
      "name": "ownerOf",
      "outputs": [
        {
          "internalType": "address",
          "name": "",
          "type": "address"
        }
      ],
      "stateMutability": "view",
      "type": "function"
    },
    {
      "inputs": [],
      "name": "renounceOwnership",
      "outputs": [],
      "stateMutability": "nonpayable",
      "type": "function"
    },
    {
      "inputs": [
        {
          "internalType": "address",
          "name": "from",
          "type": "address"
        },
        {
          "internalType": "address",
          "name": "to",
          "type": "address"
        },
        {
          "internalType": "uint256",
          "name": "tokenId",
          "type": "uint256"
        }
      ],
      "name": "safeTransferFrom",
      "outputs": [],
      "stateMutability": "nonpayable",
      "type": "function"
    },
    {
      "inputs": [
        {
          "internalType": "address",
          "name": "from",
          "type": "address"
        },
        {
          "internalType": "address",
          "name": "to",
          "type": "address"
        },
        {
          "internalType": "uint256",
          "name": "tokenId",
          "type": "uint256"
        },
        {
          "internalType": "bytes",
          "name": "_data",
          "type": "bytes"
        }
      ],
      "name": "safeTransferFrom",
      "outputs": [],
      "stateMutability": "nonpayable",
      "type": "function"
    },
    {
      "inputs": [
        {
          "internalType": "address",
          "name": "operator",
          "type": "address"
        },
        {
          "internalType": "bool",
          "name": "approved",
          "type": "bool"
        }
      ],
      "name": "setApprovalForAll",
      "outputs": [],
      "stateMutability": "nonpayable",
      "type": "function"
    },
    {
      "inputs": [],
      "name": "symbol",
      "outputs": [
        {
          "internalType": "string",
          "name": "",
          "type": "string"
        }
      ],
      "stateMutability": "view",
      "type": "function"
    },
    {
      "inputs": [
        {
          "internalType": "uint256",
          "name": "index",
          "type": "uint256"
        }
      ],
      "name": "tokenByIndex",
      "outputs": [
        {
          "internalType": "uint256",
          "name": "",
          "type": "uint256"
        }
      ],
      "stateMutability": "view",
      "type": "function"
    },
    {
      "inputs": [
        {
          "internalType": "address",
          "name": "owner",
          "type": "address"
        },
        {
          "internalType": "uint256",
          "name": "index",
          "type": "uint256"
        }
      ],
      "name": "tokenOfOwnerByIndex",
      "outputs": [
        {
          "internalType": "uint256",
          "name": "",
          "type": "uint256"
        }
      ],
      "stateMutability": "view",
      "type": "function"
    },
    {
      "inputs": [
        {
          "internalType": "uint256",
          "name": "tokenId",
          "type": "uint256"
        }
      ],
      "name": "tokenURI",
      "outputs": [
        {
          "internalType": "string",
          "name": "",
          "type": "string"
        }
      ],
      "stateMutability": "view",
      "type": "function"
    },
    {
      "inputs": [],
      "name": "totalSupply",
      "outputs": [
        {
          "internalType": "uint256",
          "name": "",
          "type": "uint256"
        }
      ],
      "stateMutability": "view",
      "type": "function"
    },
    {
      "inputs": [
        {
          "internalType": "address",
          "name": "from",
          "type": "address"
        },
        {
          "internalType": "address",
          "name": "to",
          "type": "address"
        },
        {
          "internalType": "uint256",
          "name": "tokenId",
          "type": "uint256"
        }
      ],
      "name": "transferFrom",
      "outputs": [],
      "stateMutability": "nonpayable",
      "type": "function"
    },
    {
      "inputs": [
        {
          "internalType": "address",
          "name": "newOwner",
          "type": "address"
        }
      ],
      "name": "transferOwnership",
      "outputs": [],
      "stateMutability": "nonpayable",
      "type": "function"
    },
    {
      "inputs": [
        {
          "internalType": "uint256",
          "name": "tokenId",
          "type": "uint256"
        },
        {
          "internalType": "string",
          "name": "newName",
          "type": "string"
        }
      ],
      "name": "changeName",
      "outputs": [],
      "stateMutability": "nonpayable",
      "type": "function"
    },
    {
      "inputs": [
        {
          "internalType": "uint256",
          "name": "_tokenId",
          "type": "uint256"
        },
        {
          "internalType": "string",
          "name": "_bio",
          "type": "string"
        }
      ],
      "name": "changeBio",
      "outputs": [],
      "stateMutability": "nonpayable",
      "type": "function"
    },
    {
      "inputs": [
        {
          "internalType": "uint256",
          "name": "index",
          "type": "uint256"
        }
      ],
      "name": "tokenNameByIndex",
      "outputs": [
        {
          "internalType": "string",
          "name": "",
          "type": "string"
        }
      ],
      "stateMutability": "view",
      "type": "function"
    },
    {
      "inputs": [
        {
          "internalType": "uint256",
          "name": "index",
          "type": "uint256"
        }
      ],
      "name": "tokenBioByIndex",
      "outputs": [
        {
          "internalType": "string",
          "name": "",
          "type": "string"
        }
      ],
      "stateMutability": "view",
      "type": "function"
    },
    {
      "inputs": [
        {
          "internalType": "string",
          "name": "nameString",
          "type": "string"
        }
      ],
      "name": "isNameReserved",
      "outputs": [
        {
          "internalType": "bool",
          "name": "",
          "type": "bool"
        }
      ],
      "stateMutability": "view",
      "type": "function"
    },
    {
      "inputs": [
        {
          "internalType": "string",
          "name": "str",
          "type": "string"
        }
      ],
      "name": "validateName",
      "outputs": [
        {
          "internalType": "bool",
          "name": "",
          "type": "bool"
        }
      ],
      "stateMutability": "pure",
      "type": "function"
    },
    {
      "inputs": [
        {
          "internalType": "string",
          "name": "str",
          "type": "string"
        }
      ],
      "name": "toLower",
      "outputs": [
        {
          "internalType": "string",
          "name": "",
          "type": "string"
        }
      ],
      "stateMutability": "pure",
      "type": "function"
    },
    {
      "inputs": [
        {
          "internalType": "bytes4",
          "name": "interfaceId",
          "type": "bytes4"
        }
      ],
      "name": "supportsInterface",
      "outputs": [
        {
          "internalType": "bool",
          "name": "",
          "type": "bool"
        }
      ],
      "stateMutability": "view",
      "type": "function"
    }
  ],
  "bytecode": "0x6080604052681b1ae4d6e2ef500000600b55681b1ae4d6e2ef500000600c553480156200002b57600080fd5b50604051620046a9380380620046a98339818101604052810190620000519190620003ca565b818181600090805190602001906200006b9291906200017d565b508060019080519060200190620000849291906200017d565b505050620000a76200009b620000af60201b60201c565b620000b760201b60201c565b5050620004b4565b600033905090565b6000600a60009054906101000a900473ffffffffffffffffffffffffffffffffffffffff16905081600a60006101000a81548173ffffffffffffffffffffffffffffffffffffffff021916908373ffffffffffffffffffffffffffffffffffffffff1602179055508173ffffffffffffffffffffffffffffffffffffffff168173ffffffffffffffffffffffffffffffffffffffff167f8be0079c531659141344cd1fd0a4f28419497f9722a3daafe3b4186f6b6457e060405160405180910390a35050565b8280546200018b906200047e565b90600052602060002090601f016020900481019282620001af5760008555620001fb565b82601f10620001ca57805160ff1916838001178555620001fb565b82800160010185558215620001fb579182015b82811115620001fa578251825591602001919060010190620001dd565b5b5090506200020a91906200020e565b5090565b5b80821115620002295760008160009055506001016200020f565b5090565b6000604051905090565b600080fd5b600080fd5b600080fd5b600080fd5b6000601f19601f8301169050919050565b7f4e487b7100000000000000000000000000000000000000000000000000000000600052604160045260246000fd5b62000296826200024b565b810181811067ffffffffffffffff82111715620002b857620002b76200025c565b5b80604052505050565b6000620002cd6200022d565b9050620002db82826200028b565b919050565b600067ffffffffffffffff821115620002fe57620002fd6200025c565b5b62000309826200024b565b9050602081019050919050565b60005b838110156200033657808201518184015260208101905062000319565b8381111562000346576000848401525b50505050565b6000620003636200035d84620002e0565b620002c1565b90508281526020810184848401111562000382576200038162000246565b5b6200038f84828562000316565b509392505050565b600082601f830112620003af57620003ae62000241565b5b8151620003c18482602086016200034c565b91505092915050565b60008060408385031215620003e457620003e362000237565b5b600083015167ffffffffffffffff8111156200040557620004046200023c565b5b620004138582860162000397565b925050602083015167ffffffffffffffff8111156200043757620004366200023c565b5b620004458582860162000397565b9150509250929050565b7f4e487b7100000000000000000000000000000000000000000000000000000000600052602260045260246000fd5b600060028204905060018216806200049757607f821691505b60208210811415620004ae57620004ad6200044f565b5b50919050565b6141e580620004c46000396000f3fe608060405234801561001057600080fd5b50600436106101c45760003560e01c80636352211e116100f95780639ffdb65a11610097578063c39cbef111610071578063c39cbef11461053f578063c87b56dd1461055b578063e985e9c51461058b578063f2fde38b146105bb576101c4565b80639ffdb65a146104d7578063a22cb46514610507578063b88d4fde14610523576101c4565b8063715018a6116100d3578063715018a6146104615780638da5cb5b1461046b5780639416b4231461048957806395d89b41146104b9576101c4565b80636352211e146103d15780636d5224181461040157806370a0823114610431576101c4565b806323b872dd1161016657806345ca77381161014057806345ca7738146103375780634d426528146103555780634f6ccce71461037157806359f2f897146103a1576101c4565b806323b872dd146102cf5780632f745c59146102eb57806342842e0e1461031b576101c4565b8063095ea7b3116101a2578063095ea7b3146102475780630ebe88471461026357806315b56d101461028157806318160ddd146102b1576101c4565b806301ffc9a7146101c957806306fdde03146101f9578063081812fc14610217575b600080fd5b6101e360048036038101906101de9190612b17565b6105d7565b6040516101f09190612b5f565b60405180910390f35b6102016105e9565b60405161020e9190612c13565b60405180910390f35b610231600480360381019061022c9190612c6b565b61067b565b60405161023e9190612cd9565b60405180910390f35b610261600480360381019061025c9190612d20565b610700565b005b61026b610818565b6040516102789190612d6f565b60405180910390f35b61029b60048036038101906102969190612ebf565b61081e565b6040516102a89190612b5f565b60405180910390f35b6102b961085b565b6040516102c69190612d6f565b60405180910390f35b6102e960048036038101906102e49190612f08565b610868565b005b61030560048036038101906103009190612d20565b6108c8565b6040516103129190612d6f565b60405180910390f35b61033560048036038101906103309190612f08565b61096d565b005b61033f61098d565b60405161034c9190612d6f565b60405180910390f35b61036f600480360381019061036a9190612f5b565b610993565b005b61038b60048036038101906103869190612c6b565b610a7a565b6040516103989190612d6f565b60405180910390f35b6103bb60048036038101906103b69190612c6b565b610aeb565b6040516103c89190612c13565b60405180910390f35b6103eb60048036038101906103e69190612c6b565b610b90565b6040516103f89190612cd9565b60405180910390f35b61041b60048036038101906104169190612c6b565b610c42565b6040516104289190612c13565b60405180910390f35b61044b60048036038101906104469190612fb7565b610ce7565b6040516104589190612d6f565b60405180910390f35b610469610d9f565b005b610473610e27565b6040516104809190612cd9565b60405180910390f35b6104a3600480360381019061049e9190612ebf565b610e51565b6040516104b09190612c13565b60405180910390f35b6104c1611009565b6040516104ce9190612c13565b60405180910390f35b6104f160048036038101906104ec9190612ebf565b61109b565b6040516104fe9190612b5f565b60405180910390f35b610521600480360381019061051c9190613010565b6113cd565b005b61053d600480360381019061053891906130f1565b61154e565b005b61055960048036038101906105549190612f5b565b6115b0565b005b61057560048036038101906105709190612c6b565b611902565b6040516105829190612c13565b60405180910390f35b6105a560048036038101906105a09190613174565b6119a9565b6040516105b29190612b5f565b60405180910390f35b6105d560048036038101906105d09190612fb7565b611a3d565b005b60006105e282611b35565b9050919050565b6060600080546105f8906131e3565b80601f0160208091040260200160405190810160405280929190818152602001828054610624906131e3565b80156106715780601f1061064657610100808354040283529160200191610671565b820191906000526020600020905b81548152906001019060200180831161065457829003601f168201915b5050505050905090565b600061068682611baf565b6106c5576040517f08c379a00000000000000000000000000000000000000000000000000000000081526004016106bc90613287565b60405180910390fd5b6004600083815260200190815260200160002060009054906101000a900473ffffffffffffffffffffffffffffffffffffffff169050919050565b600061070b82610b90565b90508073ffffffffffffffffffffffffffffffffffffffff168373ffffffffffffffffffffffffffffffffffffffff16141561077c576040517f08c379a000000000000000000000000000000000000000000000000000000000815260040161077390613319565b60405180910390fd5b8073ffffffffffffffffffffffffffffffffffffffff1661079b611c1b565b73ffffffffffffffffffffffffffffffffffffffff1614806107ca57506107c9816107c4611c1b565b6119a9565b5b610809576040517f08c379a0000000000000000000000000000000000000000000000000000000008152600401610800906133ab565b60405180910390fd5b6108138383611c23565b505050565b600c5481565b6000600e61082b83610e51565b6040516108389190613407565b908152602001604051809103902060009054906101000a900460ff169050919050565b6000600880549050905090565b610879610873611c1b565b82611cdc565b6108b8576040517f08c379a00000000000000000000000000000000000000000000000000000000081526004016108af90613490565b60405180910390fd5b6108c3838383611dba565b505050565b60006108d383610ce7565b8210610914576040517f08c379a000000000000000000000000000000000000000000000000000000000815260040161090b90613522565b60405180910390fd5b600660008473ffffffffffffffffffffffffffffffffffffffff1673ffffffffffffffffffffffffffffffffffffffff168152602001908152602001600020600083815260200190815260200160002054905092915050565b6109888383836040518060200160405280600081525061154e565b505050565b600b5481565b600061099e83610b90565b90508073ffffffffffffffffffffffffffffffffffffffff166109bf611c1b565b73ffffffffffffffffffffffffffffffffffffffff1614610a15576040517f08c379a0000000000000000000000000000000000000000000000000000000008152600401610a0c9061358e565b60405180910390fd5b81600f60008581526020019081526020016000209080519060200190610a3c929190612a08565b50827fbe3e2fc72ea4bd0d860e908b1ee27aa9856809e62a75bfc0cb7f04b5d791873d83604051610a6d9190612c13565b60405180910390a2505050565b6000610a8461085b565b8210610ac5576040517f08c379a0000000000000000000000000000000000000000000000000000000008152600401610abc90613620565b60405180910390fd5b60088281548110610ad957610ad8613640565b5b90600052602060002001549050919050565b6060600f60008381526020019081526020016000208054610b0b906131e3565b80601f0160208091040260200160405190810160405280929190818152602001828054610b37906131e3565b8015610b845780601f10610b5957610100808354040283529160200191610b84565b820191906000526020600020905b815481529060010190602001808311610b6757829003601f168201915b50505050509050919050565b6000806002600084815260200190815260200160002060009054906101000a900473ffffffffffffffffffffffffffffffffffffffff169050600073ffffffffffffffffffffffffffffffffffffffff168173ffffffffffffffffffffffffffffffffffffffff161415610c39576040517f08c379a0000000000000000000000000000000000000000000000000000000008152600401610c30906136e1565b60405180910390fd5b80915050919050565b6060600d60008381526020019081526020016000208054610c62906131e3565b80601f0160208091040260200160405190810160405280929190818152602001828054610c8e906131e3565b8015610cdb5780601f10610cb057610100808354040283529160200191610cdb565b820191906000526020600020905b815481529060010190602001808311610cbe57829003601f168201915b50505050509050919050565b60008073ffffffffffffffffffffffffffffffffffffffff168273ffffffffffffffffffffffffffffffffffffffff161415610d58576040517f08c379a0000000000000000000000000000000000000000000000000000000008152600401610d4f90613773565b60405180910390fd5b600360008373ffffffffffffffffffffffffffffffffffffffff1673ffffffffffffffffffffffffffffffffffffffff168152602001908152602001600020549050919050565b610da7611c1b565b73ffffffffffffffffffffffffffffffffffffffff16610dc5610e27565b73ffffffffffffffffffffffffffffffffffffffff1614610e1b576040517f08c379a0000000000000000000000000000000000000000000000000000000008152600401610e12906137df565b60405180910390fd5b610e256000612016565b565b6000600a60009054906101000a900473ffffffffffffffffffffffffffffffffffffffff16905090565b606060008290506000815167ffffffffffffffff811115610e7557610e74612d94565b5b6040519080825280601f01601f191660200182016040528015610ea75781602001600182028036833780820191505090505b50905060005b8251811015610ffe576041838281518110610ecb57610eca613640565b5b602001015160f81c60f81b60f81c60ff1610158015610f0e5750605a838281518110610efa57610ef9613640565b5b602001015160f81c60f81b60f81c60ff1611155b15610f8a576020838281518110610f2857610f27613640565b5b602001015160f81c60f81b60f81c610f40919061383b565b60f81b828281518110610f5657610f55613640565b5b60200101907effffffffffffffffffffffffffffffffffffffffffffffffffffffffffffff1916908160001a905350610feb565b828181518110610f9d57610f9c613640565b5b602001015160f81c60f81b828281518110610fbb57610fba613640565b5b60200101907effffffffffffffffffffffffffffffffffffffffffffffffffffffffffffff1916908160001a9053505b8080610ff690613872565b915050610ead565b508092505050919050565b606060018054611018906131e3565b80601f0160208091040260200160405190810160405280929190818152602001828054611044906131e3565b80156110915780601f1061106657610100808354040283529160200191611091565b820191906000526020600020905b81548152906001019060200180831161107457829003601f168201915b5050505050905090565b6000808290506001815110156110b55760009150506113c8565b6019815111156110c95760009150506113c8565b602060f81b816000815181106110e2576110e1613640565b5b602001015160f81c60f81b7effffffffffffffffffffffffffffffffffffffffffffffffffffffffffffff1916141561111f5760009150506113c8565b602060f81b816001835161113391906138bb565b8151811061114457611143613640565b5b602001015160f81c60f81b7effffffffffffffffffffffffffffffffffffffffffffffffffffffffffffff191614156111815760009150506113c8565b60008160008151811061119757611196613640565b5b602001015160f81c60f81b905060005b82518110156113c05760008382815181106111c5576111c4613640565b5b602001015160f81c60f81b9050602060f81b817effffffffffffffffffffffffffffffffffffffffffffffffffffffffffffff191614801561122c5750602060f81b837effffffffffffffffffffffffffffffffffffffffffffffffffffffffffffff1916145b1561123e5760009450505050506113c8565b603060f81b817effffffffffffffffffffffffffffffffffffffffffffffffffffffffffffff19161015801561129a5750603960f81b817effffffffffffffffffffffffffffffffffffffffffffffffffffffffffffff191611155b1580156113005750604160f81b817effffffffffffffffffffffffffffffffffffffffffffffffffffffffffffff1916101580156112fe5750605a60f81b817effffffffffffffffffffffffffffffffffffffffffffffffffffffffffffff191611155b155b80156113655750606160f81b817effffffffffffffffffffffffffffffffffffffffffffffffffffffffffffff1916101580156113635750607a60f81b817effffffffffffffffffffffffffffffffffffffffffffffffffffffffffffff191611155b155b80156113975750602060f81b817effffffffffffffffffffffffffffffffffffffffffffffffffffffffffffff191614155b156113a95760009450505050506113c8565b8092505080806113b890613872565b9150506111a7565b506001925050505b919050565b6113d5611c1b565b73ffffffffffffffffffffffffffffffffffffffff168273ffffffffffffffffffffffffffffffffffffffff161415611443576040517f08c379a000000000000000000000000000000000000000000000000000000000815260040161143a9061393b565b60405180910390fd5b8060056000611450611c1b565b73ffffffffffffffffffffffffffffffffffffffff1673ffffffffffffffffffffffffffffffffffffffff16815260200190815260200160002060008473ffffffffffffffffffffffffffffffffffffffff1673ffffffffffffffffffffffffffffffffffffffff16815260200190815260200160002060006101000a81548160ff0219169083151502179055508173ffffffffffffffffffffffffffffffffffffffff166114fd611c1b565b73ffffffffffffffffffffffffffffffffffffffff167f17307eab39ab6107e8899845ad3d59bd9653f200f220920489ca2b5937696c31836040516115429190612b5f565b60405180910390a35050565b61155f611559611c1b565b83611cdc565b61159e576040517f08c379a000000000000000000000000000000000000000000000000000000000815260040161159590613490565b60405180910390fd5b6115aa848484846120dc565b50505050565b60006115bb83610b90565b90508073ffffffffffffffffffffffffffffffffffffffff166115dc611c1b565b73ffffffffffffffffffffffffffffffffffffffff1614611632576040517f08c379a00000000000000000000000000000000000000000000000000000000081526004016116299061358e565b60405180910390fd5b6001151561163f8361109b565b151514611681576040517f08c379a0000000000000000000000000000000000000000000000000000000008152600401611678906139a7565b60405180910390fd5b6002600d60008581526020019081526020016000206040516116a39190613a66565b602060405180830381855afa1580156116c0573d6000803e3d6000fd5b5050506040513d601f19601f820116820180604052508101906116e39190613ab3565b6002836040516116f39190613b1c565b602060405180830381855afa158015611710573d6000803e3d6000fd5b5050506040513d601f19601f820116820180604052508101906117339190613ab3565b1415611774576040517f08c379a000000000000000000000000000000000000000000000000000000000815260040161176b90613ba5565b60405180910390fd5b600015156117818361081e565b1515146117c3576040517f08c379a00000000000000000000000000000000000000000000000000000000081526004016117ba90613c11565b60405180910390fd5b6000600d600085815260200190815260200160002080546117e3906131e3565b9050111561189257611891600d6000858152602001908152602001600020805461180c906131e3565b80601f0160208091040260200160405190810160405280929190818152602001828054611838906131e3565b80156118855780601f1061185a57610100808354040283529160200191611885565b820191906000526020600020905b81548152906001019060200180831161186857829003601f168201915b50505050506000612138565b5b61189d826001612138565b81600d600085815260200190815260200160002090805190602001906118c4929190612a08565b50827f7e632a301794d8d4a81ea7e20f37d1947158d36e66403af04ba85dd194b66f1b836040516118f59190612c13565b60405180910390a2505050565b606061190d82611baf565b61194c576040517f08c379a000000000000000000000000000000000000000000000000000000000815260040161194390613ca3565b60405180910390fd5b600061195661217a565b9050600081511161197657604051806020016040528060008152506119a1565b8061198084612191565b604051602001611991929190613cc3565b6040516020818303038152906040525b915050919050565b6000600560008473ffffffffffffffffffffffffffffffffffffffff1673ffffffffffffffffffffffffffffffffffffffff16815260200190815260200160002060008373ffffffffffffffffffffffffffffffffffffffff1673ffffffffffffffffffffffffffffffffffffffff16815260200190815260200160002060009054906101000a900460ff16905092915050565b611a45611c1b565b73ffffffffffffffffffffffffffffffffffffffff16611a63610e27565b73ffffffffffffffffffffffffffffffffffffffff1614611ab9576040517f08c379a0000000000000000000000000000000000000000000000000000000008152600401611ab0906137df565b60405180910390fd5b600073ffffffffffffffffffffffffffffffffffffffff168173ffffffffffffffffffffffffffffffffffffffff161415611b29576040517f08c379a0000000000000000000000000000000000000000000000000000000008152600401611b2090613d59565b60405180910390fd5b611b3281612016565b50565b60007f780e9d63000000000000000000000000000000000000000000000000000000007bffffffffffffffffffffffffffffffffffffffffffffffffffffffff1916827bffffffffffffffffffffffffffffffffffffffffffffffffffffffff19161480611ba85750611ba7826122f2565b5b9050919050565b60008073ffffffffffffffffffffffffffffffffffffffff166002600084815260200190815260200160002060009054906101000a900473ffffffffffffffffffffffffffffffffffffffff1673ffffffffffffffffffffffffffffffffffffffff1614159050919050565b600033905090565b816004600083815260200190815260200160002060006101000a81548173ffffffffffffffffffffffffffffffffffffffff021916908373ffffffffffffffffffffffffffffffffffffffff160217905550808273ffffffffffffffffffffffffffffffffffffffff16611c9683610b90565b73ffffffffffffffffffffffffffffffffffffffff167f8c5be1e5ebec7d5bd14f71427d1e84f3dd0314c0f7b2291e5b200ac8c7c3b92560405160405180910390a45050565b6000611ce782611baf565b611d26576040517f08c379a0000000000000000000000000000000000000000000000000000000008152600401611d1d90613deb565b60405180910390fd5b6000611d3183610b90565b90508073ffffffffffffffffffffffffffffffffffffffff168473ffffffffffffffffffffffffffffffffffffffff161480611da057508373ffffffffffffffffffffffffffffffffffffffff16611d888461067b565b73ffffffffffffffffffffffffffffffffffffffff16145b80611db15750611db081856119a9565b5b91505092915050565b8273ffffffffffffffffffffffffffffffffffffffff16611dda82610b90565b73ffffffffffffffffffffffffffffffffffffffff1614611e30576040517f08c379a0000000000000000000000000000000000000000000000000000000008152600401611e2790613e7d565b60405180910390fd5b600073ffffffffffffffffffffffffffffffffffffffff168273ffffffffffffffffffffffffffffffffffffffff161415611ea0576040517f08c379a0000000000000000000000000000000000000000000000000000000008152600401611e9790613f0f565b60405180910390fd5b611eab8383836123d4565b611eb6600082611c23565b6001600360008573ffffffffffffffffffffffffffffffffffffffff1673ffffffffffffffffffffffffffffffffffffffff1681526020019081526020016000206000828254611f0691906138bb565b925050819055506001600360008473ffffffffffffffffffffffffffffffffffffffff1673ffffffffffffffffffffffffffffffffffffffff1681526020019081526020016000206000828254611f5d9190613f2f565b92505081905550816002600083815260200190815260200160002060006101000a81548173ffffffffffffffffffffffffffffffffffffffff021916908373ffffffffffffffffffffffffffffffffffffffff160217905550808273ffffffffffffffffffffffffffffffffffffffff168473ffffffffffffffffffffffffffffffffffffffff167fddf252ad1be2c89b69c2b068fc378daa952ba7f163c4a11628f55a4df523b3ef60405160405180910390a4505050565b6000600a60009054906101000a900473ffffffffffffffffffffffffffffffffffffffff16905081600a60006101000a81548173ffffffffffffffffffffffffffffffffffffffff021916908373ffffffffffffffffffffffffffffffffffffffff1602179055508173ffffffffffffffffffffffffffffffffffffffff168173ffffffffffffffffffffffffffffffffffffffff167f8be0079c531659141344cd1fd0a4f28419497f9722a3daafe3b4186f6b6457e060405160405180910390a35050565b6120e7848484611dba565b6120f3848484846123e4565b612132576040517f08c379a000000000000000000000000000000000000000000000000000000000815260040161212990613ff7565b60405180910390fd5b50505050565b80600e61214484610e51565b6040516121519190613407565b908152602001604051809103902060006101000a81548160ff0219169083151502179055505050565b606060405180602001604052806000815250905090565b606060008214156121d9576040518060400160405280600181526020017f300000000000000000000000000000000000000000000000000000000000000081525090506122ed565b600082905060005b6000821461220b5780806121f490613872565b915050600a826122049190614046565b91506121e1565b60008167ffffffffffffffff81111561222757612226612d94565b5b6040519080825280601f01601f1916602001820160405280156122595781602001600182028036833780820191505090505b5090505b600085146122e65760018261227291906138bb565b9150600a856122819190614077565b603061228d9190613f2f565b60f81b8183815181106122a3576122a2613640565b5b60200101907effffffffffffffffffffffffffffffffffffffffffffffffffffffffffffff1916908160001a905350600a856122df9190614046565b945061225d565b8093505050505b919050565b60007f80ac58cd000000000000000000000000000000000000000000000000000000007bffffffffffffffffffffffffffffffffffffffffffffffffffffffff1916827bffffffffffffffffffffffffffffffffffffffffffffffffffffffff191614806123bd57507f5b5e139f000000000000000000000000000000000000000000000000000000007bffffffffffffffffffffffffffffffffffffffffffffffffffffffff1916827bffffffffffffffffffffffffffffffffffffffffffffffffffffffff1916145b806123cd57506123cc8261256c565b5b9050919050565b6123df8383836125d6565b505050565b60006124058473ffffffffffffffffffffffffffffffffffffffff166126ea565b1561255f578373ffffffffffffffffffffffffffffffffffffffff1663150b7a0261242e611c1b565b8786866040518563ffffffff1660e01b815260040161245094939291906140f2565b6020604051808303816000875af192505050801561248c57506040513d601f19601f820116820180604052508101906124899190614153565b60015b61250f573d80600081146124bc576040519150601f19603f3d011682016040523d82523d6000602084013e6124c1565b606091505b50600081511415612507576040517f08c379a00000000000000000000000000000000000000000000000000000000081526004016124fe90613ff7565b60405180910390fd5b805181602001fd5b63150b7a0260e01b7bffffffffffffffffffffffffffffffffffffffffffffffffffffffff1916817bffffffffffffffffffffffffffffffffffffffffffffffffffffffff191614915050612564565b600190505b949350505050565b60007f01ffc9a7000000000000000000000000000000000000000000000000000000007bffffffffffffffffffffffffffffffffffffffffffffffffffffffff1916827bffffffffffffffffffffffffffffffffffffffffffffffffffffffff1916149050919050565b6125e18383836126fd565b600073ffffffffffffffffffffffffffffffffffffffff168373ffffffffffffffffffffffffffffffffffffffff1614156126245761261f81612702565b612663565b8173ffffffffffffffffffffffffffffffffffffffff168373ffffffffffffffffffffffffffffffffffffffff161461266257612661838261274b565b5b5b600073ffffffffffffffffffffffffffffffffffffffff168273ffffffffffffffffffffffffffffffffffffffff1614156126a6576126a1816128b8565b6126e5565b8273ffffffffffffffffffffffffffffffffffffffff168273ffffffffffffffffffffffffffffffffffffffff16146126e4576126e38282612989565b5b5b505050565b600080823b905060008111915050919050565b505050565b6008805490506009600083815260200190815260200160002081905550600881908060018154018082558091505060019003906000526020600020016000909190919091505550565b6000600161275884610ce7565b61276291906138bb565b9050600060076000848152602001908152602001600020549050818114612847576000600660008673ffffffffffffffffffffffffffffffffffffffff1673ffffffffffffffffffffffffffffffffffffffff168152602001908152602001600020600084815260200190815260200160002054905080600660008773ffffffffffffffffffffffffffffffffffffffff1673ffffffffffffffffffffffffffffffffffffffff168152602001908152602001600020600084815260200190815260200160002081905550816007600083815260200190815260200160002081905550505b6007600084815260200190815260200160002060009055600660008573ffffffffffffffffffffffffffffffffffffffff1673ffffffffffffffffffffffffffffffffffffffff16815260200190815260200160002060008381526020019081526020016000206000905550505050565b600060016008805490506128cc91906138bb565b90506000600960008481526020019081526020016000205490506000600883815481106128fc576128fb613640565b5b90600052602060002001549050806008838154811061291e5761291d613640565b5b90600052602060002001819055508160096000838152602001908152602001600020819055506009600085815260200190815260200160002060009055600880548061296d5761296c614180565b5b6001900381819060005260206000200160009055905550505050565b600061299483610ce7565b905081600660008573ffffffffffffffffffffffffffffffffffffffff1673ffffffffffffffffffffffffffffffffffffffff168152602001908152602001600020600083815260200190815260200160002081905550806007600084815260200190815260200160002081905550505050565b828054612a14906131e3565b90600052602060002090601f016020900481019282612a365760008555612a7d565b82601f10612a4f57805160ff1916838001178555612a7d565b82800160010185558215612a7d579182015b82811115612a7c578251825591602001919060010190612a61565b5b509050612a8a9190612a8e565b5090565b5b80821115612aa7576000816000905550600101612a8f565b5090565b6000604051905090565b600080fd5b600080fd5b60007fffffffff0000000000000000000000000000000000000000000000000000000082169050919050565b612af481612abf565b8114612aff57600080fd5b50565b600081359050612b1181612aeb565b92915050565b600060208284031215612b2d57612b2c612ab5565b5b6000612b3b84828501612b02565b91505092915050565b60008115159050919050565b612b5981612b44565b82525050565b6000602082019050612b746000830184612b50565b92915050565b600081519050919050565b600082825260208201905092915050565b60005b83811015612bb4578082015181840152602081019050612b99565b83811115612bc3576000848401525b50505050565b6000601f19601f8301169050919050565b6000612be582612b7a565b612bef8185612b85565b9350612bff818560208601612b96565b612c0881612bc9565b840191505092915050565b60006020820190508181036000830152612c2d8184612bda565b905092915050565b6000819050919050565b612c4881612c35565b8114612c5357600080fd5b50565b600081359050612c6581612c3f565b92915050565b600060208284031215612c8157612c80612ab5565b5b6000612c8f84828501612c56565b91505092915050565b600073ffffffffffffffffffffffffffffffffffffffff82169050919050565b6000612cc382612c98565b9050919050565b612cd381612cb8565b82525050565b6000602082019050612cee6000830184612cca565b92915050565b612cfd81612cb8565b8114612d0857600080fd5b50565b600081359050612d1a81612cf4565b92915050565b60008060408385031215612d3757612d36612ab5565b5b6000612d4585828601612d0b565b9250506020612d5685828601612c56565b9150509250929050565b612d6981612c35565b82525050565b6000602082019050612d846000830184612d60565b92915050565b600080fd5b600080fd5b7f4e487b7100000000000000000000000000000000000000000000000000000000600052604160045260246000fd5b612dcc82612bc9565b810181811067ffffffffffffffff82111715612deb57612dea612d94565b5b80604052505050565b6000612dfe612aab565b9050612e0a8282612dc3565b919050565b600067ffffffffffffffff821115612e2a57612e29612d94565b5b612e3382612bc9565b9050602081019050919050565b82818337600083830152505050565b6000612e62612e5d84612e0f565b612df4565b905082815260208101848484011115612e7e57612e7d612d8f565b5b612e89848285612e40565b509392505050565b600082601f830112612ea657612ea5612d8a565b5b8135612eb6848260208601612e4f565b91505092915050565b600060208284031215612ed557612ed4612ab5565b5b600082013567ffffffffffffffff811115612ef357612ef2612aba565b5b612eff84828501612e91565b91505092915050565b600080600060608486031215612f2157612f20612ab5565b5b6000612f2f86828701612d0b565b9350506020612f4086828701612d0b565b9250506040612f5186828701612c56565b9150509250925092565b60008060408385031215612f7257612f71612ab5565b5b6000612f8085828601612c56565b925050602083013567ffffffffffffffff811115612fa157612fa0612aba565b5b612fad85828601612e91565b9150509250929050565b600060208284031215612fcd57612fcc612ab5565b5b6000612fdb84828501612d0b565b91505092915050565b612fed81612b44565b8114612ff857600080fd5b50565b60008135905061300a81612fe4565b92915050565b6000806040838503121561302757613026612ab5565b5b600061303585828601612d0b565b925050602061304685828601612ffb565b9150509250929050565b600067ffffffffffffffff82111561306b5761306a612d94565b5b61307482612bc9565b9050602081019050919050565b600061309461308f84613050565b612df4565b9050828152602081018484840111156130b0576130af612d8f565b5b6130bb848285612e40565b509392505050565b600082601f8301126130d8576130d7612d8a565b5b81356130e8848260208601613081565b91505092915050565b6000806000806080858703121561310b5761310a612ab5565b5b600061311987828801612d0b565b945050602061312a87828801612d0b565b935050604061313b87828801612c56565b925050606085013567ffffffffffffffff81111561315c5761315b612aba565b5b613168878288016130c3565b91505092959194509250565b6000806040838503121561318b5761318a612ab5565b5b600061319985828601612d0b565b92505060206131aa85828601612d0b565b9150509250929050565b7f4e487b7100000000000000000000000000000000000000000000000000000000600052602260045260246000fd5b600060028204905060018216806131fb57607f821691505b6020821081141561320f5761320e6131b4565b5b50919050565b7f4552433732313a20617070726f76656420717565727920666f72206e6f6e657860008201527f697374656e7420746f6b656e0000000000000000000000000000000000000000602082015250565b6000613271602c83612b85565b915061327c82613215565b604082019050919050565b600060208201905081810360008301526132a081613264565b9050919050565b7f4552433732313a20617070726f76616c20746f2063757272656e74206f776e6560008201527f7200000000000000000000000000000000000000000000000000000000000000602082015250565b6000613303602183612b85565b915061330e826132a7565b604082019050919050565b60006020820190508181036000830152613332816132f6565b9050919050565b7f4552433732313a20617070726f76652063616c6c6572206973206e6f74206f7760008201527f6e6572206e6f7220617070726f76656420666f7220616c6c0000000000000000602082015250565b6000613395603883612b85565b91506133a082613339565b604082019050919050565b600060208201905081810360008301526133c481613388565b9050919050565b600081905092915050565b60006133e182612b7a565b6133eb81856133cb565b93506133fb818560208601612b96565b80840191505092915050565b600061341382846133d6565b915081905092915050565b7f4552433732313a207472616e736665722063616c6c6572206973206e6f74206f60008201527f776e6572206e6f7220617070726f766564000000000000000000000000000000602082015250565b600061347a603183612b85565b91506134858261341e565b604082019050919050565b600060208201905081810360008301526134a98161346d565b9050919050565b7f455243373231456e756d657261626c653a206f776e657220696e646578206f7560008201527f74206f6620626f756e6473000000000000000000000000000000000000000000602082015250565b600061350c602b83612b85565b9150613517826134b0565b604082019050919050565b6000602082019050818103600083015261353b816134ff565b9050919050565b7f596f7520646f206e6f74206f776e207468697320746f6b656e2e000000000000600082015250565b6000613578601a83612b85565b915061358382613542565b602082019050919050565b600060208201905081810360008301526135a78161356b565b9050919050565b7f455243373231456e756d657261626c653a20676c6f62616c20696e646578206f60008201527f7574206f6620626f756e64730000000000000000000000000000000000000000602082015250565b600061360a602c83612b85565b9150613615826135ae565b604082019050919050565b60006020820190508181036000830152613639816135fd565b9050919050565b7f4e487b7100000000000000000000000000000000000000000000000000000000600052603260045260246000fd5b7f4552433732313a206f776e657220717565727920666f72206e6f6e657869737460008201527f656e7420746f6b656e0000000000000000000000000000000000000000000000602082015250565b60006136cb602983612b85565b91506136d68261366f565b604082019050919050565b600060208201905081810360008301526136fa816136be565b9050919050565b7f4552433732313a2062616c616e636520717565727920666f7220746865207a6560008201527f726f206164647265737300000000000000000000000000000000000000000000602082015250565b600061375d602a83612b85565b915061376882613701565b604082019050919050565b6000602082019050818103600083015261378c81613750565b9050919050565b7f4f776e61626c653a2063616c6c6572206973206e6f7420746865206f776e6572600082015250565b60006137c9602083612b85565b91506137d482613793565b602082019050919050565b600060208201905081810360008301526137f8816137bc565b9050919050565b600060ff82169050919050565b7f4e487b7100000000000000000000000000000000000000000000000000000000600052601160045260246000fd5b6000613846826137ff565b9150613851836137ff565b92508260ff038211156138675761386661380c565b5b828201905092915050565b600061387d82612c35565b91507fffffffffffffffffffffffffffffffffffffffffffffffffffffffffffffffff8214156138b0576138af61380c565b5b600182019050919050565b60006138c682612c35565b91506138d183612c35565b9250828210156138e4576138e361380c565b5b828203905092915050565b7f4552433732313a20617070726f766520746f2063616c6c657200000000000000600082015250565b6000613925601983612b85565b9150613930826138ef565b602082019050919050565b6000602082019050818103600083015261395481613918565b9050919050565b7f496e76616c6964206e616d652e00000000000000000000000000000000000000600082015250565b6000613991600d83612b85565b915061399c8261395b565b602082019050919050565b600060208201905081810360008301526139c081613984565b9050919050565b600081905092915050565b60008190508160005260206000209050919050565b600081546139f4816131e3565b6139fe81866139c7565b94506001821660008114613a195760018114613a2a57613a5d565b60ff19831686528186019350613a5d565b613a33856139d2565b60005b83811015613a5557815481890152600182019150602081019050613a36565b838801955050505b50505092915050565b6000613a7282846139e7565b915081905092915050565b6000819050919050565b613a9081613a7d565b8114613a9b57600080fd5b50565b600081519050613aad81613a87565b92915050565b600060208284031215613ac957613ac8612ab5565b5b6000613ad784828501613a9e565b91505092915050565b600081519050919050565b6000613af682613ae0565b613b0081856139c7565b9350613b10818560208601612b96565b80840191505092915050565b6000613b288284613aeb565b915081905092915050565b7f4e6577206e616d652069732073616d65206173207468652063757272656e742060008201527f6f6e652e00000000000000000000000000000000000000000000000000000000602082015250565b6000613b8f602483612b85565b9150613b9a82613b33565b604082019050919050565b60006020820190508181036000830152613bbe81613b82565b9050919050565b7f4e616d6520616c72656164792072657365727665642e00000000000000000000600082015250565b6000613bfb601683612b85565b9150613c0682613bc5565b602082019050919050565b60006020820190508181036000830152613c2a81613bee565b9050919050565b7f4552433732314d657461646174613a2055524920717565727920666f72206e6f60008201527f6e6578697374656e7420746f6b656e0000000000000000000000000000000000602082015250565b6000613c8d602f83612b85565b9150613c9882613c31565b604082019050919050565b60006020820190508181036000830152613cbc81613c80565b9050919050565b6000613ccf82856133d6565b9150613cdb82846133d6565b91508190509392505050565b7f4f776e61626c653a206e6577206f776e657220697320746865207a65726f206160008201527f6464726573730000000000000000000000000000000000000000000000000000602082015250565b6000613d43602683612b85565b9150613d4e82613ce7565b604082019050919050565b60006020820190508181036000830152613d7281613d36565b9050919050565b7f4552433732313a206f70657261746f7220717565727920666f72206e6f6e657860008201527f697374656e7420746f6b656e0000000000000000000000000000000000000000602082015250565b6000613dd5602c83612b85565b9150613de082613d79565b604082019050919050565b60006020820190508181036000830152613e0481613dc8565b9050919050565b7f4552433732313a207472616e73666572206f6620746f6b656e2074686174206960008201527f73206e6f74206f776e0000000000000000000000000000000000000000000000602082015250565b6000613e67602983612b85565b9150613e7282613e0b565b604082019050919050565b60006020820190508181036000830152613e9681613e5a565b9050919050565b7f4552433732313a207472616e7366657220746f20746865207a65726f2061646460008201527f7265737300000000000000000000000000000000000000000000000000000000602082015250565b6000613ef9602483612b85565b9150613f0482613e9d565b604082019050919050565b60006020820190508181036000830152613f2881613eec565b9050919050565b6000613f3a82612c35565b9150613f4583612c35565b9250827fffffffffffffffffffffffffffffffffffffffffffffffffffffffffffffffff03821115613f7a57613f7961380c565b5b828201905092915050565b7f4552433732313a207472616e7366657220746f206e6f6e20455243373231526560008201527f63656976657220696d706c656d656e7465720000000000000000000000000000602082015250565b6000613fe1603283612b85565b9150613fec82613f85565b604082019050919050565b6000602082019050818103600083015261401081613fd4565b9050919050565b7f4e487b7100000000000000000000000000000000000000000000000000000000600052601260045260246000fd5b600061405182612c35565b915061405c83612c35565b92508261406c5761406b614017565b5b828204905092915050565b600061408282612c35565b915061408d83612c35565b92508261409d5761409c614017565b5b828206905092915050565b600082825260208201905092915050565b60006140c482613ae0565b6140ce81856140a8565b93506140de818560208601612b96565b6140e781612bc9565b840191505092915050565b60006080820190506141076000830187612cca565b6141146020830186612cca565b6141216040830185612d60565b818103606083015261413381846140b9565b905095945050505050565b60008151905061414d81612aeb565b92915050565b60006020828403121561416957614168612ab5565b5b60006141778482850161413e565b91505092915050565b7f4e487b7100000000000000000000000000000000000000000000000000000000600052603160045260246000fdfea2646970667358221220ec65d3857fb73c8b95488a46c213b72163472d467421b082f025530a94a5c25f64736f6c634300080b0033",
  "immutableReferences": {},
  "source": "// SPDX-License-Identifier: MIT\npragma solidity ^0.8.7;\n\nimport \"@openzeppelin/contracts/token/ERC721/extensions/ERC721Enumerable.sol\";\nimport \"@openzeppelin/contracts/access/Ownable.sol\";\n\ncontract ERC721EnumerableNameable is ERC721Enumerable, Ownable {\n\n\tuint256 public nameChangePrice = 500 ether;\n\tuint256 public bioChangePrice = 500 ether;\n\n\tmapping (uint256 => string) private _tokenName;\n\tmapping (string => bool) private _nameReserved;\n\tmapping (uint256 => string) private _tokenBio;\n\n\tevent NameChange (uint256 indexed tokenId, string newName);\n\tevent BioChange (uint256 indexed tokenId, string bio);\n\n\tconstructor(string memory _name, string memory _symbol) ERC721 (_name, _symbol) {}\n\n\tfunction changeName(uint256 tokenId, string memory newName) public virtual {\n\t\taddress owner = ownerOf(tokenId);\n\n\t\trequire(_msgSender() == owner, \"You do not own this token.\");\n\t\trequire(validateName(newName) == true, \"Invalid name.\");\n\t\trequire(sha256(bytes(newName)) != sha256(bytes(_tokenName[tokenId])), \"New name is same as the current one.\");\n\t\trequire(isNameReserved(newName) == false, \"Name already reserved.\");\n\n\t\t// If already named, dereserve old name\n\t\tif (bytes(_tokenName[tokenId]).length > 0) {\n\t\t\ttoggleReserveName(_tokenName[tokenId], false);\n\t\t}\n\t\ttoggleReserveName(newName, true);\n\t\t_tokenName[tokenId] = newName;\n\t\temit NameChange(tokenId, newName);\n\t}\n\n\tfunction changeBio(uint256 _tokenId, string memory _bio) public virtual {\n\t\taddress owner = ownerOf(_tokenId);\n\t\trequire(_msgSender() == owner, \"You do not own this token.\");\n\n\t\t_tokenBio[_tokenId] = _bio;\n\t\temit BioChange(_tokenId, _bio); \n\t}\n\n\tfunction toggleReserveName(string memory str, bool isReserve) internal {\n\t\t_nameReserved[toLower(str)] = isReserve;\n\t}\n\n\tfunction tokenNameByIndex(uint256 index) public view returns (string memory) {\n\t\treturn _tokenName[index];\n\t}\n\n\tfunction tokenBioByIndex(uint256 index) public view returns (string memory) {\n\t\treturn _tokenBio[index];\n\t}\n\n\tfunction isNameReserved(string memory nameString) public view returns (bool) {\n\t\treturn _nameReserved[toLower(nameString)];\n\t}\n\n\tfunction validateName(string memory str) public pure returns (bool){\n\t\tbytes memory b = bytes(str);\n\t\tif(b.length < 1) return false;\n\t\tif(b.length > 25) return false;\n\t\tif(b[0] == 0x20) return false;\n\t\tif (b[b.length - 1] == 0x20) return false;\n\n\t\tbytes1 lastChar = b[0];\n\n\t\tfor(uint i; i<b.length; i++){\n\t\t\tbytes1 char = b[i];\n\n\t\t\tif (char == 0x20 && lastChar == 0x20) return false;\n\n\t\t\tif(\n\t\t\t\t!(char >= 0x30 && char <= 0x39) && \n\t\t\t\t!(char >= 0x41 && char <= 0x5A) && \n\t\t\t\t!(char >= 0x61 && char <= 0x7A) && \n\t\t\t\t!(char == 0x20) \n\t\t\t)\n\t\t\t\treturn false;\n\n\t\t\tlastChar = char;\n\t\t}\n\n\t\treturn true;\n\t}\n\n\tfunction toLower(string memory str) public pure returns (string memory){\n\t\tbytes memory bStr = bytes(str);\n\t\tbytes memory bLower = new bytes(bStr.length);\n\t\tfor (uint i = 0; i < bStr.length; i++) {\n\t\t\tif ((uint8(bStr[i]) >= 65) && (uint8(bStr[i]) <= 90)) {\n\t\t\t\tbLower[i] = bytes1(uint8(bStr[i]) + 32);\n\t\t\t} else {\n\t\t\t\tbLower[i] = bStr[i];\n\t\t\t}\n\t\t}\n\t\treturn string(bLower);\n\t}\n\t\n\tfunction _beforeTokenTransfer(address from, address to, uint256 tokenId)\n        internal\n\t\tvirtual\n        override\n    {\n        super._beforeTokenTransfer(from, to, tokenId);\n    }\n\n    function supportsInterface(bytes4 interfaceId)\n        public\n        view\n        override\n        returns (bool)\n    {\n        return super.supportsInterface(interfaceId);\n    }\n}",
  "sourcePath": "/home/maulik/Desktop/Solidity/lostb_erc20/contract/contracts/ERC721EnumerableNameable.sol",
  "compiler": {
    "name": "solc",
    "version": "0.8.11+commit.d7f03943.Emscripten.clang"
  },
  "schemaVersion": "3.4.3",
  "updatedAt": "2022-02-02T06:55:10.242Z",
  "devdoc": {
    "kind": "dev",
    "methods": {
      "approve(address,uint256)": {
        "details": "See {IERC721-approve}."
      },
      "balanceOf(address)": {
        "details": "See {IERC721-balanceOf}."
      },
      "getApproved(uint256)": {
        "details": "See {IERC721-getApproved}."
      },
      "isApprovedForAll(address,address)": {
        "details": "See {IERC721-isApprovedForAll}."
      },
      "name()": {
        "details": "See {IERC721Metadata-name}."
      },
      "owner()": {
        "details": "Returns the address of the current owner."
      },
      "ownerOf(uint256)": {
        "details": "See {IERC721-ownerOf}."
      },
      "renounceOwnership()": {
        "details": "Leaves the contract without owner. It will not be possible to call `onlyOwner` functions anymore. Can only be called by the current owner. NOTE: Renouncing ownership will leave the contract without an owner, thereby removing any functionality that is only available to the owner."
      },
      "safeTransferFrom(address,address,uint256)": {
        "details": "See {IERC721-safeTransferFrom}."
      },
      "safeTransferFrom(address,address,uint256,bytes)": {
        "details": "See {IERC721-safeTransferFrom}."
      },
      "setApprovalForAll(address,bool)": {
        "details": "See {IERC721-setApprovalForAll}."
      },
      "supportsInterface(bytes4)": {
        "details": "See {IERC165-supportsInterface}."
      },
      "symbol()": {
        "details": "See {IERC721Metadata-symbol}."
      },
      "tokenByIndex(uint256)": {
        "details": "See {IERC721Enumerable-tokenByIndex}."
      },
      "tokenOfOwnerByIndex(address,uint256)": {
        "details": "See {IERC721Enumerable-tokenOfOwnerByIndex}."
      },
      "tokenURI(uint256)": {
        "details": "See {IERC721Metadata-tokenURI}."
      },
      "totalSupply()": {
        "details": "See {IERC721Enumerable-totalSupply}."
      },
      "transferFrom(address,address,uint256)": {
        "details": "See {IERC721-transferFrom}."
      },
      "transferOwnership(address)": {
        "details": "Transfers ownership of the contract to a new account (`newOwner`). Can only be called by the current owner."
      }
    },
    "version": 1
  },
  "userdoc": {
    "kind": "user",
    "methods": {},
    "version": 1
  }
}