{
  "contractName": "LostBoyTest",
  "abi": [
    {
      "inputs": [
        {
          "internalType": "string",
          "name": "name",
          "type": "string"
        },
        {
          "internalType": "string",
          "name": "symbol",
          "type": "string"
        },
        {
          "internalType": "string",
          "name": "baseURI",
          "type": "string"
        }
      ],
      "stateMutability": "nonpayable",
      "type": "constructor"
    },
    {
      "anonymous": false,
      "inputs": [
        {
          "indexed": true,
          "internalType": "address",
          "name": "owner",
          "type": "address"
        },
        {
          "indexed": true,
          "internalType": "address",
          "name": "approved",
          "type": "address"
        },
        {
          "indexed": true,
          "internalType": "uint256",
          "name": "tokenId",
          "type": "uint256"
        }
      ],
      "name": "Approval",
      "type": "event"
    },
    {
      "anonymous": false,
      "inputs": [
        {
          "indexed": true,
          "internalType": "address",
          "name": "owner",
          "type": "address"
        },
        {
          "indexed": true,
          "internalType": "address",
          "name": "operator",
          "type": "address"
        },
        {
          "indexed": false,
          "internalType": "bool",
          "name": "approved",
          "type": "bool"
        }
      ],
      "name": "ApprovalForAll",
      "type": "event"
    },
    {
      "anonymous": false,
      "inputs": [
        {
          "indexed": true,
          "internalType": "address",
          "name": "previousOwner",
          "type": "address"
        },
        {
          "indexed": true,
          "internalType": "address",
          "name": "newOwner",
          "type": "address"
        }
      ],
      "name": "OwnershipTransferred",
      "type": "event"
    },
    {
      "anonymous": false,
      "inputs": [
        {
          "indexed": true,
          "internalType": "address",
          "name": "from",
          "type": "address"
        },
        {
          "indexed": true,
          "internalType": "address",
          "name": "to",
          "type": "address"
        },
        {
          "indexed": true,
          "internalType": "uint256",
          "name": "tokenId",
          "type": "uint256"
        }
      ],
      "name": "Transfer",
      "type": "event"
    },
    {
      "inputs": [],
      "name": "MAX_LOSTBOYS",
      "outputs": [
        {
          "internalType": "uint256",
          "name": "",
          "type": "uint256"
        }
      ],
      "stateMutability": "view",
      "type": "function"
    },
    {
      "inputs": [],
      "name": "MAX_PRESALE_BOYS_PER_ADDRESS",
      "outputs": [
        {
          "internalType": "uint256",
          "name": "",
          "type": "uint256"
        }
      ],
      "stateMutability": "view",
      "type": "function"
    },
    {
      "inputs": [
        {
          "internalType": "address",
          "name": "to",
          "type": "address"
        },
        {
          "internalType": "uint256",
          "name": "tokenId",
          "type": "uint256"
        }
      ],
      "name": "approve",
      "outputs": [],
      "stateMutability": "nonpayable",
      "type": "function"
    },
    {
      "inputs": [
        {
          "internalType": "address",
          "name": "owner",
          "type": "address"
        }
      ],
      "name": "balanceOf",
      "outputs": [
        {
          "internalType": "uint256",
          "name": "",
          "type": "uint256"
        }
      ],
      "stateMutability": "view",
      "type": "function"
    },
    {
      "inputs": [],
      "name": "donationPercentage",
      "outputs": [
        {
          "internalType": "uint256",
          "name": "",
          "type": "uint256"
        }
      ],
      "stateMutability": "view",
      "type": "function"
    },
    {
      "inputs": [],
      "name": "donationWallet",
      "outputs": [
        {
          "internalType": "address",
          "name": "",
          "type": "address"
        }
      ],
      "stateMutability": "view",
      "type": "function"
    },
    {
      "inputs": [
        {
          "internalType": "uint256",
          "name": "tokenId",
          "type": "uint256"
        }
      ],
      "name": "getApproved",
      "outputs": [
        {
          "internalType": "address",
          "name": "",
          "type": "address"
        }
      ],
      "stateMutability": "view",
      "type": "function"
    },
    {
      "inputs": [
        {
          "internalType": "address",
          "name": "owner",
          "type": "address"
        },
        {
          "internalType": "address",
          "name": "operator",
          "type": "address"
        }
      ],
      "name": "isApprovedForAll",
      "outputs": [
        {
          "internalType": "bool",
          "name": "",
          "type": "bool"
        }
      ],
      "stateMutability": "view",
      "type": "function"
    },
    {
      "inputs": [],
      "name": "isPresaleActive",
      "outputs": [
        {
          "internalType": "bool",
          "name": "",
          "type": "bool"
        }
      ],
      "stateMutability": "view",
      "type": "function"
    },
    {
      "inputs": [],
      "name": "lostBoyPrice",
      "outputs": [
        {
          "internalType": "uint256",
          "name": "",
          "type": "uint256"
        }
      ],
      "stateMutability": "view",
      "type": "function"
    },
    {
      "inputs": [],
      "name": "maxBoysPerMint",
      "outputs": [
        {
          "internalType": "uint256",
          "name": "",
          "type": "uint256"
        }
      ],
      "stateMutability": "view",
      "type": "function"
    },
    {
      "inputs": [],
      "name": "maxBoysPerPresaleMint",
      "outputs": [
        {
          "internalType": "uint256",
          "name": "",
          "type": "uint256"
        }
      ],
      "stateMutability": "view",
      "type": "function"
    },
    {
      "inputs": [],
      "name": "mintingActive",
      "outputs": [
        {
          "internalType": "bool",
          "name": "",
          "type": "bool"
        }
      ],
      "stateMutability": "view",
      "type": "function"
    },
    {
      "inputs": [],
      "name": "name",
      "outputs": [
        {
          "internalType": "string",
          "name": "",
          "type": "string"
        }
      ],
      "stateMutability": "view",
      "type": "function"
    },
    {
      "inputs": [],
      "name": "owner",
      "outputs": [
        {
          "internalType": "address",
          "name": "",
          "type": "address"
        }
      ],
      "stateMutability": "view",
      "type": "function"
    },
    {
      "inputs": [
        {
          "internalType": "uint256",
          "name": "tokenId",
          "type": "uint256"
        }
      ],
      "name": "ownerOf",
      "outputs": [
        {
          "internalType": "address",
          "name": "",
          "type": "address"
        }
      ],
      "stateMutability": "view",
      "type": "function"
    },
    {
      "inputs": [],
      "name": "provenanceHash",
      "outputs": [
        {
          "internalType": "string",
          "name": "",
          "type": "string"
        }
      ],
      "stateMutability": "view",
      "type": "function"
    },
    {
      "inputs": [],
      "name": "renounceOwnership",
      "outputs": [],
      "stateMutability": "nonpayable",
      "type": "function"
    },
    {
      "inputs": [
        {
          "internalType": "address",
          "name": "from",
          "type": "address"
        },
        {
          "internalType": "address",
          "name": "to",
          "type": "address"
        },
        {
          "internalType": "uint256",
          "name": "tokenId",
          "type": "uint256"
        }
      ],
      "name": "safeTransferFrom",
      "outputs": [],
      "stateMutability": "nonpayable",
      "type": "function"
    },
    {
      "inputs": [
        {
          "internalType": "address",
          "name": "from",
          "type": "address"
        },
        {
          "internalType": "address",
          "name": "to",
          "type": "address"
        },
        {
          "internalType": "uint256",
          "name": "tokenId",
          "type": "uint256"
        },
        {
          "internalType": "bytes",
          "name": "_data",
          "type": "bytes"
        }
      ],
      "name": "safeTransferFrom",
      "outputs": [],
      "stateMutability": "nonpayable",
      "type": "function"
    },
    {
      "inputs": [
        {
          "internalType": "address",
          "name": "operator",
          "type": "address"
        },
        {
          "internalType": "bool",
          "name": "approved",
          "type": "bool"
        }
      ],
      "name": "setApprovalForAll",
      "outputs": [],
      "stateMutability": "nonpayable",
      "type": "function"
    },
    {
      "inputs": [
        {
          "internalType": "bytes4",
          "name": "interfaceId",
          "type": "bytes4"
        }
      ],
      "name": "supportsInterface",
      "outputs": [
        {
          "internalType": "bool",
          "name": "",
          "type": "bool"
        }
      ],
      "stateMutability": "view",
      "type": "function"
    },
    {
      "inputs": [],
      "name": "symbol",
      "outputs": [
        {
          "internalType": "string",
          "name": "",
          "type": "string"
        }
      ],
      "stateMutability": "view",
      "type": "function"
    },
    {
      "inputs": [
        {
          "internalType": "uint256",
          "name": "index",
          "type": "uint256"
        }
      ],
      "name": "tokenByIndex",
      "outputs": [
        {
          "internalType": "uint256",
          "name": "",
          "type": "uint256"
        }
      ],
      "stateMutability": "view",
      "type": "function"
    },
    {
      "inputs": [
        {
          "internalType": "address",
          "name": "owner",
          "type": "address"
        },
        {
          "internalType": "uint256",
          "name": "index",
          "type": "uint256"
        }
      ],
      "name": "tokenOfOwnerByIndex",
      "outputs": [
        {
          "internalType": "uint256",
          "name": "",
          "type": "uint256"
        }
      ],
      "stateMutability": "view",
      "type": "function"
    },
    {
      "inputs": [
        {
          "internalType": "uint256",
          "name": "tokenId",
          "type": "uint256"
        }
      ],
      "name": "tokenURI",
      "outputs": [
        {
          "internalType": "string",
          "name": "",
          "type": "string"
        }
      ],
      "stateMutability": "view",
      "type": "function"
    },
    {
      "inputs": [],
      "name": "totalSupply",
      "outputs": [
        {
          "internalType": "uint256",
          "name": "",
          "type": "uint256"
        }
      ],
      "stateMutability": "view",
      "type": "function"
    },
    {
      "inputs": [
        {
          "internalType": "address",
          "name": "from",
          "type": "address"
        },
        {
          "internalType": "address",
          "name": "to",
          "type": "address"
        },
        {
          "internalType": "uint256",
          "name": "tokenId",
          "type": "uint256"
        }
      ],
      "name": "transferFrom",
      "outputs": [],
      "stateMutability": "nonpayable",
      "type": "function"
    },
    {
      "inputs": [
        {
          "internalType": "address",
          "name": "newOwner",
          "type": "address"
        }
      ],
      "name": "transferOwnership",
      "outputs": [],
      "stateMutability": "nonpayable",
      "type": "function"
    },
    {
      "inputs": [],
      "name": "withdrawBalance",
      "outputs": [],
      "stateMutability": "nonpayable",
      "type": "function"
    },
    {
      "inputs": [
        {
          "internalType": "uint256",
          "name": "quantity",
          "type": "uint256"
        }
      ],
      "name": "reserveBoys",
      "outputs": [],
      "stateMutability": "nonpayable",
      "type": "function"
    },
    {
      "inputs": [
        {
          "internalType": "uint256",
          "name": "numberOfBoys",
          "type": "uint256"
        }
      ],
      "name": "mintBoy",
      "outputs": [],
      "stateMutability": "payable",
      "type": "function"
    },
    {
      "inputs": [
        {
          "internalType": "uint256",
          "name": "numberOfBoys",
          "type": "uint256"
        }
      ],
      "name": "mintBoyAsMember",
      "outputs": [],
      "stateMutability": "payable",
      "type": "function"
    },
    {
      "inputs": [
        {
          "internalType": "address[]",
          "name": "members",
          "type": "address[]"
        }
      ],
      "name": "addToWhitelist",
      "outputs": [],
      "stateMutability": "nonpayable",
      "type": "function"
    },
    {
      "inputs": [
        {
          "internalType": "address",
          "name": "addr",
          "type": "address"
        }
      ],
      "name": "isWhitelisted",
      "outputs": [
        {
          "internalType": "bool",
          "name": "",
          "type": "bool"
        }
      ],
      "stateMutability": "view",
      "type": "function"
    },
    {
      "inputs": [
        {
          "internalType": "address",
          "name": "charityAddress",
          "type": "address"
        }
      ],
      "name": "setCharityWalletAddress",
      "outputs": [],
      "stateMutability": "nonpayable",
      "type": "function"
    },
    {
      "inputs": [],
      "name": "switchMinting",
      "outputs": [],
      "stateMutability": "nonpayable",
      "type": "function"
    },
    {
      "inputs": [],
      "name": "switchPresale",
      "outputs": [],
      "stateMutability": "nonpayable",
      "type": "function"
    },
    {
      "inputs": [
        {
          "internalType": "uint256",
          "name": "quantity",
          "type": "uint256"
        }
      ],
      "name": "setMaxQuantityPerMint",
      "outputs": [],
      "stateMutability": "nonpayable",
      "type": "function"
    },
    {
      "inputs": [
        {
          "internalType": "uint256",
          "name": "quantity",
          "type": "uint256"
        }
      ],
      "name": "setMaxQuantityPerPresaleMint",
      "outputs": [],
      "stateMutability": "nonpayable",
      "type": "function"
    },
    {
      "inputs": [
        {
          "internalType": "uint256",
          "name": "quantity",
          "type": "uint256"
        }
      ],
      "name": "setMaxPerPresaleWallet",
      "outputs": [],
      "stateMutability": "nonpayable",
      "type": "function"
    },
    {
      "inputs": [
        {
          "internalType": "string",
          "name": "baseURI",
          "type": "string"
        }
      ],
      "name": "setBaseURI",
      "outputs": [],
      "stateMutability": "nonpayable",
      "type": "function"
    },
    {
      "inputs": [
        {
          "internalType": "string",
          "name": "_provenance",
          "type": "string"
        }
      ],
      "name": "setProvenance",
      "outputs": [],
      "stateMutability": "nonpayable",
      "type": "function"
    }
  ],
  "bytecode": "0x608060405260405180602001604052806000815250600d90805190602001906200002b9291906200027d565b50612710600e556032600f5566b1a2bc2ec50000601055600f60115560196012556000601360006101000a81548160ff0219169083151502179055506000601360016101000a81548160ff0219169083151502179055506040518060200160405280600081525060149080519060200190620000a99291906200027d565b50600a601555739715f6a7510aa98d4f8eb8e17c9e01859a05937a601660006101000a81548173ffffffffffffffffffffffffffffffffffffffff021916908373ffffffffffffffffffffffffffffffffffffffff1602179055503480156200011157600080fd5b5060405162005539380380620055398339818101604052810190620001379190620004ca565b82828160009080519060200190620001519291906200027d565b5080600190805190602001906200016a9291906200027d565b5050506200018d62000181620001af60201b60201c565b620001b760201b60201c565b80600d9080519060200190620001a59291906200027d565b50505050620005e8565b600033905090565b6000600a60009054906101000a900473ffffffffffffffffffffffffffffffffffffffff16905081600a60006101000a81548173ffffffffffffffffffffffffffffffffffffffff021916908373ffffffffffffffffffffffffffffffffffffffff1602179055508173ffffffffffffffffffffffffffffffffffffffff168173ffffffffffffffffffffffffffffffffffffffff167f8be0079c531659141344cd1fd0a4f28419497f9722a3daafe3b4186f6b6457e060405160405180910390a35050565b8280546200028b90620005b2565b90600052602060002090601f016020900481019282620002af5760008555620002fb565b82601f10620002ca57805160ff1916838001178555620002fb565b82800160010185558215620002fb579182015b82811115620002fa578251825591602001919060010190620002dd565b5b5090506200030a91906200030e565b5090565b5b80821115620003295760008160009055506001016200030f565b5090565b6000604051905090565b600080fd5b600080fd5b600080fd5b600080fd5b6000601f19601f8301169050919050565b7f4e487b7100000000000000000000000000000000000000000000000000000000600052604160045260246000fd5b62000396826200034b565b810181811067ffffffffffffffff82111715620003b857620003b76200035c565b5b80604052505050565b6000620003cd6200032d565b9050620003db82826200038b565b919050565b600067ffffffffffffffff821115620003fe57620003fd6200035c565b5b62000409826200034b565b9050602081019050919050565b60005b838110156200043657808201518184015260208101905062000419565b8381111562000446576000848401525b50505050565b6000620004636200045d84620003e0565b620003c1565b90508281526020810184848401111562000482576200048162000346565b5b6200048f84828562000416565b509392505050565b600082601f830112620004af57620004ae62000341565b5b8151620004c18482602086016200044c565b91505092915050565b600080600060608486031215620004e657620004e562000337565b5b600084015167ffffffffffffffff8111156200050757620005066200033c565b5b620005158682870162000497565b935050602084015167ffffffffffffffff8111156200053957620005386200033c565b5b620005478682870162000497565b925050604084015167ffffffffffffffff8111156200056b576200056a6200033c565b5b620005798682870162000497565b9150509250925092565b7f4e487b7100000000000000000000000000000000000000000000000000000000600052602260045260246000fd5b60006002820490506001821680620005cb57607f821691505b60208210811415620005e257620005e162000583565b5b50919050565b614f4180620005f86000396000f3fe60806040526004361061025c5760003560e01c806370a0823111610144578063b88d4fde116100b6578063cf8f479f1161007a578063cf8f479f146108a2578063e1b7f9d6146108cd578063e7b94df4146108f8578063e985e9c514610923578063f2fde38b14610960578063ffe630b5146109895761025c565b8063b88d4fde146107cf578063c16cc810146107f8578063c29ad3ff14610823578063c6ab67a31461083a578063c87b56dd146108655761025c565b806390fd50ca1161010857806390fd50ca146106e057806395d89b4114610709578063a22cb46514610734578063a4b4839d1461075d578063a7d30e0f14610788578063b6e67bdd146107a45761025c565b806370a082311461060f578063715018a61461064c5780637f649783146106635780638da5cb5b1461068c5780638f95a445146106b75761025c565b806331f9c919116101dd57806355f804b3116101a157806355f804b3146105135780635fd8c7101461053c578063600227fa1461055357806360d938dc1461057e57806361edf7c7146105a95780636352211e146105d25761025c565b806331f9c9191461042e5780633af32abf146104595780633b6ccee71461049657806342842e0e146104ad5780634f6ccce7146104d65761025c565b806318160ddd1161022457806318160ddd1461035857806323b872dd14610383578063290b2a0f146103ac5780632ad0dff5146103d55780632f745c59146103f15761025c565b806301ffc9a714610261578063037424e41461029e57806306fdde03146102c7578063081812fc146102f2578063095ea7b31461032f575b600080fd5b34801561026d57600080fd5b50610288600480360381019061028391906135d1565b6109b2565b6040516102959190613619565b60405180910390f35b3480156102aa57600080fd5b506102c560048036038101906102c0919061366a565b610a2c565b005b3480156102d357600080fd5b506102dc610aec565b6040516102e99190613730565b60405180910390f35b3480156102fe57600080fd5b506103196004803603810190610314919061366a565b610b7e565b6040516103269190613793565b60405180910390f35b34801561033b57600080fd5b50610356600480360381019061035191906137da565b610c03565b005b34801561036457600080fd5b5061036d610d1b565b60405161037a9190613829565b60405180910390f35b34801561038f57600080fd5b506103aa60048036038101906103a59190613844565b610d28565b005b3480156103b857600080fd5b506103d360048036038101906103ce919061366a565b610d88565b005b6103ef60048036038101906103ea919061366a565b610e0e565b005b3480156103fd57600080fd5b50610418600480360381019061041391906137da565b61116c565b6040516104259190613829565b60405180910390f35b34801561043a57600080fd5b50610443611211565b6040516104509190613619565b60405180910390f35b34801561046557600080fd5b50610480600480360381019061047b9190613897565b611224565b60405161048d9190613619565b60405180910390f35b3480156104a257600080fd5b506104ab6112a0565b005b3480156104b957600080fd5b506104d460048036038101906104cf9190613844565b611348565b005b3480156104e257600080fd5b506104fd60048036038101906104f8919061366a565b611368565b60405161050a9190613829565b60405180910390f35b34801561051f57600080fd5b5061053a600480360381019061053591906139f9565b6113d9565b005b34801561054857600080fd5b5061055161146f565b005b34801561055f57600080fd5b506105686115e8565b6040516105759190613829565b60405180910390f35b34801561058a57600080fd5b506105936115ee565b6040516105a09190613619565b60405180910390f35b3480156105b557600080fd5b506105d060048036038101906105cb919061366a565b611601565b005b3480156105de57600080fd5b506105f960048036038101906105f4919061366a565b611687565b6040516106069190613793565b60405180910390f35b34801561061b57600080fd5b5061063660048036038101906106319190613897565b611739565b6040516106439190613829565b60405180910390f35b34801561065857600080fd5b506106616117f1565b005b34801561066f57600080fd5b5061068a60048036038101906106859190613b0a565b611879565b005b34801561069857600080fd5b506106a16119f9565b6040516106ae9190613793565b60405180910390f35b3480156106c357600080fd5b506106de60048036038101906106d99190613897565b611a23565b005b3480156106ec57600080fd5b506107076004803603810190610702919061366a565b611ae3565b005b34801561071557600080fd5b5061071e611b69565b60405161072b9190613730565b60405180910390f35b34801561074057600080fd5b5061075b60048036038101906107569190613b7f565b611bfb565b005b34801561076957600080fd5b50610772611d7c565b60405161077f9190613829565b60405180910390f35b6107a2600480360381019061079d919061366a565b611d82565b005b3480156107b057600080fd5b506107b9611f02565b6040516107c69190613829565b60405180910390f35b3480156107db57600080fd5b506107f660048036038101906107f19190613c60565b611f08565b005b34801561080457600080fd5b5061080d611f6a565b60405161081a9190613829565b60405180910390f35b34801561082f57600080fd5b50610838611f70565b005b34801561084657600080fd5b5061084f612018565b60405161085c9190613730565b60405180910390f35b34801561087157600080fd5b5061088c6004803603810190610887919061366a565b6120a6565b6040516108999190613730565b60405180910390f35b3480156108ae57600080fd5b506108b761214d565b6040516108c49190613829565b60405180910390f35b3480156108d957600080fd5b506108e2612153565b6040516108ef9190613829565b60405180910390f35b34801561090457600080fd5b5061090d612159565b60405161091a9190613793565b60405180910390f35b34801561092f57600080fd5b5061094a60048036038101906109459190613ce3565b61217f565b6040516109579190613619565b60405180910390f35b34801561096c57600080fd5b5061098760048036038101906109829190613897565b612213565b005b34801561099557600080fd5b506109b060048036038101906109ab91906139f9565b61230b565b005b60007f780e9d63000000000000000000000000000000000000000000000000000000007bffffffffffffffffffffffffffffffffffffffffffffffffffffffff1916827bffffffffffffffffffffffffffffffffffffffffffffffffffffffff19161480610a255750610a24826123a1565b5b9050919050565b610a34612483565b73ffffffffffffffffffffffffffffffffffffffff16610a526119f9565b73ffffffffffffffffffffffffffffffffffffffff1614610aa8576040517f08c379a0000000000000000000000000000000000000000000000000000000008152600401610a9f90613d6f565b60405180910390fd5b60005b81811015610ae8576000610abd610d1b565b9050600e54811015610ad457610ad3338261248b565b5b508080610ae090613dbe565b915050610aab565b5050565b606060008054610afb90613e36565b80601f0160208091040260200160405190810160405280929190818152602001828054610b2790613e36565b8015610b745780601f10610b4957610100808354040283529160200191610b74565b820191906000526020600020905b815481529060010190602001808311610b5757829003601f168201915b5050505050905090565b6000610b89826124a9565b610bc8576040517f08c379a0000000000000000000000000000000000000000000000000000000008152600401610bbf90613eda565b60405180910390fd5b6004600083815260200190815260200160002060009054906101000a900473ffffffffffffffffffffffffffffffffffffffff169050919050565b6000610c0e82611687565b90508073ffffffffffffffffffffffffffffffffffffffff168373ffffffffffffffffffffffffffffffffffffffff161415610c7f576040517f08c379a0000000000000000000000000000000000000000000000000000000008152600401610c7690613f6c565b60405180910390fd5b8073ffffffffffffffffffffffffffffffffffffffff16610c9e612483565b73ffffffffffffffffffffffffffffffffffffffff161480610ccd5750610ccc81610cc7612483565b61217f565b5b610d0c576040517f08c379a0000000000000000000000000000000000000000000000000000000008152600401610d0390613ffe565b60405180910390fd5b610d168383612515565b505050565b6000600880549050905090565b610d39610d33612483565b826125ce565b610d78576040517f08c379a0000000000000000000000000000000000000000000000000000000008152600401610d6f90614090565b60405180910390fd5b610d838383836126ac565b505050565b610d90612483565b73ffffffffffffffffffffffffffffffffffffffff16610dae6119f9565b73ffffffffffffffffffffffffffffffffffffffff1614610e04576040517f08c379a0000000000000000000000000000000000000000000000000000000008152600401610dfb90613d6f565b60405180910390fd5b8060118190555050565b601360019054906101000a900460ff16610e5d576040517f08c379a0000000000000000000000000000000000000000000000000000000008152600401610e54906140fc565b60405180910390fd5b60008111610ea0576040517f08c379a0000000000000000000000000000000000000000000000000000000008152600401610e979061418e565b60405180910390fd5b600180811115610eb357610eb26141ae565b5b600b60003373ffffffffffffffffffffffffffffffffffffffff1673ffffffffffffffffffffffffffffffffffffffff16815260200190815260200160002060009054906101000a900460ff166001811115610f1257610f116141ae565b5b14610f52576040517f08c379a0000000000000000000000000000000000000000000000000000000008152600401610f499061424f565b60405180910390fd5b600f54610fa782600c60003373ffffffffffffffffffffffffffffffffffffffff1673ffffffffffffffffffffffffffffffffffffffff1681526020019081526020016000205461290890919063ffffffff16565b1115610fe8576040517f08c379a0000000000000000000000000000000000000000000000000000000008152600401610fdf906142e1565b60405180910390fd5b600e5461100582610ff7610d1b565b61290890919063ffffffff16565b1115611046576040517f08c379a000000000000000000000000000000000000000000000000000000000815260040161103d9061434d565b60405180910390fd5b60125481111561108b576040517f08c379a0000000000000000000000000000000000000000000000000000000008152600401611082906143df565b60405180910390fd5b60005b818110156111685760006110a0610d1b565b9050600e546110ad610d1b565b1015611154576110bd338261248b565b6111106001600c60003373ffffffffffffffffffffffffffffffffffffffff1673ffffffffffffffffffffffffffffffffffffffff1681526020019081526020016000205461290890919063ffffffff16565b600c60003373ffffffffffffffffffffffffffffffffffffffff1673ffffffffffffffffffffffffffffffffffffffff168152602001908152602001600020819055505b50808061116090613dbe565b91505061108e565b5050565b600061117783611739565b82106111b8576040517f08c379a00000000000000000000000000000000000000000000000000000000081526004016111af90614471565b60405180910390fd5b600660008473ffffffffffffffffffffffffffffffffffffffff1673ffffffffffffffffffffffffffffffffffffffff168152602001908152602001600020600083815260200190815260200160002054905092915050565b601360009054906101000a900460ff1681565b6000600180811115611239576112386141ae565b5b600b60008473ffffffffffffffffffffffffffffffffffffffff1673ffffffffffffffffffffffffffffffffffffffff16815260200190815260200160002060009054906101000a900460ff166001811115611298576112976141ae565b5b149050919050565b6112a8612483565b73ffffffffffffffffffffffffffffffffffffffff166112c66119f9565b73ffffffffffffffffffffffffffffffffffffffff161461131c576040517f08c379a000000000000000000000000000000000000000000000000000000000815260040161131390613d6f565b60405180910390fd5b601360009054906101000a900460ff1615601360006101000a81548160ff021916908315150217905550565b61136383838360405180602001604052806000815250611f08565b505050565b6000611372610d1b565b82106113b3576040517f08c379a00000000000000000000000000000000000000000000000000000000081526004016113aa90614503565b60405180910390fd5b600882815481106113c7576113c6614523565b5b90600052602060002001549050919050565b6113e1612483565b73ffffffffffffffffffffffffffffffffffffffff166113ff6119f9565b73ffffffffffffffffffffffffffffffffffffffff1614611455576040517f08c379a000000000000000000000000000000000000000000000000000000000815260040161144c90613d6f565b60405180910390fd5b80600d908051906020019061146b9291906134c2565b5050565b611477612483565b73ffffffffffffffffffffffffffffffffffffffff166114956119f9565b73ffffffffffffffffffffffffffffffffffffffff16146114eb576040517f08c379a00000000000000000000000000000000000000000000000000000000081526004016114e290613d6f565b60405180910390fd5b6000479050600061151a606461150c6015548561291e90919063ffffffff16565b61293490919063ffffffff16565b90506000611531828461294a90919063ffffffff16565b90503373ffffffffffffffffffffffffffffffffffffffff166108fc829081150290604051600060405180830381858888f19350505050158015611579573d6000803e3d6000fd5b50601660009054906101000a900473ffffffffffffffffffffffffffffffffffffffff1673ffffffffffffffffffffffffffffffffffffffff166108fc839081150290604051600060405180830381858888f193505050501580156115e2573d6000803e3d6000fd5b50505050565b60125481565b601360019054906101000a900460ff1681565b611609612483565b73ffffffffffffffffffffffffffffffffffffffff166116276119f9565b73ffffffffffffffffffffffffffffffffffffffff161461167d576040517f08c379a000000000000000000000000000000000000000000000000000000000815260040161167490613d6f565b60405180910390fd5b8060128190555050565b6000806002600084815260200190815260200160002060009054906101000a900473ffffffffffffffffffffffffffffffffffffffff169050600073ffffffffffffffffffffffffffffffffffffffff168173ffffffffffffffffffffffffffffffffffffffff161415611730576040517f08c379a0000000000000000000000000000000000000000000000000000000008152600401611727906145c4565b60405180910390fd5b80915050919050565b60008073ffffffffffffffffffffffffffffffffffffffff168273ffffffffffffffffffffffffffffffffffffffff1614156117aa576040517f08c379a00000000000000000000000000000000000000000000000000000000081526004016117a190614656565b60405180910390fd5b600360008373ffffffffffffffffffffffffffffffffffffffff1673ffffffffffffffffffffffffffffffffffffffff168152602001908152602001600020549050919050565b6117f9612483565b73ffffffffffffffffffffffffffffffffffffffff166118176119f9565b73ffffffffffffffffffffffffffffffffffffffff161461186d576040517f08c379a000000000000000000000000000000000000000000000000000000000815260040161186490613d6f565b60405180910390fd5b6118776000612960565b565b611881612483565b73ffffffffffffffffffffffffffffffffffffffff1661189f6119f9565b73ffffffffffffffffffffffffffffffffffffffff16146118f5576040517f08c379a00000000000000000000000000000000000000000000000000000000081526004016118ec90613d6f565b60405180910390fd5b60005b81518110156119f5576001600b600084848151811061191a57611919614523565b5b602002602001015173ffffffffffffffffffffffffffffffffffffffff1673ffffffffffffffffffffffffffffffffffffffff16815260200190815260200160002060006101000a81548160ff0219169083600181111561197e5761197d6141ae565b5b02179055506000600c600084848151811061199c5761199b614523565b5b602002602001015173ffffffffffffffffffffffffffffffffffffffff1673ffffffffffffffffffffffffffffffffffffffff1681526020019081526020016000208190555080806119ed90613dbe565b9150506118f8565b5050565b6000600a60009054906101000a900473ffffffffffffffffffffffffffffffffffffffff16905090565b611a2b612483565b73ffffffffffffffffffffffffffffffffffffffff16611a496119f9565b73ffffffffffffffffffffffffffffffffffffffff1614611a9f576040517f08c379a0000000000000000000000000000000000000000000000000000000008152600401611a9690613d6f565b60405180910390fd5b80601660006101000a81548173ffffffffffffffffffffffffffffffffffffffff021916908373ffffffffffffffffffffffffffffffffffffffff16021790555050565b611aeb612483565b73ffffffffffffffffffffffffffffffffffffffff16611b096119f9565b73ffffffffffffffffffffffffffffffffffffffff1614611b5f576040517f08c379a0000000000000000000000000000000000000000000000000000000008152600401611b5690613d6f565b60405180910390fd5b80600f8190555050565b606060018054611b7890613e36565b80601f0160208091040260200160405190810160405280929190818152602001828054611ba490613e36565b8015611bf15780601f10611bc657610100808354040283529160200191611bf1565b820191906000526020600020905b815481529060010190602001808311611bd457829003601f168201915b5050505050905090565b611c03612483565b73ffffffffffffffffffffffffffffffffffffffff168273ffffffffffffffffffffffffffffffffffffffff161415611c71576040517f08c379a0000000000000000000000000000000000000000000000000000000008152600401611c68906146c2565b60405180910390fd5b8060056000611c7e612483565b73ffffffffffffffffffffffffffffffffffffffff1673ffffffffffffffffffffffffffffffffffffffff16815260200190815260200160002060008473ffffffffffffffffffffffffffffffffffffffff1673ffffffffffffffffffffffffffffffffffffffff16815260200190815260200160002060006101000a81548160ff0219169083151502179055508173ffffffffffffffffffffffffffffffffffffffff16611d2b612483565b73ffffffffffffffffffffffffffffffffffffffff167f17307eab39ab6107e8899845ad3d59bd9653f200f220920489ca2b5937696c3183604051611d709190613619565b60405180910390a35050565b600e5481565b601360009054906101000a900460ff16611dd1576040517f08c379a0000000000000000000000000000000000000000000000000000000008152600401611dc89061472e565b60405180910390fd5b60008111611e14576040517f08c379a0000000000000000000000000000000000000000000000000000000008152600401611e0b9061418e565b60405180910390fd5b600e54611e3182611e23610d1b565b61290890919063ffffffff16565b1115611e72576040517f08c379a0000000000000000000000000000000000000000000000000000000008152600401611e699061434d565b60405180910390fd5b601154811115611eb7576040517f08c379a0000000000000000000000000000000000000000000000000000000008152600401611eae906147c0565b60405180910390fd5b60005b81811015611efe576000611ecc610d1b565b9050600e54611ed9610d1b565b1015611eea57611ee9338261248b565b5b508080611ef690613dbe565b915050611eba565b5050565b600f5481565b611f19611f13612483565b836125ce565b611f58576040517f08c379a0000000000000000000000000000000000000000000000000000000008152600401611f4f90614090565b60405180910390fd5b611f6484848484612a26565b50505050565b60155481565b611f78612483565b73ffffffffffffffffffffffffffffffffffffffff16611f966119f9565b73ffffffffffffffffffffffffffffffffffffffff1614611fec576040517f08c379a0000000000000000000000000000000000000000000000000000000008152600401611fe390613d6f565b60405180910390fd5b601360019054906101000a900460ff1615601360016101000a81548160ff021916908315150217905550565b6014805461202590613e36565b80601f016020809104026020016040519081016040528092919081815260200182805461205190613e36565b801561209e5780601f106120735761010080835404028352916020019161209e565b820191906000526020600020905b81548152906001019060200180831161208157829003601f168201915b505050505081565b60606120b1826124a9565b6120f0576040517f08c379a00000000000000000000000000000000000000000000000000000000081526004016120e790614852565b60405180910390fd5b60006120fa612a82565b9050600081511161211a5760405180602001604052806000815250612145565b8061212484612b14565b6040516020016121359291906148ae565b6040516020818303038152906040525b915050919050565b60115481565b60105481565b601660009054906101000a900473ffffffffffffffffffffffffffffffffffffffff1681565b6000600560008473ffffffffffffffffffffffffffffffffffffffff1673ffffffffffffffffffffffffffffffffffffffff16815260200190815260200160002060008373ffffffffffffffffffffffffffffffffffffffff1673ffffffffffffffffffffffffffffffffffffffff16815260200190815260200160002060009054906101000a900460ff16905092915050565b61221b612483565b73ffffffffffffffffffffffffffffffffffffffff166122396119f9565b73ffffffffffffffffffffffffffffffffffffffff161461228f576040517f08c379a000000000000000000000000000000000000000000000000000000000815260040161228690613d6f565b60405180910390fd5b600073ffffffffffffffffffffffffffffffffffffffff168173ffffffffffffffffffffffffffffffffffffffff1614156122ff576040517f08c379a00000000000000000000000000000000000000000000000000000000081526004016122f690614944565b60405180910390fd5b61230881612960565b50565b612313612483565b73ffffffffffffffffffffffffffffffffffffffff166123316119f9565b73ffffffffffffffffffffffffffffffffffffffff1614612387576040517f08c379a000000000000000000000000000000000000000000000000000000000815260040161237e90613d6f565b60405180910390fd5b806014908051906020019061239d9291906134c2565b5050565b60007f80ac58cd000000000000000000000000000000000000000000000000000000007bffffffffffffffffffffffffffffffffffffffffffffffffffffffff1916827bffffffffffffffffffffffffffffffffffffffffffffffffffffffff1916148061246c57507f5b5e139f000000000000000000000000000000000000000000000000000000007bffffffffffffffffffffffffffffffffffffffffffffffffffffffff1916827bffffffffffffffffffffffffffffffffffffffffffffffffffffffff1916145b8061247c575061247b82612c75565b5b9050919050565b600033905090565b6124a5828260405180602001604052806000815250612cdf565b5050565b60008073ffffffffffffffffffffffffffffffffffffffff166002600084815260200190815260200160002060009054906101000a900473ffffffffffffffffffffffffffffffffffffffff1673ffffffffffffffffffffffffffffffffffffffff1614159050919050565b816004600083815260200190815260200160002060006101000a81548173ffffffffffffffffffffffffffffffffffffffff021916908373ffffffffffffffffffffffffffffffffffffffff160217905550808273ffffffffffffffffffffffffffffffffffffffff1661258883611687565b73ffffffffffffffffffffffffffffffffffffffff167f8c5be1e5ebec7d5bd14f71427d1e84f3dd0314c0f7b2291e5b200ac8c7c3b92560405160405180910390a45050565b60006125d9826124a9565b612618576040517f08c379a000000000000000000000000000000000000000000000000000000000815260040161260f906149d6565b60405180910390fd5b600061262383611687565b90508073ffffffffffffffffffffffffffffffffffffffff168473ffffffffffffffffffffffffffffffffffffffff16148061269257508373ffffffffffffffffffffffffffffffffffffffff1661267a84610b7e565b73ffffffffffffffffffffffffffffffffffffffff16145b806126a357506126a2818561217f565b5b91505092915050565b8273ffffffffffffffffffffffffffffffffffffffff166126cc82611687565b73ffffffffffffffffffffffffffffffffffffffff1614612722576040517f08c379a000000000000000000000000000000000000000000000000000000000815260040161271990614a68565b60405180910390fd5b600073ffffffffffffffffffffffffffffffffffffffff168273ffffffffffffffffffffffffffffffffffffffff161415612792576040517f08c379a000000000000000000000000000000000000000000000000000000000815260040161278990614afa565b60405180910390fd5b61279d838383612d3a565b6127a8600082612515565b6001600360008573ffffffffffffffffffffffffffffffffffffffff1673ffffffffffffffffffffffffffffffffffffffff16815260200190815260200160002060008282546127f89190614b1a565b925050819055506001600360008473ffffffffffffffffffffffffffffffffffffffff1673ffffffffffffffffffffffffffffffffffffffff168152602001908152602001600020600082825461284f9190614b4e565b92505081905550816002600083815260200190815260200160002060006101000a81548173ffffffffffffffffffffffffffffffffffffffff021916908373ffffffffffffffffffffffffffffffffffffffff160217905550808273ffffffffffffffffffffffffffffffffffffffff168473ffffffffffffffffffffffffffffffffffffffff167fddf252ad1be2c89b69c2b068fc378daa952ba7f163c4a11628f55a4df523b3ef60405160405180910390a4505050565b600081836129169190614b4e565b905092915050565b6000818361292c9190614ba4565b905092915050565b600081836129429190614c2d565b905092915050565b600081836129589190614b1a565b905092915050565b6000600a60009054906101000a900473ffffffffffffffffffffffffffffffffffffffff16905081600a60006101000a81548173ffffffffffffffffffffffffffffffffffffffff021916908373ffffffffffffffffffffffffffffffffffffffff1602179055508173ffffffffffffffffffffffffffffffffffffffff168173ffffffffffffffffffffffffffffffffffffffff167f8be0079c531659141344cd1fd0a4f28419497f9722a3daafe3b4186f6b6457e060405160405180910390a35050565b612a318484846126ac565b612a3d84848484612e4e565b612a7c576040517f08c379a0000000000000000000000000000000000000000000000000000000008152600401612a7390614cd0565b60405180910390fd5b50505050565b6060600d8054612a9190613e36565b80601f0160208091040260200160405190810160405280929190818152602001828054612abd90613e36565b8015612b0a5780601f10612adf57610100808354040283529160200191612b0a565b820191906000526020600020905b815481529060010190602001808311612aed57829003601f168201915b5050505050905090565b60606000821415612b5c576040518060400160405280600181526020017f30000000000000000000000000000000000000000000000000000000000000008152509050612c70565b600082905060005b60008214612b8e578080612b7790613dbe565b915050600a82612b879190614c2d565b9150612b64565b60008167ffffffffffffffff811115612baa57612ba96138ce565b5b6040519080825280601f01601f191660200182016040528015612bdc5781602001600182028036833780820191505090505b5090505b60008514612c6957600182612bf59190614b1a565b9150600a85612c049190614cf0565b6030612c109190614b4e565b60f81b818381518110612c2657612c25614523565b5b60200101907effffffffffffffffffffffffffffffffffffffffffffffffffffffffffffff1916908160001a905350600a85612c629190614c2d565b9450612be0565b8093505050505b919050565b60007f01ffc9a7000000000000000000000000000000000000000000000000000000007bffffffffffffffffffffffffffffffffffffffffffffffffffffffff1916827bffffffffffffffffffffffffffffffffffffffffffffffffffffffff1916149050919050565b612ce98383612fd6565b612cf66000848484612e4e565b612d35576040517f08c379a0000000000000000000000000000000000000000000000000000000008152600401612d2c90614cd0565b60405180910390fd5b505050565b612d458383836131a4565b600073ffffffffffffffffffffffffffffffffffffffff168373ffffffffffffffffffffffffffffffffffffffff161415612d8857612d83816131a9565b612dc7565b8173ffffffffffffffffffffffffffffffffffffffff168373ffffffffffffffffffffffffffffffffffffffff1614612dc657612dc583826131f2565b5b5b600073ffffffffffffffffffffffffffffffffffffffff168273ffffffffffffffffffffffffffffffffffffffff161415612e0a57612e058161335f565b612e49565b8273ffffffffffffffffffffffffffffffffffffffff168273ffffffffffffffffffffffffffffffffffffffff1614612e4857612e478282613430565b5b5b505050565b6000612e6f8473ffffffffffffffffffffffffffffffffffffffff166134af565b15612fc9578373ffffffffffffffffffffffffffffffffffffffff1663150b7a02612e98612483565b8786866040518563ffffffff1660e01b8152600401612eba9493929190614d76565b6020604051808303816000875af1925050508015612ef657506040513d601f19601f82011682018060405250810190612ef39190614dd7565b60015b612f79573d8060008114612f26576040519150601f19603f3d011682016040523d82523d6000602084013e612f2b565b606091505b50600081511415612f71576040517f08c379a0000000000000000000000000000000000000000000000000000000008152600401612f6890614cd0565b60405180910390fd5b805181602001fd5b63150b7a0260e01b7bffffffffffffffffffffffffffffffffffffffffffffffffffffffff1916817bffffffffffffffffffffffffffffffffffffffffffffffffffffffff191614915050612fce565b600190505b949350505050565b600073ffffffffffffffffffffffffffffffffffffffff168273ffffffffffffffffffffffffffffffffffffffff161415613046576040517f08c379a000000000000000000000000000000000000000000000000000000000815260040161303d90614e50565b60405180910390fd5b61304f816124a9565b1561308f576040517f08c379a000000000000000000000000000000000000000000000000000000000815260040161308690614ebc565b60405180910390fd5b61309b60008383612d3a565b6001600360008473ffffffffffffffffffffffffffffffffffffffff1673ffffffffffffffffffffffffffffffffffffffff16815260200190815260200160002060008282546130eb9190614b4e565b92505081905550816002600083815260200190815260200160002060006101000a81548173ffffffffffffffffffffffffffffffffffffffff021916908373ffffffffffffffffffffffffffffffffffffffff160217905550808273ffffffffffffffffffffffffffffffffffffffff16600073ffffffffffffffffffffffffffffffffffffffff167fddf252ad1be2c89b69c2b068fc378daa952ba7f163c4a11628f55a4df523b3ef60405160405180910390a45050565b505050565b6008805490506009600083815260200190815260200160002081905550600881908060018154018082558091505060019003906000526020600020016000909190919091505550565b600060016131ff84611739565b6132099190614b1a565b90506000600760008481526020019081526020016000205490508181146132ee576000600660008673ffffffffffffffffffffffffffffffffffffffff1673ffffffffffffffffffffffffffffffffffffffff168152602001908152602001600020600084815260200190815260200160002054905080600660008773ffffffffffffffffffffffffffffffffffffffff1673ffffffffffffffffffffffffffffffffffffffff168152602001908152602001600020600084815260200190815260200160002081905550816007600083815260200190815260200160002081905550505b6007600084815260200190815260200160002060009055600660008573ffffffffffffffffffffffffffffffffffffffff1673ffffffffffffffffffffffffffffffffffffffff16815260200190815260200160002060008381526020019081526020016000206000905550505050565b600060016008805490506133739190614b1a565b90506000600960008481526020019081526020016000205490506000600883815481106133a3576133a2614523565b5b9060005260206000200154905080600883815481106133c5576133c4614523565b5b90600052602060002001819055508160096000838152602001908152602001600020819055506009600085815260200190815260200160002060009055600880548061341457613413614edc565b5b6001900381819060005260206000200160009055905550505050565b600061343b83611739565b905081600660008573ffffffffffffffffffffffffffffffffffffffff1673ffffffffffffffffffffffffffffffffffffffff168152602001908152602001600020600083815260200190815260200160002081905550806007600084815260200190815260200160002081905550505050565b600080823b905060008111915050919050565b8280546134ce90613e36565b90600052602060002090601f0160209004810192826134f05760008555613537565b82601f1061350957805160ff1916838001178555613537565b82800160010185558215613537579182015b8281111561353657825182559160200191906001019061351b565b5b5090506135449190613548565b5090565b5b80821115613561576000816000905550600101613549565b5090565b6000604051905090565b600080fd5b600080fd5b60007fffffffff0000000000000000000000000000000000000000000000000000000082169050919050565b6135ae81613579565b81146135b957600080fd5b50565b6000813590506135cb816135a5565b92915050565b6000602082840312156135e7576135e661356f565b5b60006135f5848285016135bc565b91505092915050565b60008115159050919050565b613613816135fe565b82525050565b600060208201905061362e600083018461360a565b92915050565b6000819050919050565b61364781613634565b811461365257600080fd5b50565b6000813590506136648161363e565b92915050565b6000602082840312156136805761367f61356f565b5b600061368e84828501613655565b91505092915050565b600081519050919050565b600082825260208201905092915050565b60005b838110156136d15780820151818401526020810190506136b6565b838111156136e0576000848401525b50505050565b6000601f19601f8301169050919050565b600061370282613697565b61370c81856136a2565b935061371c8185602086016136b3565b613725816136e6565b840191505092915050565b6000602082019050818103600083015261374a81846136f7565b905092915050565b600073ffffffffffffffffffffffffffffffffffffffff82169050919050565b600061377d82613752565b9050919050565b61378d81613772565b82525050565b60006020820190506137a86000830184613784565b92915050565b6137b781613772565b81146137c257600080fd5b50565b6000813590506137d4816137ae565b92915050565b600080604083850312156137f1576137f061356f565b5b60006137ff858286016137c5565b925050602061381085828601613655565b9150509250929050565b61382381613634565b82525050565b600060208201905061383e600083018461381a565b92915050565b60008060006060848603121561385d5761385c61356f565b5b600061386b868287016137c5565b935050602061387c868287016137c5565b925050604061388d86828701613655565b9150509250925092565b6000602082840312156138ad576138ac61356f565b5b60006138bb848285016137c5565b91505092915050565b600080fd5b600080fd5b7f4e487b7100000000000000000000000000000000000000000000000000000000600052604160045260246000fd5b613906826136e6565b810181811067ffffffffffffffff82111715613925576139246138ce565b5b80604052505050565b6000613938613565565b905061394482826138fd565b919050565b600067ffffffffffffffff821115613964576139636138ce565b5b61396d826136e6565b9050602081019050919050565b82818337600083830152505050565b600061399c61399784613949565b61392e565b9050828152602081018484840111156139b8576139b76138c9565b5b6139c384828561397a565b509392505050565b600082601f8301126139e0576139df6138c4565b5b81356139f0848260208601613989565b91505092915050565b600060208284031215613a0f57613a0e61356f565b5b600082013567ffffffffffffffff811115613a2d57613a2c613574565b5b613a39848285016139cb565b91505092915050565b600067ffffffffffffffff821115613a5d57613a5c6138ce565b5b602082029050602081019050919050565b600080fd5b6000613a86613a8184613a42565b61392e565b90508083825260208201905060208402830185811115613aa957613aa8613a6e565b5b835b81811015613ad25780613abe88826137c5565b845260208401935050602081019050613aab565b5050509392505050565b600082601f830112613af157613af06138c4565b5b8135613b01848260208601613a73565b91505092915050565b600060208284031215613b2057613b1f61356f565b5b600082013567ffffffffffffffff811115613b3e57613b3d613574565b5b613b4a84828501613adc565b91505092915050565b613b5c816135fe565b8114613b6757600080fd5b50565b600081359050613b7981613b53565b92915050565b60008060408385031215613b9657613b9561356f565b5b6000613ba4858286016137c5565b9250506020613bb585828601613b6a565b9150509250929050565b600067ffffffffffffffff821115613bda57613bd96138ce565b5b613be3826136e6565b9050602081019050919050565b6000613c03613bfe84613bbf565b61392e565b905082815260208101848484011115613c1f57613c1e6138c9565b5b613c2a84828561397a565b509392505050565b600082601f830112613c4757613c466138c4565b5b8135613c57848260208601613bf0565b91505092915050565b60008060008060808587031215613c7a57613c7961356f565b5b6000613c88878288016137c5565b9450506020613c99878288016137c5565b9350506040613caa87828801613655565b925050606085013567ffffffffffffffff811115613ccb57613cca613574565b5b613cd787828801613c32565b91505092959194509250565b60008060408385031215613cfa57613cf961356f565b5b6000613d08858286016137c5565b9250506020613d19858286016137c5565b9150509250929050565b7f4f776e61626c653a2063616c6c6572206973206e6f7420746865206f776e6572600082015250565b6000613d596020836136a2565b9150613d6482613d23565b602082019050919050565b60006020820190508181036000830152613d8881613d4c565b9050919050565b7f4e487b7100000000000000000000000000000000000000000000000000000000600052601160045260246000fd5b6000613dc982613634565b91507fffffffffffffffffffffffffffffffffffffffffffffffffffffffffffffffff821415613dfc57613dfb613d8f565b5b600182019050919050565b7f4e487b7100000000000000000000000000000000000000000000000000000000600052602260045260246000fd5b60006002820490506001821680613e4e57607f821691505b60208210811415613e6257613e61613e07565b5b50919050565b7f4552433732313a20617070726f76656420717565727920666f72206e6f6e657860008201527f697374656e7420746f6b656e0000000000000000000000000000000000000000602082015250565b6000613ec4602c836136a2565b9150613ecf82613e68565b604082019050919050565b60006020820190508181036000830152613ef381613eb7565b9050919050565b7f4552433732313a20617070726f76616c20746f2063757272656e74206f776e6560008201527f7200000000000000000000000000000000000000000000000000000000000000602082015250565b6000613f566021836136a2565b9150613f6182613efa565b604082019050919050565b60006020820190508181036000830152613f8581613f49565b9050919050565b7f4552433732313a20617070726f76652063616c6c6572206973206e6f74206f7760008201527f6e6572206e6f7220617070726f76656420666f7220616c6c0000000000000000602082015250565b6000613fe86038836136a2565b9150613ff382613f8c565b604082019050919050565b6000602082019050818103600083015261401781613fdb565b9050919050565b7f4552433732313a207472616e736665722063616c6c6572206973206e6f74206f60008201527f776e6572206e6f7220617070726f766564000000000000000000000000000000602082015250565b600061407a6031836136a2565b91506140858261401e565b604082019050919050565b600060208201905081810360008301526140a98161406d565b9050919050565b7f50726573616c65206973206e6f7420616374697665207965742e000000000000600082015250565b60006140e6601a836136a2565b91506140f1826140b0565b602082019050919050565b60006020820190508181036000830152614115816140d9565b9050919050565b7f5768792061726520796f75206d696e74696e67206c657373207468616e207a6560008201527f726f20626f79732e000000000000000000000000000000000000000000000000602082015250565b60006141786028836136a2565b91506141838261411c565b604082019050919050565b600060208201905081810360008301526141a78161416b565b9050919050565b7f4e487b7100000000000000000000000000000000000000000000000000000000600052602160045260246000fd5b7f596f7520617265206e6f7420612077686974656c6973746564206d656d62657260008201527f2021000000000000000000000000000000000000000000000000000000000000602082015250565b60006142396022836136a2565b9150614244826141dd565b604082019050919050565b600060208201905081810360008301526142688161422c565b9050919050565b7f596f7520617265206d696e74696e67206d6f7265207468616e20796f7572206160008201527f6c6c6f7765642070726573616c6520626f797321000000000000000000000000602082015250565b60006142cb6034836136a2565b91506142d68261426f565b604082019050919050565b600060208201905081810360008301526142fa816142be565b9050919050565b7f4f6e6c792031302c30303020626f79732061726520617661696c61626c650000600082015250565b6000614337601e836136a2565b915061434282614301565b602082019050919050565b600060208201905081810360008301526143668161432a565b9050919050565b7f43616e6e6f74206d696e742074686973206e756d626572206f6620707265736160008201527f6c6520626f797320696e206f6e6520676f202100000000000000000000000000602082015250565b60006143c96033836136a2565b91506143d48261436d565b604082019050919050565b600060208201905081810360008301526143f8816143bc565b9050919050565b7f455243373231456e756d657261626c653a206f776e657220696e646578206f7560008201527f74206f6620626f756e6473000000000000000000000000000000000000000000602082015250565b600061445b602b836136a2565b9150614466826143ff565b604082019050919050565b6000602082019050818103600083015261448a8161444e565b9050919050565b7f455243373231456e756d657261626c653a20676c6f62616c20696e646578206f60008201527f7574206f6620626f756e64730000000000000000000000000000000000000000602082015250565b60006144ed602c836136a2565b91506144f882614491565b604082019050919050565b6000602082019050818103600083015261451c816144e0565b9050919050565b7f4e487b7100000000000000000000000000000000000000000000000000000000600052603260045260246000fd5b7f4552433732313a206f776e657220717565727920666f72206e6f6e657869737460008201527f656e7420746f6b656e0000000000000000000000000000000000000000000000602082015250565b60006145ae6029836136a2565b91506145b982614552565b604082019050919050565b600060208201905081810360008301526145dd816145a1565b9050919050565b7f4552433732313a2062616c616e636520717565727920666f7220746865207a6560008201527f726f206164647265737300000000000000000000000000000000000000000000602082015250565b6000614640602a836136a2565b915061464b826145e4565b604082019050919050565b6000602082019050818103600083015261466f81614633565b9050919050565b7f4552433732313a20617070726f766520746f2063616c6c657200000000000000600082015250565b60006146ac6019836136a2565b91506146b782614676565b602082019050919050565b600060208201905081810360008301526146db8161469f565b9050919050565b7f4d696e74696e67206973206e6f7420616374697661746564207965742e000000600082015250565b6000614718601d836136a2565b9150614723826146e2565b602082019050919050565b600060208201905081810360008301526147478161470b565b9050919050565b7f43616e6e6f74206d696e742074686973206e756d626572206f6620626f79732060008201527f696e206f6e6520676f2021000000000000000000000000000000000000000000602082015250565b60006147aa602b836136a2565b91506147b58261474e565b604082019050919050565b600060208201905081810360008301526147d98161479d565b9050919050565b7f4552433732314d657461646174613a2055524920717565727920666f72206e6f60008201527f6e6578697374656e7420746f6b656e0000000000000000000000000000000000602082015250565b600061483c602f836136a2565b9150614847826147e0565b604082019050919050565b6000602082019050818103600083015261486b8161482f565b9050919050565b600081905092915050565b600061488882613697565b6148928185614872565b93506148a28185602086016136b3565b80840191505092915050565b60006148ba828561487d565b91506148c6828461487d565b91508190509392505050565b7f4f776e61626c653a206e6577206f776e657220697320746865207a65726f206160008201527f6464726573730000000000000000000000000000000000000000000000000000602082015250565b600061492e6026836136a2565b9150614939826148d2565b604082019050919050565b6000602082019050818103600083015261495d81614921565b9050919050565b7f4552433732313a206f70657261746f7220717565727920666f72206e6f6e657860008201527f697374656e7420746f6b656e0000000000000000000000000000000000000000602082015250565b60006149c0602c836136a2565b91506149cb82614964565b604082019050919050565b600060208201905081810360008301526149ef816149b3565b9050919050565b7f4552433732313a207472616e73666572206f6620746f6b656e2074686174206960008201527f73206e6f74206f776e0000000000000000000000000000000000000000000000602082015250565b6000614a526029836136a2565b9150614a5d826149f6565b604082019050919050565b60006020820190508181036000830152614a8181614a45565b9050919050565b7f4552433732313a207472616e7366657220746f20746865207a65726f2061646460008201527f7265737300000000000000000000000000000000000000000000000000000000602082015250565b6000614ae46024836136a2565b9150614aef82614a88565b604082019050919050565b60006020820190508181036000830152614b1381614ad7565b9050919050565b6000614b2582613634565b9150614b3083613634565b925082821015614b4357614b42613d8f565b5b828203905092915050565b6000614b5982613634565b9150614b6483613634565b9250827fffffffffffffffffffffffffffffffffffffffffffffffffffffffffffffffff03821115614b9957614b98613d8f565b5b828201905092915050565b6000614baf82613634565b9150614bba83613634565b9250817fffffffffffffffffffffffffffffffffffffffffffffffffffffffffffffffff0483118215151615614bf357614bf2613d8f565b5b828202905092915050565b7f4e487b7100000000000000000000000000000000000000000000000000000000600052601260045260246000fd5b6000614c3882613634565b9150614c4383613634565b925082614c5357614c52614bfe565b5b828204905092915050565b7f4552433732313a207472616e7366657220746f206e6f6e20455243373231526560008201527f63656976657220696d706c656d656e7465720000000000000000000000000000602082015250565b6000614cba6032836136a2565b9150614cc582614c5e565b604082019050919050565b60006020820190508181036000830152614ce981614cad565b9050919050565b6000614cfb82613634565b9150614d0683613634565b925082614d1657614d15614bfe565b5b828206905092915050565b600081519050919050565b600082825260208201905092915050565b6000614d4882614d21565b614d528185614d2c565b9350614d628185602086016136b3565b614d6b816136e6565b840191505092915050565b6000608082019050614d8b6000830187613784565b614d986020830186613784565b614da5604083018561381a565b8181036060830152614db78184614d3d565b905095945050505050565b600081519050614dd1816135a5565b92915050565b600060208284031215614ded57614dec61356f565b5b6000614dfb84828501614dc2565b91505092915050565b7f4552433732313a206d696e7420746f20746865207a65726f2061646472657373600082015250565b6000614e3a6020836136a2565b9150614e4582614e04565b602082019050919050565b60006020820190508181036000830152614e6981614e2d565b9050919050565b7f4552433732313a20746f6b656e20616c7265616479206d696e74656400000000600082015250565b6000614ea6601c836136a2565b9150614eb182614e70565b602082019050919050565b60006020820190508181036000830152614ed581614e99565b9050919050565b7f4e487b7100000000000000000000000000000000000000000000000000000000600052603160045260246000fdfea2646970667358221220502e077bffa5ccf97e1da5ba1891526a4cce213a13844360f81c4b26688ca56064736f6c634300080b0033",
  "immutableReferences": {},
  "source": "// SPDX-License-Identifier: MIT\n\n\npragma solidity ^0.8.0;\n\nimport \"@openzeppelin/contracts/access/Ownable.sol\";\nimport \"@openzeppelin/contracts/token/ERC721/extensions/ERC721Enumerable.sol\";\nimport \"@openzeppelin/contracts/utils/Strings.sol\";\nimport \"@openzeppelin/contracts/utils/math/SafeMath.sol\";\n\n \ncontract LostBoyTest is ERC721Enumerable, Ownable {\n\n    using SafeMath for uint256;\n\n    // Private members\n    enum MemberClaimStatus { Invalid, Listed }                                  // Members, listed? \n    mapping (address => MemberClaimStatus) private _whiteListedMembers;         // Whitelisted members for presale\n    mapping (address => uint256) private _whiteListMints;                       // Whitelisted mints per address\n    string private m_BaseURI = \"\";                                              // Base URI\n\n    // Supply / sale variables\n    uint256 public MAX_LOSTBOYS = 10000;                                        // Maximum supply\n    uint256 public MAX_PRESALE_BOYS_PER_ADDRESS = 50;                           // Total maximum boys for whitelisted wallet\n    uint256 public lostBoyPrice = 50000000000000000;                            // 0.05 ETH\n\n    // Per TX\n    uint public maxBoysPerMint = 15;                                            // Max lostboys in one go !\n    uint public maxBoysPerPresaleMint = 25;                                     // Max pre-sale lostboys in one go !\n\n    // Active?!\n    bool public mintingActive = false;                                          // Minting active\n    bool public isPresaleActive = false;                                        // Presale active\n\n    // Provenance\n    string public provenanceHash = \"\";                                          // Provencance, data integrity\n\n    // Donation\n    uint public donationPercentage = 10;                                        // Percent to donate to charity wallet\n    address public donationWallet = 0x9715f6a7510AA98D4F8eB8E17C9e01859a05937A; // The charity wallet all donations will go to when balance is withdrawn\n\n    constructor(\n        string memory name,\n        string memory symbol,\n        string memory baseURI\n    ) ERC721(name, symbol) {\n        m_BaseURI = baseURI;\n    }\n\n    // withdrawBalance\n    //  -   Withdraws balance to contract owner\n    //  -   Automatic withdrawal of donation \n    function withdrawBalance() public onlyOwner {\n        // Get the total balance\n        uint256 balance = address(this).balance;\n\n        // Get share to send to donation wallet (10 % charity donation)\n        uint256 donationShare = balance.mul(donationPercentage).div(100);\n        uint256 ownerShare = balance.sub(donationShare);\n        \n        // Transfer respective amounts\n        payable(msg.sender).transfer(ownerShare);\n        payable(donationWallet).transfer(donationShare);\n    }\n\n    // reserveBoys\n    //  -   Reserves lostboys for owner\n    //  -   Used for giveaways/etc\n    function reserveBoys(uint256 quantity) public onlyOwner {\n        for(uint i = 0; i < quantity; i++) {\n            uint mintIndex = totalSupply();\n            if (mintIndex < MAX_LOSTBOYS) {\n                _safeMint(msg.sender, mintIndex);\n            }\n        }\n    }\n\n    // Mint boy\n    //  -   Mints lostboys by quantities\n    function mintBoy(uint numberOfBoys) public payable  {\n        require(mintingActive, \"Minting is not activated yet.\");\n        require(numberOfBoys > 0, \"Why are you minting less than zero boys.\");\n        require(\n            totalSupply().add(numberOfBoys) <= MAX_LOSTBOYS,\n            'Only 10,000 boys are available'\n        );\n        require(numberOfBoys <= maxBoysPerMint, \"Cannot mint this number of boys in one go !\");\n        // require(lostBoyPrice.mul(numberOfBoys) <= msg.value, 'Ethereum sent is not sufficient.');\n\n        for(uint i = 0; i < numberOfBoys; i++) {\n            uint mintIndex = totalSupply();\n            if (totalSupply() < MAX_LOSTBOYS) {\n                _safeMint(msg.sender, mintIndex);\n            }\n        }\n    }\n    \n    // mintBoyAsMember\n    //  -   Mints lostboy as whitelisted member\n     function mintBoyAsMember(uint numberOfBoys) public payable {\n        require(isPresaleActive, \"Presale is not active yet.\");\n        require(numberOfBoys > 0, \"Why are you minting less than zero boys.\");\n        require(_whiteListedMembers[msg.sender] == MemberClaimStatus.Listed, \"You are not a whitelisted member !\");\n        require(_whiteListMints[msg.sender].add(numberOfBoys) <= MAX_PRESALE_BOYS_PER_ADDRESS, \"You are minting more than your allowed presale boys!\");\n        require(totalSupply().add(numberOfBoys) <= MAX_LOSTBOYS, \"Only 10,000 boys are available\");\n        require(numberOfBoys <= maxBoysPerPresaleMint, \"Cannot mint this number of presale boys in one go !\");\n        // require(lostBoyPrice.mul(numberOfBoys) <= msg.value, 'Ethereum sent is not sufficient.');\n        \n        for(uint i = 0; i < numberOfBoys; i++) {\n            uint mintIndex = totalSupply();\n            if (totalSupply() < MAX_LOSTBOYS) {\n                _safeMint(msg.sender, mintIndex);\n                _whiteListMints[msg.sender] = _whiteListMints[msg.sender].add(1);\n            }\n        }\n    }\n\n    // addToWhitelist\n    //  -   Adds discord/invited members to presale whitelist\n    function addToWhitelist(address[] memory members) public onlyOwner {\n        for (uint256 i = 0; i < members.length; i++) {\n            _whiteListedMembers[members[i]] = MemberClaimStatus.Listed;\n            _whiteListMints[members[i]] = 0;\n        }\n    }\n\n    // isWhitelisted\n    //  -   Public helper to check if an address is whitelisted\n    function isWhitelisted (address addr) public view returns (bool) {\n        return _whiteListedMembers[addr] == MemberClaimStatus.Listed;\n    }\n\n    // setDonationAddress\n    //  -   Emergency function to update the donation charity wallet in case\n    function setCharityWalletAddress (address charityAddress) public onlyOwner {\n        donationWallet = charityAddress;\n    }\n\n    // switchMinting\n    //  -   Allows, disallows minting\n    function switchMinting() public onlyOwner {\n        mintingActive = !mintingActive;\n    }\n\n    // switchPresale\n    //  -   Allows, disallows presale\n    function switchPresale() public onlyOwner {\n        isPresaleActive = !isPresaleActive;\n    }\n\n    // setMaxQuantityPerMint\n    //  -   Sets the maximum mints per tx\n    function setMaxQuantityPerMint (uint256 quantity) public onlyOwner {\n        maxBoysPerMint = quantity;\n    }\n\n     // setMaxQuantityPerPresaleMint\n    //  -   Sets the maximum mints per tx for presale\n    function setMaxQuantityPerPresaleMint (uint256 quantity) public onlyOwner {\n        maxBoysPerPresaleMint = quantity;\n    }\n    \n    // setPresaleMaxPerWallet\n    //  -   Emergency function to update the max per presale wallet\n    function setMaxPerPresaleWallet (uint256 quantity) public onlyOwner {\n        MAX_PRESALE_BOYS_PER_ADDRESS = quantity;\n    }\n    \n    // setBaseURI\n    //  -  Metadata lives here\n    function setBaseURI(string memory baseURI) external onlyOwner() {\n        m_BaseURI = baseURI;\n    }\n\n    // _baseURI\n    function _baseURI() internal view override returns (string memory) {\n        return m_BaseURI;\n    }\n\n    // setProvenance\n    //  -   Provenance for data integrity\n    function setProvenance(string memory _provenance)\n        external\n        onlyOwner\n    {\n        provenanceHash = _provenance;\n    }\n\n}\n",
  "sourcePath": "/home/maulik/Desktop/Solidity/lostb_erc20/contract/contracts/LostBoyTest.sol",
  "compiler": {
    "name": "solc",
    "version": "0.8.11+commit.d7f03943.Emscripten.clang"
  },
  "schemaVersion": "3.4.3",
  "updatedAt": "2022-02-02T06:55:10.309Z",
  "devdoc": {
    "kind": "dev",
    "methods": {
      "approve(address,uint256)": {
        "details": "See {IERC721-approve}."
      },
      "balanceOf(address)": {
        "details": "See {IERC721-balanceOf}."
      },
      "getApproved(uint256)": {
        "details": "See {IERC721-getApproved}."
      },
      "isApprovedForAll(address,address)": {
        "details": "See {IERC721-isApprovedForAll}."
      },
      "name()": {
        "details": "See {IERC721Metadata-name}."
      },
      "owner()": {
        "details": "Returns the address of the current owner."
      },
      "ownerOf(uint256)": {
        "details": "See {IERC721-ownerOf}."
      },
      "renounceOwnership()": {
        "details": "Leaves the contract without owner. It will not be possible to call `onlyOwner` functions anymore. Can only be called by the current owner. NOTE: Renouncing ownership will leave the contract without an owner, thereby removing any functionality that is only available to the owner."
      },
      "safeTransferFrom(address,address,uint256)": {
        "details": "See {IERC721-safeTransferFrom}."
      },
      "safeTransferFrom(address,address,uint256,bytes)": {
        "details": "See {IERC721-safeTransferFrom}."
      },
      "setApprovalForAll(address,bool)": {
        "details": "See {IERC721-setApprovalForAll}."
      },
      "supportsInterface(bytes4)": {
        "details": "See {IERC165-supportsInterface}."
      },
      "symbol()": {
        "details": "See {IERC721Metadata-symbol}."
      },
      "tokenByIndex(uint256)": {
        "details": "See {IERC721Enumerable-tokenByIndex}."
      },
      "tokenOfOwnerByIndex(address,uint256)": {
        "details": "See {IERC721Enumerable-tokenOfOwnerByIndex}."
      },
      "tokenURI(uint256)": {
        "details": "See {IERC721Metadata-tokenURI}."
      },
      "totalSupply()": {
        "details": "See {IERC721Enumerable-totalSupply}."
      },
      "transferFrom(address,address,uint256)": {
        "details": "See {IERC721-transferFrom}."
      },
      "transferOwnership(address)": {
        "details": "Transfers ownership of the contract to a new account (`newOwner`). Can only be called by the current owner."
      }
    },
    "version": 1
  },
  "userdoc": {
    "kind": "user",
    "methods": {},
    "version": 1
  }
}