{
  "contractName": "Lostgirl",
  "abi": [
    {
      "inputs": [
        {
          "internalType": "string",
          "name": "_name",
          "type": "string"
        },
        {
          "internalType": "string",
          "name": "_symbol",
          "type": "string"
        },
        {
          "internalType": "string",
          "name": "_uri",
          "type": "string"
        }
      ],
      "stateMutability": "nonpayable",
      "type": "constructor"
    },
    {
      "anonymous": false,
      "inputs": [
        {
          "indexed": true,
          "internalType": "address",
          "name": "owner",
          "type": "address"
        },
        {
          "indexed": true,
          "internalType": "address",
          "name": "approved",
          "type": "address"
        },
        {
          "indexed": true,
          "internalType": "uint256",
          "name": "tokenId",
          "type": "uint256"
        }
      ],
      "name": "Approval",
      "type": "event"
    },
    {
      "anonymous": false,
      "inputs": [
        {
          "indexed": true,
          "internalType": "address",
          "name": "owner",
          "type": "address"
        },
        {
          "indexed": true,
          "internalType": "address",
          "name": "operator",
          "type": "address"
        },
        {
          "indexed": false,
          "internalType": "bool",
          "name": "approved",
          "type": "bool"
        }
      ],
      "name": "ApprovalForAll",
      "type": "event"
    },
    {
      "anonymous": false,
      "inputs": [
        {
          "indexed": true,
          "internalType": "uint256",
          "name": "tokenId",
          "type": "uint256"
        },
        {
          "indexed": false,
          "internalType": "string",
          "name": "bio",
          "type": "string"
        }
      ],
      "name": "BioChange",
      "type": "event"
    },
    {
      "anonymous": false,
      "inputs": [
        {
          "indexed": true,
          "internalType": "uint256",
          "name": "tokenId",
          "type": "uint256"
        },
        {
          "indexed": false,
          "internalType": "string",
          "name": "newName",
          "type": "string"
        }
      ],
      "name": "NameChange",
      "type": "event"
    },
    {
      "anonymous": false,
      "inputs": [
        {
          "indexed": true,
          "internalType": "address",
          "name": "previousOwner",
          "type": "address"
        },
        {
          "indexed": true,
          "internalType": "address",
          "name": "newOwner",
          "type": "address"
        }
      ],
      "name": "OwnershipTransferred",
      "type": "event"
    },
    {
      "anonymous": false,
      "inputs": [
        {
          "indexed": true,
          "internalType": "address",
          "name": "from",
          "type": "address"
        },
        {
          "indexed": true,
          "internalType": "address",
          "name": "to",
          "type": "address"
        },
        {
          "indexed": true,
          "internalType": "uint256",
          "name": "tokenId",
          "type": "uint256"
        }
      ],
      "name": "Transfer",
      "type": "event"
    },
    {
      "inputs": [
        {
          "internalType": "address",
          "name": "to",
          "type": "address"
        },
        {
          "internalType": "uint256",
          "name": "tokenId",
          "type": "uint256"
        }
      ],
      "name": "approve",
      "outputs": [],
      "stateMutability": "nonpayable",
      "type": "function"
    },
    {
      "inputs": [
        {
          "internalType": "address",
          "name": "owner",
          "type": "address"
        }
      ],
      "name": "balanceOf",
      "outputs": [
        {
          "internalType": "uint256",
          "name": "",
          "type": "uint256"
        }
      ],
      "stateMutability": "view",
      "type": "function"
    },
    {
      "inputs": [],
      "name": "bioChangePrice",
      "outputs": [
        {
          "internalType": "uint256",
          "name": "",
          "type": "uint256"
        }
      ],
      "stateMutability": "view",
      "type": "function"
    },
    {
      "inputs": [
        {
          "internalType": "uint256",
          "name": "_tokenId",
          "type": "uint256"
        },
        {
          "internalType": "string",
          "name": "_bio",
          "type": "string"
        }
      ],
      "name": "changeBio",
      "outputs": [],
      "stateMutability": "nonpayable",
      "type": "function"
    },
    {
      "inputs": [
        {
          "internalType": "uint256",
          "name": "tokenId",
          "type": "uint256"
        },
        {
          "internalType": "string",
          "name": "newName",
          "type": "string"
        }
      ],
      "name": "changeName",
      "outputs": [],
      "stateMutability": "nonpayable",
      "type": "function"
    },
    {
      "inputs": [],
      "name": "claimingEnabled",
      "outputs": [
        {
          "internalType": "bool",
          "name": "",
          "type": "bool"
        }
      ],
      "stateMutability": "view",
      "type": "function"
    },
    {
      "inputs": [
        {
          "internalType": "address",
          "name": "",
          "type": "address"
        }
      ],
      "name": "claims",
      "outputs": [
        {
          "internalType": "uint256",
          "name": "",
          "type": "uint256"
        }
      ],
      "stateMutability": "view",
      "type": "function"
    },
    {
      "inputs": [
        {
          "internalType": "uint256",
          "name": "tokenId",
          "type": "uint256"
        }
      ],
      "name": "getApproved",
      "outputs": [
        {
          "internalType": "address",
          "name": "",
          "type": "address"
        }
      ],
      "stateMutability": "view",
      "type": "function"
    },
    {
      "inputs": [
        {
          "internalType": "address",
          "name": "owner",
          "type": "address"
        },
        {
          "internalType": "address",
          "name": "operator",
          "type": "address"
        }
      ],
      "name": "isApprovedForAll",
      "outputs": [
        {
          "internalType": "bool",
          "name": "",
          "type": "bool"
        }
      ],
      "stateMutability": "view",
      "type": "function"
    },
    {
      "inputs": [
        {
          "internalType": "string",
          "name": "nameString",
          "type": "string"
        }
      ],
      "name": "isNameReserved",
      "outputs": [
        {
          "internalType": "bool",
          "name": "",
          "type": "bool"
        }
      ],
      "stateMutability": "view",
      "type": "function"
    },
    {
      "inputs": [],
      "name": "name",
      "outputs": [
        {
          "internalType": "string",
          "name": "",
          "type": "string"
        }
      ],
      "stateMutability": "view",
      "type": "function"
    },
    {
      "inputs": [],
      "name": "nameChangePrice",
      "outputs": [
        {
          "internalType": "uint256",
          "name": "",
          "type": "uint256"
        }
      ],
      "stateMutability": "view",
      "type": "function"
    },
    {
      "inputs": [],
      "name": "owner",
      "outputs": [
        {
          "internalType": "address",
          "name": "",
          "type": "address"
        }
      ],
      "stateMutability": "view",
      "type": "function"
    },
    {
      "inputs": [
        {
          "internalType": "uint256",
          "name": "tokenId",
          "type": "uint256"
        }
      ],
      "name": "ownerOf",
      "outputs": [
        {
          "internalType": "address",
          "name": "",
          "type": "address"
        }
      ],
      "stateMutability": "view",
      "type": "function"
    },
    {
      "inputs": [],
      "name": "renounceOwnership",
      "outputs": [],
      "stateMutability": "nonpayable",
      "type": "function"
    },
    {
      "inputs": [
        {
          "internalType": "address",
          "name": "from",
          "type": "address"
        },
        {
          "internalType": "address",
          "name": "to",
          "type": "address"
        },
        {
          "internalType": "uint256",
          "name": "tokenId",
          "type": "uint256"
        }
      ],
      "name": "safeTransferFrom",
      "outputs": [],
      "stateMutability": "nonpayable",
      "type": "function"
    },
    {
      "inputs": [
        {
          "internalType": "address",
          "name": "from",
          "type": "address"
        },
        {
          "internalType": "address",
          "name": "to",
          "type": "address"
        },
        {
          "internalType": "uint256",
          "name": "tokenId",
          "type": "uint256"
        },
        {
          "internalType": "bytes",
          "name": "_data",
          "type": "bytes"
        }
      ],
      "name": "safeTransferFrom",
      "outputs": [],
      "stateMutability": "nonpayable",
      "type": "function"
    },
    {
      "inputs": [
        {
          "internalType": "address",
          "name": "operator",
          "type": "address"
        },
        {
          "internalType": "bool",
          "name": "approved",
          "type": "bool"
        }
      ],
      "name": "setApprovalForAll",
      "outputs": [],
      "stateMutability": "nonpayable",
      "type": "function"
    },
    {
      "inputs": [
        {
          "internalType": "bytes4",
          "name": "interfaceId",
          "type": "bytes4"
        }
      ],
      "name": "supportsInterface",
      "outputs": [
        {
          "internalType": "bool",
          "name": "",
          "type": "bool"
        }
      ],
      "stateMutability": "view",
      "type": "function"
    },
    {
      "inputs": [],
      "name": "symbol",
      "outputs": [
        {
          "internalType": "string",
          "name": "",
          "type": "string"
        }
      ],
      "stateMutability": "view",
      "type": "function"
    },
    {
      "inputs": [
        {
          "internalType": "string",
          "name": "str",
          "type": "string"
        }
      ],
      "name": "toLower",
      "outputs": [
        {
          "internalType": "string",
          "name": "",
          "type": "string"
        }
      ],
      "stateMutability": "pure",
      "type": "function"
    },
    {
      "inputs": [
        {
          "internalType": "uint256",
          "name": "index",
          "type": "uint256"
        }
      ],
      "name": "tokenBioByIndex",
      "outputs": [
        {
          "internalType": "string",
          "name": "",
          "type": "string"
        }
      ],
      "stateMutability": "view",
      "type": "function"
    },
    {
      "inputs": [
        {
          "internalType": "uint256",
          "name": "index",
          "type": "uint256"
        }
      ],
      "name": "tokenByIndex",
      "outputs": [
        {
          "internalType": "uint256",
          "name": "",
          "type": "uint256"
        }
      ],
      "stateMutability": "view",
      "type": "function"
    },
    {
      "inputs": [],
      "name": "tokenEnabled",
      "outputs": [
        {
          "internalType": "bool",
          "name": "",
          "type": "bool"
        }
      ],
      "stateMutability": "view",
      "type": "function"
    },
    {
      "inputs": [
        {
          "internalType": "uint256",
          "name": "index",
          "type": "uint256"
        }
      ],
      "name": "tokenNameByIndex",
      "outputs": [
        {
          "internalType": "string",
          "name": "",
          "type": "string"
        }
      ],
      "stateMutability": "view",
      "type": "function"
    },
    {
      "inputs": [
        {
          "internalType": "address",
          "name": "owner",
          "type": "address"
        },
        {
          "internalType": "uint256",
          "name": "index",
          "type": "uint256"
        }
      ],
      "name": "tokenOfOwnerByIndex",
      "outputs": [
        {
          "internalType": "uint256",
          "name": "",
          "type": "uint256"
        }
      ],
      "stateMutability": "view",
      "type": "function"
    },
    {
      "inputs": [
        {
          "internalType": "uint256",
          "name": "tokenId",
          "type": "uint256"
        }
      ],
      "name": "tokenURI",
      "outputs": [
        {
          "internalType": "string",
          "name": "",
          "type": "string"
        }
      ],
      "stateMutability": "view",
      "type": "function"
    },
    {
      "inputs": [],
      "name": "totalSupply",
      "outputs": [
        {
          "internalType": "uint256",
          "name": "",
          "type": "uint256"
        }
      ],
      "stateMutability": "view",
      "type": "function"
    },
    {
      "inputs": [
        {
          "internalType": "address",
          "name": "from",
          "type": "address"
        },
        {
          "internalType": "address",
          "name": "to",
          "type": "address"
        },
        {
          "internalType": "uint256",
          "name": "tokenId",
          "type": "uint256"
        }
      ],
      "name": "transferFrom",
      "outputs": [],
      "stateMutability": "nonpayable",
      "type": "function"
    },
    {
      "inputs": [
        {
          "internalType": "address",
          "name": "newOwner",
          "type": "address"
        }
      ],
      "name": "transferOwnership",
      "outputs": [],
      "stateMutability": "nonpayable",
      "type": "function"
    },
    {
      "inputs": [
        {
          "internalType": "string",
          "name": "str",
          "type": "string"
        }
      ],
      "name": "validateName",
      "outputs": [
        {
          "internalType": "bool",
          "name": "",
          "type": "bool"
        }
      ],
      "stateMutability": "pure",
      "type": "function"
    },
    {
      "inputs": [],
      "name": "toggleClaim",
      "outputs": [],
      "stateMutability": "nonpayable",
      "type": "function"
    },
    {
      "inputs": [],
      "name": "toggleToken",
      "outputs": [],
      "stateMutability": "nonpayable",
      "type": "function"
    },
    {
      "inputs": [
        {
          "internalType": "bytes32",
          "name": "_merkle",
          "type": "bytes32"
        }
      ],
      "name": "setSnapshotRoot",
      "outputs": [],
      "stateMutability": "nonpayable",
      "type": "function"
    },
    {
      "inputs": [
        {
          "internalType": "uint256",
          "name": "_price",
          "type": "uint256"
        }
      ],
      "name": "updateNameChangePrice",
      "outputs": [],
      "stateMutability": "nonpayable",
      "type": "function"
    },
    {
      "inputs": [
        {
          "internalType": "uint256",
          "name": "_price",
          "type": "uint256"
        }
      ],
      "name": "updateBioChangePrice",
      "outputs": [],
      "stateMutability": "nonpayable",
      "type": "function"
    },
    {
      "inputs": [
        {
          "internalType": "string",
          "name": "_uri",
          "type": "string"
        }
      ],
      "name": "setBaseURI",
      "outputs": [],
      "stateMutability": "nonpayable",
      "type": "function"
    },
    {
      "inputs": [
        {
          "internalType": "uint256",
          "name": "_numLostgirls",
          "type": "uint256"
        }
      ],
      "name": "ownerCollect",
      "outputs": [],
      "stateMutability": "nonpayable",
      "type": "function"
    },
    {
      "inputs": [
        {
          "internalType": "uint256",
          "name": "_numLostgirls",
          "type": "uint256"
        }
      ],
      "name": "claim",
      "outputs": [],
      "stateMutability": "nonpayable",
      "type": "function"
    }
  ],
  "bytecode": "0x6080604052681b1ae4d6e2ef500000600b55681b1ae4d6e2ef500000600c556000601060006101000a81548160ff0219169083151502179055506000601060016101000a81548160ff0219169083151502179055506000601255604051806020016040528060008152506013908051906020019062000080929190620001fe565b503480156200008e57600080fd5b5060405162005195380380620051958339818101604052810190620000b491906200044b565b828281818160009080519060200190620000d0929190620001fe565b508060019080519060200190620000e9929190620001fe565b5050506200010c620001006200013060201b60201c565b6200013860201b60201c565b5050806013908051906020019062000126929190620001fe565b5050505062000569565b600033905090565b6000600a60009054906101000a900473ffffffffffffffffffffffffffffffffffffffff16905081600a60006101000a81548173ffffffffffffffffffffffffffffffffffffffff021916908373ffffffffffffffffffffffffffffffffffffffff1602179055508173ffffffffffffffffffffffffffffffffffffffff168173ffffffffffffffffffffffffffffffffffffffff167f8be0079c531659141344cd1fd0a4f28419497f9722a3daafe3b4186f6b6457e060405160405180910390a35050565b8280546200020c9062000533565b90600052602060002090601f0160209004810192826200023057600085556200027c565b82601f106200024b57805160ff19168380011785556200027c565b828001600101855582156200027c579182015b828111156200027b5782518255916020019190600101906200025e565b5b5090506200028b91906200028f565b5090565b5b80821115620002aa57600081600090555060010162000290565b5090565b6000604051905090565b600080fd5b600080fd5b600080fd5b600080fd5b6000601f19601f8301169050919050565b7f4e487b7100000000000000000000000000000000000000000000000000000000600052604160045260246000fd5b6200031782620002cc565b810181811067ffffffffffffffff82111715620003395762000338620002dd565b5b80604052505050565b60006200034e620002ae565b90506200035c82826200030c565b919050565b600067ffffffffffffffff8211156200037f576200037e620002dd565b5b6200038a82620002cc565b9050602081019050919050565b60005b83811015620003b75780820151818401526020810190506200039a565b83811115620003c7576000848401525b50505050565b6000620003e4620003de8462000361565b62000342565b905082815260208101848484011115620004035762000402620002c7565b5b6200041084828562000397565b509392505050565b600082601f83011262000430576200042f620002c2565b5b815162000442848260208601620003cd565b91505092915050565b600080600060608486031215620004675762000466620002b8565b5b600084015167ffffffffffffffff811115620004885762000487620002bd565b5b620004968682870162000418565b935050602084015167ffffffffffffffff811115620004ba57620004b9620002bd565b5b620004c88682870162000418565b925050604084015167ffffffffffffffff811115620004ec57620004eb620002bd565b5b620004fa8682870162000418565b9150509250925092565b7f4e487b7100000000000000000000000000000000000000000000000000000000600052602260045260246000fd5b600060028204905060018216806200054c57607f821691505b6020821081141562000563576200056262000504565b5b50919050565b614c1c80620005796000396000f3fe608060405234801561001057600080fd5b506004361061023d5760003560e01c806355f804b31161013b57806395d89b41116100b8578063c6788bdd1161007c578063c6788bdd146106c2578063c87b56dd146106f2578063d112974514610722578063e985e9c51461072c578063f2fde38b1461075c5761023d565b806395d89b41146106205780639ffdb65a1461063e578063a22cb4651461066e578063b88d4fde1461068a578063c39cbef1146106a65761023d565b806370a08231116100ff57806370a082311461057c578063715018a6146105ac5780637b73be21146105b65780638da5cb5b146105d25780639416b423146105f05761023d565b806355f804b3146104b257806359f2f897146104ce5780635d9d65c1146104fe5780636352211e1461051c5780636d5224181461054c5761023d565b806323b872dd116101c95780634d4265281161018d5780634d426528146104245780634f6ccce71461044057806351620572146104705780635209f5371461048c57806354cf35ed146104965761023d565b806323b872dd146103825780632f745c591461039e578063379607f5146103ce57806342842e0e146103ea57806345ca7738146104065761023d565b80630de1d215116102105780630de1d215146102dc5780630e141a9b146102f85780630ebe88471461031657806315b56d101461033457806318160ddd146103645761023d565b806301ffc9a71461024257806306fdde0314610272578063081812fc14610290578063095ea7b3146102c0575b600080fd5b61025c60048036038101906102579190613434565b610778565b604051610269919061347c565b60405180910390f35b61027a61078a565b6040516102879190613530565b60405180910390f35b6102aa60048036038101906102a59190613588565b61081c565b6040516102b791906135f6565b60405180910390f35b6102da60048036038101906102d5919061363d565b6108a1565b005b6102f660048036038101906102f19190613588565b6109b9565b005b610300610a79565b60405161030d919061347c565b60405180910390f35b61031e610a8c565b60405161032b919061368c565b60405180910390f35b61034e600480360381019061034991906137dc565b610a92565b60405161035b919061347c565b60405180910390f35b61036c610acf565b604051610379919061368c565b60405180910390f35b61039c60048036038101906103979190613825565b610adc565b005b6103b860048036038101906103b3919061363d565b610b3c565b6040516103c5919061368c565b60405180910390f35b6103e860048036038101906103e39190613588565b610be1565b005b61040460048036038101906103ff9190613825565b610c25565b005b61040e610c45565b60405161041b919061368c565b60405180910390f35b61043e60048036038101906104399190613878565b610c4b565b005b61045a60048036038101906104559190613588565b610d32565b604051610467919061368c565b60405180910390f35b61048a6004803603810190610485919061390a565b610da3565b005b610494610e29565b005b6104b060048036038101906104ab9190613588565b610ed1565b005b6104cc60048036038101906104c791906137dc565b610f57565b005b6104e860048036038101906104e39190613588565b610fed565b6040516104f59190613530565b60405180910390f35b610506611092565b604051610513919061347c565b60405180910390f35b61053660048036038101906105319190613588565b6110a5565b60405161054391906135f6565b60405180910390f35b61056660048036038101906105619190613588565b611157565b6040516105739190613530565b60405180910390f35b61059660048036038101906105919190613937565b6111fc565b6040516105a3919061368c565b60405180910390f35b6105b46112b4565b005b6105d060048036038101906105cb9190613588565b61133c565b005b6105da6113c2565b6040516105e791906135f6565b60405180910390f35b61060a600480360381019061060591906137dc565b6113ec565b6040516106179190613530565b60405180910390f35b6106286115a4565b6040516106359190613530565b60405180910390f35b610658600480360381019061065391906137dc565b611636565b604051610665919061347c565b60405180910390f35b61068860048036038101906106839190613990565b611968565b005b6106a4600480360381019061069f9190613a71565b611ae9565b005b6106c060048036038101906106bb9190613878565b611b4b565b005b6106dc60048036038101906106d79190613937565b611e9d565b6040516106e9919061368c565b60405180910390f35b61070c60048036038101906107079190613588565b611eb5565b6040516107199190613530565b60405180910390f35b61072a611f5c565b005b61074660048036038101906107419190613af4565b612004565b604051610753919061347c565b60405180910390f35b61077660048036038101906107719190613937565b612098565b005b600061078382612190565b9050919050565b60606000805461079990613b63565b80601f01602080910402602001604051908101604052809291908181526020018280546107c590613b63565b80156108125780601f106107e757610100808354040283529160200191610812565b820191906000526020600020905b8154815290600101906020018083116107f557829003601f168201915b5050505050905090565b60006108278261220a565b610866576040517f08c379a000000000000000000000000000000000000000000000000000000000815260040161085d90613c07565b60405180910390fd5b6004600083815260200190815260200160002060009054906101000a900473ffffffffffffffffffffffffffffffffffffffff169050919050565b60006108ac826110a5565b90508073ffffffffffffffffffffffffffffffffffffffff168373ffffffffffffffffffffffffffffffffffffffff16141561091d576040517f08c379a000000000000000000000000000000000000000000000000000000000815260040161091490613c99565b60405180910390fd5b8073ffffffffffffffffffffffffffffffffffffffff1661093c612276565b73ffffffffffffffffffffffffffffffffffffffff16148061096b575061096a81610965612276565b612004565b5b6109aa576040517f08c379a00000000000000000000000000000000000000000000000000000000081526004016109a190613d2b565b60405180910390fd5b6109b4838361227e565b505050565b6109c1612276565b73ffffffffffffffffffffffffffffffffffffffff166109df6113c2565b73ffffffffffffffffffffffffffffffffffffffff1614610a35576040517f08c379a0000000000000000000000000000000000000000000000000000000008152600401610a2c90613d97565b60405180910390fd5b60005b81811015610a75576000610a4a610acf565b9050612710811015610a6157610a603382612337565b5b508080610a6d90613de6565b915050610a38565b5050565b601060009054906101000a900460ff1681565b600c5481565b6000600e610a9f836113ec565b604051610aac9190613e6b565b908152602001604051809103902060009054906101000a900460ff169050919050565b6000600880549050905090565b610aed610ae7612276565b82612355565b610b2c576040517f08c379a0000000000000000000000000000000000000000000000000000000008152600401610b2390613ef4565b60405180910390fd5b610b37838383612433565b505050565b6000610b47836111fc565b8210610b88576040517f08c379a0000000000000000000000000000000000000000000000000000000008152600401610b7f90613f86565b60405180910390fd5b600660008473ffffffffffffffffffffffffffffffffffffffff1673ffffffffffffffffffffffffffffffffffffffff168152602001908152602001600020600083815260200190815260200160002054905092915050565b60005b81811015610c21576000610bf6610acf565b9050612710811015610c0d57610c0c3382612337565b5b508080610c1990613de6565b915050610be4565b5050565b610c4083838360405180602001604052806000815250611ae9565b505050565b600b5481565b6000610c56836110a5565b90508073ffffffffffffffffffffffffffffffffffffffff16610c77612276565b73ffffffffffffffffffffffffffffffffffffffff1614610ccd576040517f08c379a0000000000000000000000000000000000000000000000000000000008152600401610cc490613ff2565b60405180910390fd5b81600f60008581526020019081526020016000209080519060200190610cf4929190613325565b50827fbe3e2fc72ea4bd0d860e908b1ee27aa9856809e62a75bfc0cb7f04b5d791873d83604051610d259190613530565b60405180910390a2505050565b6000610d3c610acf565b8210610d7d576040517f08c379a0000000000000000000000000000000000000000000000000000000008152600401610d7490614084565b60405180910390fd5b60088281548110610d9157610d906140a4565b5b90600052602060002001549050919050565b610dab612276565b73ffffffffffffffffffffffffffffffffffffffff16610dc96113c2565b73ffffffffffffffffffffffffffffffffffffffff1614610e1f576040517f08c379a0000000000000000000000000000000000000000000000000000000008152600401610e1690613d97565b60405180910390fd5b8060128190555050565b610e31612276565b73ffffffffffffffffffffffffffffffffffffffff16610e4f6113c2565b73ffffffffffffffffffffffffffffffffffffffff1614610ea5576040517f08c379a0000000000000000000000000000000000000000000000000000000008152600401610e9c90613d97565b60405180910390fd5b601060019054906101000a900460ff1615601060016101000a81548160ff021916908315150217905550565b610ed9612276565b73ffffffffffffffffffffffffffffffffffffffff16610ef76113c2565b73ffffffffffffffffffffffffffffffffffffffff1614610f4d576040517f08c379a0000000000000000000000000000000000000000000000000000000008152600401610f4490613d97565b60405180910390fd5b80600c8190555050565b610f5f612276565b73ffffffffffffffffffffffffffffffffffffffff16610f7d6113c2565b73ffffffffffffffffffffffffffffffffffffffff1614610fd3576040517f08c379a0000000000000000000000000000000000000000000000000000000008152600401610fca90613d97565b60405180910390fd5b8060139080519060200190610fe9929190613325565b5050565b6060600f6000838152602001908152602001600020805461100d90613b63565b80601f016020809104026020016040519081016040528092919081815260200182805461103990613b63565b80156110865780601f1061105b57610100808354040283529160200191611086565b820191906000526020600020905b81548152906001019060200180831161106957829003601f168201915b50505050509050919050565b601060019054906101000a900460ff1681565b6000806002600084815260200190815260200160002060009054906101000a900473ffffffffffffffffffffffffffffffffffffffff169050600073ffffffffffffffffffffffffffffffffffffffff168173ffffffffffffffffffffffffffffffffffffffff16141561114e576040517f08c379a000000000000000000000000000000000000000000000000000000000815260040161114590614145565b60405180910390fd5b80915050919050565b6060600d6000838152602001908152602001600020805461117790613b63565b80601f01602080910402602001604051908101604052809291908181526020018280546111a390613b63565b80156111f05780601f106111c5576101008083540402835291602001916111f0565b820191906000526020600020905b8154815290600101906020018083116111d357829003601f168201915b50505050509050919050565b60008073ffffffffffffffffffffffffffffffffffffffff168273ffffffffffffffffffffffffffffffffffffffff16141561126d576040517f08c379a0000000000000000000000000000000000000000000000000000000008152600401611264906141d7565b60405180910390fd5b600360008373ffffffffffffffffffffffffffffffffffffffff1673ffffffffffffffffffffffffffffffffffffffff168152602001908152602001600020549050919050565b6112bc612276565b73ffffffffffffffffffffffffffffffffffffffff166112da6113c2565b73ffffffffffffffffffffffffffffffffffffffff1614611330576040517f08c379a000000000000000000000000000000000000000000000000000000000815260040161132790613d97565b60405180910390fd5b61133a600061268f565b565b611344612276565b73ffffffffffffffffffffffffffffffffffffffff166113626113c2565b73ffffffffffffffffffffffffffffffffffffffff16146113b8576040517f08c379a00000000000000000000000000000000000000000000000000000000081526004016113af90613d97565b60405180910390fd5b80600b8190555050565b6000600a60009054906101000a900473ffffffffffffffffffffffffffffffffffffffff16905090565b606060008290506000815167ffffffffffffffff8111156114105761140f6136b1565b5b6040519080825280601f01601f1916602001820160405280156114425781602001600182028036833780820191505090505b50905060005b8251811015611599576041838281518110611466576114656140a4565b5b602001015160f81c60f81b60f81c60ff16101580156114a95750605a838281518110611495576114946140a4565b5b602001015160f81c60f81b60f81c60ff1611155b156115255760208382815181106114c3576114c26140a4565b5b602001015160f81c60f81b60f81c6114db9190614204565b60f81b8282815181106114f1576114f06140a4565b5b60200101907effffffffffffffffffffffffffffffffffffffffffffffffffffffffffffff1916908160001a905350611586565b828181518110611538576115376140a4565b5b602001015160f81c60f81b828281518110611556576115556140a4565b5b60200101907effffffffffffffffffffffffffffffffffffffffffffffffffffffffffffff1916908160001a9053505b808061159190613de6565b915050611448565b508092505050919050565b6060600180546115b390613b63565b80601f01602080910402602001604051908101604052809291908181526020018280546115df90613b63565b801561162c5780601f106116015761010080835404028352916020019161162c565b820191906000526020600020905b81548152906001019060200180831161160f57829003601f168201915b5050505050905090565b600080829050600181511015611650576000915050611963565b601981511115611664576000915050611963565b602060f81b8160008151811061167d5761167c6140a4565b5b602001015160f81c60f81b7effffffffffffffffffffffffffffffffffffffffffffffffffffffffffffff191614156116ba576000915050611963565b602060f81b81600183516116ce919061423b565b815181106116df576116de6140a4565b5b602001015160f81c60f81b7effffffffffffffffffffffffffffffffffffffffffffffffffffffffffffff1916141561171c576000915050611963565b600081600081518110611732576117316140a4565b5b602001015160f81c60f81b905060005b825181101561195b5760008382815181106117605761175f6140a4565b5b602001015160f81c60f81b9050602060f81b817effffffffffffffffffffffffffffffffffffffffffffffffffffffffffffff19161480156117c75750602060f81b837effffffffffffffffffffffffffffffffffffffffffffffffffffffffffffff1916145b156117d9576000945050505050611963565b603060f81b817effffffffffffffffffffffffffffffffffffffffffffffffffffffffffffff1916101580156118355750603960f81b817effffffffffffffffffffffffffffffffffffffffffffffffffffffffffffff191611155b15801561189b5750604160f81b817effffffffffffffffffffffffffffffffffffffffffffffffffffffffffffff1916101580156118995750605a60f81b817effffffffffffffffffffffffffffffffffffffffffffffffffffffffffffff191611155b155b80156119005750606160f81b817effffffffffffffffffffffffffffffffffffffffffffffffffffffffffffff1916101580156118fe5750607a60f81b817effffffffffffffffffffffffffffffffffffffffffffffffffffffffffffff191611155b155b80156119325750602060f81b817effffffffffffffffffffffffffffffffffffffffffffffffffffffffffffff191614155b15611944576000945050505050611963565b80925050808061195390613de6565b915050611742565b506001925050505b919050565b611970612276565b73ffffffffffffffffffffffffffffffffffffffff168273ffffffffffffffffffffffffffffffffffffffff1614156119de576040517f08c379a00000000000000000000000000000000000000000000000000000000081526004016119d5906142bb565b60405180910390fd5b80600560006119eb612276565b73ffffffffffffffffffffffffffffffffffffffff1673ffffffffffffffffffffffffffffffffffffffff16815260200190815260200160002060008473ffffffffffffffffffffffffffffffffffffffff1673ffffffffffffffffffffffffffffffffffffffff16815260200190815260200160002060006101000a81548160ff0219169083151502179055508173ffffffffffffffffffffffffffffffffffffffff16611a98612276565b73ffffffffffffffffffffffffffffffffffffffff167f17307eab39ab6107e8899845ad3d59bd9653f200f220920489ca2b5937696c3183604051611add919061347c565b60405180910390a35050565b611afa611af4612276565b83612355565b611b39576040517f08c379a0000000000000000000000000000000000000000000000000000000008152600401611b3090613ef4565b60405180910390fd5b611b4584848484612755565b50505050565b6000611b56836110a5565b90508073ffffffffffffffffffffffffffffffffffffffff16611b77612276565b73ffffffffffffffffffffffffffffffffffffffff1614611bcd576040517f08c379a0000000000000000000000000000000000000000000000000000000008152600401611bc490613ff2565b60405180910390fd5b60011515611bda83611636565b151514611c1c576040517f08c379a0000000000000000000000000000000000000000000000000000000008152600401611c1390614327565b60405180910390fd5b6002600d6000858152602001908152602001600020604051611c3e91906143e6565b602060405180830381855afa158015611c5b573d6000803e3d6000fd5b5050506040513d601f19601f82011682018060405250810190611c7e9190614412565b600283604051611c8e919061447b565b602060405180830381855afa158015611cab573d6000803e3d6000fd5b5050506040513d601f19601f82011682018060405250810190611cce9190614412565b1415611d0f576040517f08c379a0000000000000000000000000000000000000000000000000000000008152600401611d0690614504565b60405180910390fd5b60001515611d1c83610a92565b151514611d5e576040517f08c379a0000000000000000000000000000000000000000000000000000000008152600401611d5590614570565b60405180910390fd5b6000600d60008581526020019081526020016000208054611d7e90613b63565b90501115611e2d57611e2c600d60008581526020019081526020016000208054611da790613b63565b80601f0160208091040260200160405190810160405280929190818152602001828054611dd390613b63565b8015611e205780601f10611df557610100808354040283529160200191611e20565b820191906000526020600020905b815481529060010190602001808311611e0357829003601f168201915b505050505060006127b1565b5b611e388260016127b1565b81600d60008581526020019081526020016000209080519060200190611e5f929190613325565b50827f7e632a301794d8d4a81ea7e20f37d1947158d36e66403af04ba85dd194b66f1b83604051611e909190613530565b60405180910390a2505050565b60116020528060005260406000206000915090505481565b6060611ec08261220a565b611eff576040517f08c379a0000000000000000000000000000000000000000000000000000000008152600401611ef690614602565b60405180910390fd5b6000611f096127f3565b90506000815111611f295760405180602001604052806000815250611f54565b80611f3384612885565b604051602001611f44929190614622565b6040516020818303038152906040525b915050919050565b611f64612276565b73ffffffffffffffffffffffffffffffffffffffff16611f826113c2565b73ffffffffffffffffffffffffffffffffffffffff1614611fd8576040517f08c379a0000000000000000000000000000000000000000000000000000000008152600401611fcf90613d97565b60405180910390fd5b601060009054906101000a900460ff1615601060006101000a81548160ff021916908315150217905550565b6000600560008473ffffffffffffffffffffffffffffffffffffffff1673ffffffffffffffffffffffffffffffffffffffff16815260200190815260200160002060008373ffffffffffffffffffffffffffffffffffffffff1673ffffffffffffffffffffffffffffffffffffffff16815260200190815260200160002060009054906101000a900460ff16905092915050565b6120a0612276565b73ffffffffffffffffffffffffffffffffffffffff166120be6113c2565b73ffffffffffffffffffffffffffffffffffffffff1614612114576040517f08c379a000000000000000000000000000000000000000000000000000000000815260040161210b90613d97565b60405180910390fd5b600073ffffffffffffffffffffffffffffffffffffffff168173ffffffffffffffffffffffffffffffffffffffff161415612184576040517f08c379a000000000000000000000000000000000000000000000000000000000815260040161217b906146b8565b60405180910390fd5b61218d8161268f565b50565b60007f780e9d63000000000000000000000000000000000000000000000000000000007bffffffffffffffffffffffffffffffffffffffffffffffffffffffff1916827bffffffffffffffffffffffffffffffffffffffffffffffffffffffff191614806122035750612202826129e6565b5b9050919050565b60008073ffffffffffffffffffffffffffffffffffffffff166002600084815260200190815260200160002060009054906101000a900473ffffffffffffffffffffffffffffffffffffffff1673ffffffffffffffffffffffffffffffffffffffff1614159050919050565b600033905090565b816004600083815260200190815260200160002060006101000a81548173ffffffffffffffffffffffffffffffffffffffff021916908373ffffffffffffffffffffffffffffffffffffffff160217905550808273ffffffffffffffffffffffffffffffffffffffff166122f1836110a5565b73ffffffffffffffffffffffffffffffffffffffff167f8c5be1e5ebec7d5bd14f71427d1e84f3dd0314c0f7b2291e5b200ac8c7c3b92560405160405180910390a45050565b612351828260405180602001604052806000815250612ac8565b5050565b60006123608261220a565b61239f576040517f08c379a00000000000000000000000000000000000000000000000000000000081526004016123969061474a565b60405180910390fd5b60006123aa836110a5565b90508073ffffffffffffffffffffffffffffffffffffffff168473ffffffffffffffffffffffffffffffffffffffff16148061241957508373ffffffffffffffffffffffffffffffffffffffff166124018461081c565b73ffffffffffffffffffffffffffffffffffffffff16145b8061242a57506124298185612004565b5b91505092915050565b8273ffffffffffffffffffffffffffffffffffffffff16612453826110a5565b73ffffffffffffffffffffffffffffffffffffffff16146124a9576040517f08c379a00000000000000000000000000000000000000000000000000000000081526004016124a0906147dc565b60405180910390fd5b600073ffffffffffffffffffffffffffffffffffffffff168273ffffffffffffffffffffffffffffffffffffffff161415612519576040517f08c379a00000000000000000000000000000000000000000000000000000000081526004016125109061486e565b60405180910390fd5b612524838383612b23565b61252f60008261227e565b6001600360008573ffffffffffffffffffffffffffffffffffffffff1673ffffffffffffffffffffffffffffffffffffffff168152602001908152602001600020600082825461257f919061423b565b925050819055506001600360008473ffffffffffffffffffffffffffffffffffffffff1673ffffffffffffffffffffffffffffffffffffffff16815260200190815260200160002060008282546125d6919061488e565b92505081905550816002600083815260200190815260200160002060006101000a81548173ffffffffffffffffffffffffffffffffffffffff021916908373ffffffffffffffffffffffffffffffffffffffff160217905550808273ffffffffffffffffffffffffffffffffffffffff168473ffffffffffffffffffffffffffffffffffffffff167fddf252ad1be2c89b69c2b068fc378daa952ba7f163c4a11628f55a4df523b3ef60405160405180910390a4505050565b6000600a60009054906101000a900473ffffffffffffffffffffffffffffffffffffffff16905081600a60006101000a81548173ffffffffffffffffffffffffffffffffffffffff021916908373ffffffffffffffffffffffffffffffffffffffff1602179055508173ffffffffffffffffffffffffffffffffffffffff168173ffffffffffffffffffffffffffffffffffffffff167f8be0079c531659141344cd1fd0a4f28419497f9722a3daafe3b4186f6b6457e060405160405180910390a35050565b612760848484612433565b61276c84848484612b33565b6127ab576040517f08c379a00000000000000000000000000000000000000000000000000000000081526004016127a290614956565b60405180910390fd5b50505050565b80600e6127bd846113ec565b6040516127ca9190613e6b565b908152602001604051809103902060006101000a81548160ff0219169083151502179055505050565b60606013805461280290613b63565b80601f016020809104026020016040519081016040528092919081815260200182805461282e90613b63565b801561287b5780601f106128505761010080835404028352916020019161287b565b820191906000526020600020905b81548152906001019060200180831161285e57829003601f168201915b5050505050905090565b606060008214156128cd576040518060400160405280600181526020017f300000000000000000000000000000000000000000000000000000000000000081525090506129e1565b600082905060005b600082146128ff5780806128e890613de6565b915050600a826128f891906149a5565b91506128d5565b60008167ffffffffffffffff81111561291b5761291a6136b1565b5b6040519080825280601f01601f19166020018201604052801561294d5781602001600182028036833780820191505090505b5090505b600085146129da57600182612966919061423b565b9150600a8561297591906149d6565b6030612981919061488e565b60f81b818381518110612997576129966140a4565b5b60200101907effffffffffffffffffffffffffffffffffffffffffffffffffffffffffffff1916908160001a905350600a856129d391906149a5565b9450612951565b8093505050505b919050565b60007f80ac58cd000000000000000000000000000000000000000000000000000000007bffffffffffffffffffffffffffffffffffffffffffffffffffffffff1916827bffffffffffffffffffffffffffffffffffffffffffffffffffffffff19161480612ab157507f5b5e139f000000000000000000000000000000000000000000000000000000007bffffffffffffffffffffffffffffffffffffffffffffffffffffffff1916827bffffffffffffffffffffffffffffffffffffffffffffffffffffffff1916145b80612ac15750612ac082612cbb565b5b9050919050565b612ad28383612d25565b612adf6000848484612b33565b612b1e576040517f08c379a0000000000000000000000000000000000000000000000000000000008152600401612b1590614956565b60405180910390fd5b505050565b612b2e838383612ef3565b505050565b6000612b548473ffffffffffffffffffffffffffffffffffffffff16613007565b15612cae578373ffffffffffffffffffffffffffffffffffffffff1663150b7a02612b7d612276565b8786866040518563ffffffff1660e01b8152600401612b9f9493929190614a51565b6020604051808303816000875af1925050508015612bdb57506040513d601f19601f82011682018060405250810190612bd89190614ab2565b60015b612c5e573d8060008114612c0b576040519150601f19603f3d011682016040523d82523d6000602084013e612c10565b606091505b50600081511415612c56576040517f08c379a0000000000000000000000000000000000000000000000000000000008152600401612c4d90614956565b60405180910390fd5b805181602001fd5b63150b7a0260e01b7bffffffffffffffffffffffffffffffffffffffffffffffffffffffff1916817bffffffffffffffffffffffffffffffffffffffffffffffffffffffff191614915050612cb3565b600190505b949350505050565b60007f01ffc9a7000000000000000000000000000000000000000000000000000000007bffffffffffffffffffffffffffffffffffffffffffffffffffffffff1916827bffffffffffffffffffffffffffffffffffffffffffffffffffffffff1916149050919050565b600073ffffffffffffffffffffffffffffffffffffffff168273ffffffffffffffffffffffffffffffffffffffff161415612d95576040517f08c379a0000000000000000000000000000000000000000000000000000000008152600401612d8c90614b2b565b60405180910390fd5b612d9e8161220a565b15612dde576040517f08c379a0000000000000000000000000000000000000000000000000000000008152600401612dd590614b97565b60405180910390fd5b612dea60008383612b23565b6001600360008473ffffffffffffffffffffffffffffffffffffffff1673ffffffffffffffffffffffffffffffffffffffff1681526020019081526020016000206000828254612e3a919061488e565b92505081905550816002600083815260200190815260200160002060006101000a81548173ffffffffffffffffffffffffffffffffffffffff021916908373ffffffffffffffffffffffffffffffffffffffff160217905550808273ffffffffffffffffffffffffffffffffffffffff16600073ffffffffffffffffffffffffffffffffffffffff167fddf252ad1be2c89b69c2b068fc378daa952ba7f163c4a11628f55a4df523b3ef60405160405180910390a45050565b612efe83838361301a565b600073ffffffffffffffffffffffffffffffffffffffff168373ffffffffffffffffffffffffffffffffffffffff161415612f4157612f3c8161301f565b612f80565b8173ffffffffffffffffffffffffffffffffffffffff168373ffffffffffffffffffffffffffffffffffffffff1614612f7f57612f7e8382613068565b5b5b600073ffffffffffffffffffffffffffffffffffffffff168273ffffffffffffffffffffffffffffffffffffffff161415612fc357612fbe816131d5565b613002565b8273ffffffffffffffffffffffffffffffffffffffff168273ffffffffffffffffffffffffffffffffffffffff16146130015761300082826132a6565b5b5b505050565b600080823b905060008111915050919050565b505050565b6008805490506009600083815260200190815260200160002081905550600881908060018154018082558091505060019003906000526020600020016000909190919091505550565b60006001613075846111fc565b61307f919061423b565b9050600060076000848152602001908152602001600020549050818114613164576000600660008673ffffffffffffffffffffffffffffffffffffffff1673ffffffffffffffffffffffffffffffffffffffff168152602001908152602001600020600084815260200190815260200160002054905080600660008773ffffffffffffffffffffffffffffffffffffffff1673ffffffffffffffffffffffffffffffffffffffff168152602001908152602001600020600084815260200190815260200160002081905550816007600083815260200190815260200160002081905550505b6007600084815260200190815260200160002060009055600660008573ffffffffffffffffffffffffffffffffffffffff1673ffffffffffffffffffffffffffffffffffffffff16815260200190815260200160002060008381526020019081526020016000206000905550505050565b600060016008805490506131e9919061423b565b9050600060096000848152602001908152602001600020549050600060088381548110613219576132186140a4565b5b90600052602060002001549050806008838154811061323b5761323a6140a4565b5b90600052602060002001819055508160096000838152602001908152602001600020819055506009600085815260200190815260200160002060009055600880548061328a57613289614bb7565b5b6001900381819060005260206000200160009055905550505050565b60006132b1836111fc565b905081600660008573ffffffffffffffffffffffffffffffffffffffff1673ffffffffffffffffffffffffffffffffffffffff168152602001908152602001600020600083815260200190815260200160002081905550806007600084815260200190815260200160002081905550505050565b82805461333190613b63565b90600052602060002090601f016020900481019282613353576000855561339a565b82601f1061336c57805160ff191683800117855561339a565b8280016001018555821561339a579182015b8281111561339957825182559160200191906001019061337e565b5b5090506133a791906133ab565b5090565b5b808211156133c45760008160009055506001016133ac565b5090565b6000604051905090565b600080fd5b600080fd5b60007fffffffff0000000000000000000000000000000000000000000000000000000082169050919050565b613411816133dc565b811461341c57600080fd5b50565b60008135905061342e81613408565b92915050565b60006020828403121561344a576134496133d2565b5b60006134588482850161341f565b91505092915050565b60008115159050919050565b61347681613461565b82525050565b6000602082019050613491600083018461346d565b92915050565b600081519050919050565b600082825260208201905092915050565b60005b838110156134d15780820151818401526020810190506134b6565b838111156134e0576000848401525b50505050565b6000601f19601f8301169050919050565b600061350282613497565b61350c81856134a2565b935061351c8185602086016134b3565b613525816134e6565b840191505092915050565b6000602082019050818103600083015261354a81846134f7565b905092915050565b6000819050919050565b61356581613552565b811461357057600080fd5b50565b6000813590506135828161355c565b92915050565b60006020828403121561359e5761359d6133d2565b5b60006135ac84828501613573565b91505092915050565b600073ffffffffffffffffffffffffffffffffffffffff82169050919050565b60006135e0826135b5565b9050919050565b6135f0816135d5565b82525050565b600060208201905061360b60008301846135e7565b92915050565b61361a816135d5565b811461362557600080fd5b50565b60008135905061363781613611565b92915050565b60008060408385031215613654576136536133d2565b5b600061366285828601613628565b925050602061367385828601613573565b9150509250929050565b61368681613552565b82525050565b60006020820190506136a1600083018461367d565b92915050565b600080fd5b600080fd5b7f4e487b7100000000000000000000000000000000000000000000000000000000600052604160045260246000fd5b6136e9826134e6565b810181811067ffffffffffffffff82111715613708576137076136b1565b5b80604052505050565b600061371b6133c8565b905061372782826136e0565b919050565b600067ffffffffffffffff821115613747576137466136b1565b5b613750826134e6565b9050602081019050919050565b82818337600083830152505050565b600061377f61377a8461372c565b613711565b90508281526020810184848401111561379b5761379a6136ac565b5b6137a684828561375d565b509392505050565b600082601f8301126137c3576137c26136a7565b5b81356137d384826020860161376c565b91505092915050565b6000602082840312156137f2576137f16133d2565b5b600082013567ffffffffffffffff8111156138105761380f6133d7565b5b61381c848285016137ae565b91505092915050565b60008060006060848603121561383e5761383d6133d2565b5b600061384c86828701613628565b935050602061385d86828701613628565b925050604061386e86828701613573565b9150509250925092565b6000806040838503121561388f5761388e6133d2565b5b600061389d85828601613573565b925050602083013567ffffffffffffffff8111156138be576138bd6133d7565b5b6138ca858286016137ae565b9150509250929050565b6000819050919050565b6138e7816138d4565b81146138f257600080fd5b50565b600081359050613904816138de565b92915050565b6000602082840312156139205761391f6133d2565b5b600061392e848285016138f5565b91505092915050565b60006020828403121561394d5761394c6133d2565b5b600061395b84828501613628565b91505092915050565b61396d81613461565b811461397857600080fd5b50565b60008135905061398a81613964565b92915050565b600080604083850312156139a7576139a66133d2565b5b60006139b585828601613628565b92505060206139c68582860161397b565b9150509250929050565b600067ffffffffffffffff8211156139eb576139ea6136b1565b5b6139f4826134e6565b9050602081019050919050565b6000613a14613a0f846139d0565b613711565b905082815260208101848484011115613a3057613a2f6136ac565b5b613a3b84828561375d565b509392505050565b600082601f830112613a5857613a576136a7565b5b8135613a68848260208601613a01565b91505092915050565b60008060008060808587031215613a8b57613a8a6133d2565b5b6000613a9987828801613628565b9450506020613aaa87828801613628565b9350506040613abb87828801613573565b925050606085013567ffffffffffffffff811115613adc57613adb6133d7565b5b613ae887828801613a43565b91505092959194509250565b60008060408385031215613b0b57613b0a6133d2565b5b6000613b1985828601613628565b9250506020613b2a85828601613628565b9150509250929050565b7f4e487b7100000000000000000000000000000000000000000000000000000000600052602260045260246000fd5b60006002820490506001821680613b7b57607f821691505b60208210811415613b8f57613b8e613b34565b5b50919050565b7f4552433732313a20617070726f76656420717565727920666f72206e6f6e657860008201527f697374656e7420746f6b656e0000000000000000000000000000000000000000602082015250565b6000613bf1602c836134a2565b9150613bfc82613b95565b604082019050919050565b60006020820190508181036000830152613c2081613be4565b9050919050565b7f4552433732313a20617070726f76616c20746f2063757272656e74206f776e6560008201527f7200000000000000000000000000000000000000000000000000000000000000602082015250565b6000613c836021836134a2565b9150613c8e82613c27565b604082019050919050565b60006020820190508181036000830152613cb281613c76565b9050919050565b7f4552433732313a20617070726f76652063616c6c6572206973206e6f74206f7760008201527f6e6572206e6f7220617070726f76656420666f7220616c6c0000000000000000602082015250565b6000613d156038836134a2565b9150613d2082613cb9565b604082019050919050565b60006020820190508181036000830152613d4481613d08565b9050919050565b7f4f776e61626c653a2063616c6c6572206973206e6f7420746865206f776e6572600082015250565b6000613d816020836134a2565b9150613d8c82613d4b565b602082019050919050565b60006020820190508181036000830152613db081613d74565b9050919050565b7f4e487b7100000000000000000000000000000000000000000000000000000000600052601160045260246000fd5b6000613df182613552565b91507fffffffffffffffffffffffffffffffffffffffffffffffffffffffffffffffff821415613e2457613e23613db7565b5b600182019050919050565b600081905092915050565b6000613e4582613497565b613e4f8185613e2f565b9350613e5f8185602086016134b3565b80840191505092915050565b6000613e778284613e3a565b915081905092915050565b7f4552433732313a207472616e736665722063616c6c6572206973206e6f74206f60008201527f776e6572206e6f7220617070726f766564000000000000000000000000000000602082015250565b6000613ede6031836134a2565b9150613ee982613e82565b604082019050919050565b60006020820190508181036000830152613f0d81613ed1565b9050919050565b7f455243373231456e756d657261626c653a206f776e657220696e646578206f7560008201527f74206f6620626f756e6473000000000000000000000000000000000000000000602082015250565b6000613f70602b836134a2565b9150613f7b82613f14565b604082019050919050565b60006020820190508181036000830152613f9f81613f63565b9050919050565b7f596f7520646f206e6f74206f776e207468697320746f6b656e2e000000000000600082015250565b6000613fdc601a836134a2565b9150613fe782613fa6565b602082019050919050565b6000602082019050818103600083015261400b81613fcf565b9050919050565b7f455243373231456e756d657261626c653a20676c6f62616c20696e646578206f60008201527f7574206f6620626f756e64730000000000000000000000000000000000000000602082015250565b600061406e602c836134a2565b915061407982614012565b604082019050919050565b6000602082019050818103600083015261409d81614061565b9050919050565b7f4e487b7100000000000000000000000000000000000000000000000000000000600052603260045260246000fd5b7f4552433732313a206f776e657220717565727920666f72206e6f6e657869737460008201527f656e7420746f6b656e0000000000000000000000000000000000000000000000602082015250565b600061412f6029836134a2565b915061413a826140d3565b604082019050919050565b6000602082019050818103600083015261415e81614122565b9050919050565b7f4552433732313a2062616c616e636520717565727920666f7220746865207a6560008201527f726f206164647265737300000000000000000000000000000000000000000000602082015250565b60006141c1602a836134a2565b91506141cc82614165565b604082019050919050565b600060208201905081810360008301526141f0816141b4565b9050919050565b600060ff82169050919050565b600061420f826141f7565b915061421a836141f7565b92508260ff038211156142305761422f613db7565b5b828201905092915050565b600061424682613552565b915061425183613552565b92508282101561426457614263613db7565b5b828203905092915050565b7f4552433732313a20617070726f766520746f2063616c6c657200000000000000600082015250565b60006142a56019836134a2565b91506142b08261426f565b602082019050919050565b600060208201905081810360008301526142d481614298565b9050919050565b7f496e76616c6964206e616d652e00000000000000000000000000000000000000600082015250565b6000614311600d836134a2565b915061431c826142db565b602082019050919050565b6000602082019050818103600083015261434081614304565b9050919050565b600081905092915050565b60008190508160005260206000209050919050565b6000815461437481613b63565b61437e8186614347565b9450600182166000811461439957600181146143aa576143dd565b60ff198316865281860193506143dd565b6143b385614352565b60005b838110156143d5578154818901526001820191506020810190506143b6565b838801955050505b50505092915050565b60006143f28284614367565b915081905092915050565b60008151905061440c816138de565b92915050565b600060208284031215614428576144276133d2565b5b6000614436848285016143fd565b91505092915050565b600081519050919050565b60006144558261443f565b61445f8185614347565b935061446f8185602086016134b3565b80840191505092915050565b6000614487828461444a565b915081905092915050565b7f4e6577206e616d652069732073616d65206173207468652063757272656e742060008201527f6f6e652e00000000000000000000000000000000000000000000000000000000602082015250565b60006144ee6024836134a2565b91506144f982614492565b604082019050919050565b6000602082019050818103600083015261451d816144e1565b9050919050565b7f4e616d6520616c72656164792072657365727665642e00000000000000000000600082015250565b600061455a6016836134a2565b915061456582614524565b602082019050919050565b600060208201905081810360008301526145898161454d565b9050919050565b7f4552433732314d657461646174613a2055524920717565727920666f72206e6f60008201527f6e6578697374656e7420746f6b656e0000000000000000000000000000000000602082015250565b60006145ec602f836134a2565b91506145f782614590565b604082019050919050565b6000602082019050818103600083015261461b816145df565b9050919050565b600061462e8285613e3a565b915061463a8284613e3a565b91508190509392505050565b7f4f776e61626c653a206e6577206f776e657220697320746865207a65726f206160008201527f6464726573730000000000000000000000000000000000000000000000000000602082015250565b60006146a26026836134a2565b91506146ad82614646565b604082019050919050565b600060208201905081810360008301526146d181614695565b9050919050565b7f4552433732313a206f70657261746f7220717565727920666f72206e6f6e657860008201527f697374656e7420746f6b656e0000000000000000000000000000000000000000602082015250565b6000614734602c836134a2565b915061473f826146d8565b604082019050919050565b6000602082019050818103600083015261476381614727565b9050919050565b7f4552433732313a207472616e73666572206f6620746f6b656e2074686174206960008201527f73206e6f74206f776e0000000000000000000000000000000000000000000000602082015250565b60006147c66029836134a2565b91506147d18261476a565b604082019050919050565b600060208201905081810360008301526147f5816147b9565b9050919050565b7f4552433732313a207472616e7366657220746f20746865207a65726f2061646460008201527f7265737300000000000000000000000000000000000000000000000000000000602082015250565b60006148586024836134a2565b9150614863826147fc565b604082019050919050565b600060208201905081810360008301526148878161484b565b9050919050565b600061489982613552565b91506148a483613552565b9250827fffffffffffffffffffffffffffffffffffffffffffffffffffffffffffffffff038211156148d9576148d8613db7565b5b828201905092915050565b7f4552433732313a207472616e7366657220746f206e6f6e20455243373231526560008201527f63656976657220696d706c656d656e7465720000000000000000000000000000602082015250565b60006149406032836134a2565b915061494b826148e4565b604082019050919050565b6000602082019050818103600083015261496f81614933565b9050919050565b7f4e487b7100000000000000000000000000000000000000000000000000000000600052601260045260246000fd5b60006149b082613552565b91506149bb83613552565b9250826149cb576149ca614976565b5b828204905092915050565b60006149e182613552565b91506149ec83613552565b9250826149fc576149fb614976565b5b828206905092915050565b600082825260208201905092915050565b6000614a238261443f565b614a2d8185614a07565b9350614a3d8185602086016134b3565b614a46816134e6565b840191505092915050565b6000608082019050614a6660008301876135e7565b614a7360208301866135e7565b614a80604083018561367d565b8181036060830152614a928184614a18565b905095945050505050565b600081519050614aac81613408565b92915050565b600060208284031215614ac857614ac76133d2565b5b6000614ad684828501614a9d565b91505092915050565b7f4552433732313a206d696e7420746f20746865207a65726f2061646472657373600082015250565b6000614b156020836134a2565b9150614b2082614adf565b602082019050919050565b60006020820190508181036000830152614b4481614b08565b9050919050565b7f4552433732313a20746f6b656e20616c7265616479206d696e74656400000000600082015250565b6000614b81601c836134a2565b9150614b8c82614b4b565b602082019050919050565b60006020820190508181036000830152614bb081614b74565b9050919050565b7f4e487b7100000000000000000000000000000000000000000000000000000000600052603160045260246000fdfea2646970667358221220e6e3c93b3bc9ab5c768869639c69221a9aa228739099e1612101bfa417c159be64736f6c634300080b0033",
  "immutableReferences": {},
  "source": "// SPDX-License-Identifier: MIT\npragma solidity ^0.8.7;\n\n// Imports\nimport \"@openzeppelin/contracts/utils/cryptography/MerkleProof.sol\";\nimport \"./ERC721EnumerableNameable.sol\";\n\ncontract Lostgirl is ERC721EnumerableNameable {\n \n    // Constants\n    uint256 private constant MAX_LOSTGIRLS = 10000;\n    \n    // Public\n    bool public claimingEnabled = false;\n    bool public tokenEnabled = false;\n    mapping(address => uint256) public claims;\n\n    // Private\n    bytes32 private snapshotMerkle = \"\";\n    string private baseURI = \"\";\n    \n    // External\n    constructor(string memory _name, string memory _symbol, string memory _uri) \n        ERC721EnumerableNameable(_name, _symbol) {\n        baseURI = _uri;\n    }\n    \n    // Owner\n    function toggleClaim () public onlyOwner {\n        claimingEnabled = !claimingEnabled;\n    }\n\n    function toggleToken () public onlyOwner { \n        tokenEnabled = !tokenEnabled;\n    }\n\n    function setSnapshotRoot (bytes32 _merkle) public onlyOwner {\n        snapshotMerkle = _merkle;\n    }\n\n    function updateNameChangePrice(uint256 _price) public onlyOwner {\n\t\tnameChangePrice = _price;\n\t}\n\n    function updateBioChangePrice(uint256 _price) public onlyOwner {\n        bioChangePrice = _price;\n    }\n\n    function setBaseURI (string memory _uri) public onlyOwner {\n        baseURI = _uri;\n    }\n\n    function ownerCollect (uint256 _numLostgirls) public onlyOwner {\n        for (uint256 i = 0; i < _numLostgirls; i++) {\n            uint256 currentIdx = totalSupply ();\n            if (currentIdx < MAX_LOSTGIRLS) {\n                _safeMint (msg.sender, currentIdx);\n            }\n        }\n    }\n    \n    // Public\n    function claim (uint256 _numLostgirls) public {\n        for (uint256 i = 0; i < _numLostgirls; i++) {\n            uint256 currentIdx = totalSupply();\n            if (currentIdx < MAX_LOSTGIRLS) {\n                _safeMint (msg.sender, currentIdx);\n            }\n        }\n    }\n\n    function _baseURI() internal view override returns (string memory) {\n        return baseURI;\n    }\n            \n}",
  "sourcePath": "/home/maulik/Desktop/Solidity/lostb_erc20/contract/contracts/Lostgirl.sol",
  "compiler": {
    "name": "solc",
    "version": "0.8.11+commit.d7f03943.Emscripten.clang"
  },
  "schemaVersion": "3.4.3",
  "updatedAt": "2022-02-02T06:55:10.457Z",
  "devdoc": {
    "kind": "dev",
    "methods": {
      "approve(address,uint256)": {
        "details": "See {IERC721-approve}."
      },
      "balanceOf(address)": {
        "details": "See {IERC721-balanceOf}."
      },
      "getApproved(uint256)": {
        "details": "See {IERC721-getApproved}."
      },
      "isApprovedForAll(address,address)": {
        "details": "See {IERC721-isApprovedForAll}."
      },
      "name()": {
        "details": "See {IERC721Metadata-name}."
      },
      "owner()": {
        "details": "Returns the address of the current owner."
      },
      "ownerOf(uint256)": {
        "details": "See {IERC721-ownerOf}."
      },
      "renounceOwnership()": {
        "details": "Leaves the contract without owner. It will not be possible to call `onlyOwner` functions anymore. Can only be called by the current owner. NOTE: Renouncing ownership will leave the contract without an owner, thereby removing any functionality that is only available to the owner."
      },
      "safeTransferFrom(address,address,uint256)": {
        "details": "See {IERC721-safeTransferFrom}."
      },
      "safeTransferFrom(address,address,uint256,bytes)": {
        "details": "See {IERC721-safeTransferFrom}."
      },
      "setApprovalForAll(address,bool)": {
        "details": "See {IERC721-setApprovalForAll}."
      },
      "supportsInterface(bytes4)": {
        "details": "See {IERC165-supportsInterface}."
      },
      "symbol()": {
        "details": "See {IERC721Metadata-symbol}."
      },
      "tokenByIndex(uint256)": {
        "details": "See {IERC721Enumerable-tokenByIndex}."
      },
      "tokenOfOwnerByIndex(address,uint256)": {
        "details": "See {IERC721Enumerable-tokenOfOwnerByIndex}."
      },
      "tokenURI(uint256)": {
        "details": "See {IERC721Metadata-tokenURI}."
      },
      "totalSupply()": {
        "details": "See {IERC721Enumerable-totalSupply}."
      },
      "transferFrom(address,address,uint256)": {
        "details": "See {IERC721-transferFrom}."
      },
      "transferOwnership(address)": {
        "details": "Transfers ownership of the contract to a new account (`newOwner`). Can only be called by the current owner."
      }
    },
    "version": 1
  },
  "userdoc": {
    "kind": "user",
    "methods": {},
    "version": 1
  }
}