{
  "contractName": "LostStaking",
  "abi": [
    {
      "inputs": [
        {
          "internalType": "address",
          "name": "_stakingDestinationAddress",
          "type": "address"
        },
        {
          "internalType": "address",
          "name": "_stakingLostGirlAddress",
          "type": "address"
        },
        {
          "internalType": "uint256",
          "name": "_rate",
          "type": "uint256"
        },
        {
          "internalType": "uint256",
          "name": "_expiration",
          "type": "uint256"
        },
        {
          "internalType": "address",
          "name": "_erc20Address",
          "type": "address"
        },
        {
          "internalType": "uint256[]",
          "name": "rewardArray",
          "type": "uint256[]"
        }
      ],
      "stateMutability": "nonpayable",
      "type": "constructor"
    },
    {
      "anonymous": false,
      "inputs": [
        {
          "indexed": true,
          "internalType": "address",
          "name": "previousOwner",
          "type": "address"
        },
        {
          "indexed": true,
          "internalType": "address",
          "name": "newOwner",
          "type": "address"
        }
      ],
      "name": "OwnershipTransferred",
      "type": "event"
    },
    {
      "anonymous": false,
      "inputs": [
        {
          "indexed": false,
          "internalType": "address",
          "name": "account",
          "type": "address"
        }
      ],
      "name": "Paused",
      "type": "event"
    },
    {
      "anonymous": false,
      "inputs": [
        {
          "indexed": false,
          "internalType": "address",
          "name": "account",
          "type": "address"
        }
      ],
      "name": "Unpaused",
      "type": "event"
    },
    {
      "inputs": [
        {
          "internalType": "address",
          "name": "",
          "type": "address"
        },
        {
          "internalType": "uint256",
          "name": "",
          "type": "uint256"
        }
      ],
      "name": "_depositBlocks",
      "outputs": [
        {
          "internalType": "uint256",
          "name": "",
          "type": "uint256"
        }
      ],
      "stateMutability": "view",
      "type": "function",
      "constant": true
    },
    {
      "inputs": [
        {
          "internalType": "address",
          "name": "",
          "type": "address"
        },
        {
          "internalType": "uint256",
          "name": "",
          "type": "uint256"
        }
      ],
      "name": "_depositBlocksTmp",
      "outputs": [
        {
          "internalType": "uint256",
          "name": "",
          "type": "uint256"
        }
      ],
      "stateMutability": "view",
      "type": "function",
      "constant": true
    },
    {
      "inputs": [
        {
          "internalType": "uint256",
          "name": "",
          "type": "uint256"
        }
      ],
      "name": "_rewardArray",
      "outputs": [
        {
          "internalType": "uint256",
          "name": "",
          "type": "uint256"
        }
      ],
      "stateMutability": "view",
      "type": "function",
      "constant": true
    },
    {
      "inputs": [],
      "name": "erc20Address",
      "outputs": [
        {
          "internalType": "address",
          "name": "",
          "type": "address"
        }
      ],
      "stateMutability": "view",
      "type": "function",
      "constant": true
    },
    {
      "inputs": [],
      "name": "expiration",
      "outputs": [
        {
          "internalType": "uint256",
          "name": "",
          "type": "uint256"
        }
      ],
      "stateMutability": "view",
      "type": "function",
      "constant": true
    },
    {
      "inputs": [],
      "name": "freezingDays",
      "outputs": [
        {
          "internalType": "uint256",
          "name": "",
          "type": "uint256"
        }
      ],
      "stateMutability": "view",
      "type": "function",
      "constant": true
    },
    {
      "inputs": [],
      "name": "owner",
      "outputs": [
        {
          "internalType": "address",
          "name": "",
          "type": "address"
        }
      ],
      "stateMutability": "view",
      "type": "function",
      "constant": true
    },
    {
      "inputs": [],
      "name": "ownerAddr",
      "outputs": [
        {
          "internalType": "address",
          "name": "",
          "type": "address"
        }
      ],
      "stateMutability": "view",
      "type": "function",
      "constant": true
    },
    {
      "inputs": [],
      "name": "paused",
      "outputs": [
        {
          "internalType": "bool",
          "name": "",
          "type": "bool"
        }
      ],
      "stateMutability": "view",
      "type": "function",
      "constant": true
    },
    {
      "inputs": [],
      "name": "rate",
      "outputs": [
        {
          "internalType": "uint256",
          "name": "",
          "type": "uint256"
        }
      ],
      "stateMutability": "view",
      "type": "function",
      "constant": true
    },
    {
      "inputs": [],
      "name": "renounceOwnership",
      "outputs": [],
      "stateMutability": "nonpayable",
      "type": "function"
    },
    {
      "inputs": [],
      "name": "stakingDestinationAddress",
      "outputs": [
        {
          "internalType": "address",
          "name": "",
          "type": "address"
        }
      ],
      "stateMutability": "view",
      "type": "function",
      "constant": true
    },
    {
      "inputs": [],
      "name": "stakingLostGirlAddr",
      "outputs": [
        {
          "internalType": "address",
          "name": "",
          "type": "address"
        }
      ],
      "stateMutability": "view",
      "type": "function",
      "constant": true
    },
    {
      "inputs": [
        {
          "internalType": "address",
          "name": "newOwner",
          "type": "address"
        }
      ],
      "name": "transferOwnership",
      "outputs": [],
      "stateMutability": "nonpayable",
      "type": "function"
    },
    {
      "inputs": [],
      "name": "pause",
      "outputs": [],
      "stateMutability": "nonpayable",
      "type": "function"
    },
    {
      "inputs": [],
      "name": "unpause",
      "outputs": [],
      "stateMutability": "nonpayable",
      "type": "function"
    },
    {
      "inputs": [
        {
          "internalType": "address",
          "name": "account",
          "type": "address"
        },
        {
          "internalType": "uint256",
          "name": "tokenId",
          "type": "uint256"
        }
      ],
      "name": "setOneDayPrev",
      "outputs": [],
      "stateMutability": "nonpayable",
      "type": "function"
    },
    {
      "inputs": [
        {
          "internalType": "uint256",
          "name": "_rate",
          "type": "uint256"
        }
      ],
      "name": "setRate",
      "outputs": [],
      "stateMutability": "nonpayable",
      "type": "function"
    },
    {
      "inputs": [
        {
          "internalType": "uint256",
          "name": "_freezDay",
          "type": "uint256"
        }
      ],
      "name": "setfreezingDays",
      "outputs": [],
      "stateMutability": "nonpayable",
      "type": "function"
    },
    {
      "inputs": [
        {
          "internalType": "uint256",
          "name": "_expiration",
          "type": "uint256"
        }
      ],
      "name": "setExpiration",
      "outputs": [],
      "stateMutability": "nonpayable",
      "type": "function"
    },
    {
      "inputs": [
        {
          "internalType": "address",
          "name": "account",
          "type": "address"
        },
        {
          "internalType": "uint256",
          "name": "tokens",
          "type": "uint256"
        }
      ],
      "name": "balanceOfLostGirl",
      "outputs": [
        {
          "internalType": "uint256",
          "name": "balance",
          "type": "uint256"
        }
      ],
      "stateMutability": "view",
      "type": "function",
      "constant": true
    },
    {
      "inputs": [
        {
          "internalType": "address",
          "name": "account",
          "type": "address"
        }
      ],
      "name": "depositsOf",
      "outputs": [
        {
          "internalType": "uint256[]",
          "name": "",
          "type": "uint256[]"
        }
      ],
      "stateMutability": "view",
      "type": "function",
      "constant": true
    },
    {
      "inputs": [
        {
          "internalType": "address",
          "name": "account",
          "type": "address"
        },
        {
          "internalType": "uint256[]",
          "name": "tokenIds",
          "type": "uint256[]"
        }
      ],
      "name": "calculateRewards",
      "outputs": [
        {
          "internalType": "uint256[]",
          "name": "rewards",
          "type": "uint256[]"
        }
      ],
      "stateMutability": "view",
      "type": "function",
      "constant": true
    },
    {
      "inputs": [
        {
          "internalType": "address",
          "name": "account",
          "type": "address"
        },
        {
          "internalType": "uint256",
          "name": "tokenId",
          "type": "uint256"
        }
      ],
      "name": "calculateReward",
      "outputs": [
        {
          "internalType": "uint256",
          "name": "",
          "type": "uint256"
        }
      ],
      "stateMutability": "view",
      "type": "function",
      "constant": true
    },
    {
      "inputs": [
        {
          "internalType": "uint256[]",
          "name": "tokenIds",
          "type": "uint256[]"
        }
      ],
      "name": "claimRewards",
      "outputs": [],
      "stateMutability": "nonpayable",
      "type": "function"
    },
    {
      "inputs": [
        {
          "internalType": "uint256[]",
          "name": "tokenIds",
          "type": "uint256[]"
        }
      ],
      "name": "deposit",
      "outputs": [],
      "stateMutability": "nonpayable",
      "type": "function"
    },
    {
      "inputs": [
        {
          "internalType": "uint256[]",
          "name": "tokenIds",
          "type": "uint256[]"
        }
      ],
      "name": "withdraw",
      "outputs": [],
      "stateMutability": "nonpayable",
      "type": "function"
    },
    {
      "inputs": [
        {
          "internalType": "address",
          "name": "",
          "type": "address"
        },
        {
          "internalType": "address",
          "name": "",
          "type": "address"
        },
        {
          "internalType": "uint256",
          "name": "",
          "type": "uint256"
        },
        {
          "internalType": "bytes",
          "name": "",
          "type": "bytes"
        }
      ],
      "name": "onERC721Received",
      "outputs": [
        {
          "internalType": "bytes4",
          "name": "",
          "type": "bytes4"
        }
      ],
      "stateMutability": "pure",
      "type": "function",
      "constant": true
    }
  ],
  "bytecode": "0x60806040526000600260016101000a81548173ffffffffffffffffffffffffffffffffffffffff021916908373ffffffffffffffffffffffffffffffffffffffff1602179055503480156200005357600080fd5b50604051620036fd380380620036fd83398181016040528101906200007991906200062b565b620000996200008d6200026760201b60201c565b6200026f60201b60201c565b600180819055506000600260006101000a81548160ff02191690831515021790555084600460006101000a81548173ffffffffffffffffffffffffffffffffffffffff021916908373ffffffffffffffffffffffffffffffffffffffff16021790555085600360006101000a81548173ffffffffffffffffffffffffffffffffffffffff021916908373ffffffffffffffffffffffffffffffffffffffff16021790555083600881905550620151808362000155919062000715565b4262000162919062000715565b60078190555081600560006101000a81548173ffffffffffffffffffffffffffffffffffffffff021916908373ffffffffffffffffffffffffffffffffffffffff16021790555033600660006101000a81548173ffffffffffffffffffffffffffffffffffffffff021916908373ffffffffffffffffffffffffffffffffffffffff160217905550600060098190555060005b81518110156200024a5781818151811062000215576200021462000776565b5b6020026020010151600d60008381526020019081526020016000208190555080806200024190620007a5565b915050620001f5565b506200025b6200033360201b60201c565b505050505050620008a4565b600033905090565b60008060009054906101000a900473ffffffffffffffffffffffffffffffffffffffff169050816000806101000a81548173ffffffffffffffffffffffffffffffffffffffff021916908373ffffffffffffffffffffffffffffffffffffffff1602179055508173ffffffffffffffffffffffffffffffffffffffff168173ffffffffffffffffffffffffffffffffffffffff167f8be0079c531659141344cd1fd0a4f28419497f9722a3daafe3b4186f6b6457e060405160405180910390a35050565b62000343620003eb60201b60201c565b1562000386576040517f08c379a00000000000000000000000000000000000000000000000000000000081526004016200037d9062000854565b60405180910390fd5b6001600260006101000a81548160ff0219169083151502179055507f62e78cea01bee320cd4e420270b5ea74000d11b0c9f74754ebdbfc544b05a258620003d26200026760201b60201c565b604051620003e1919062000887565b60405180910390a1565b6000600260009054906101000a900460ff16905090565b6000604051905090565b600080fd5b600080fd5b600073ffffffffffffffffffffffffffffffffffffffff82169050919050565b6000620004438262000416565b9050919050565b620004558162000436565b81146200046157600080fd5b50565b60008151905062000475816200044a565b92915050565b6000819050919050565b62000490816200047b565b81146200049c57600080fd5b50565b600081519050620004b08162000485565b92915050565b600080fd5b6000601f19601f8301169050919050565b7f4e487b7100000000000000000000000000000000000000000000000000000000600052604160045260246000fd5b6200050682620004bb565b810181811067ffffffffffffffff82111715620005285762000527620004cc565b5b80604052505050565b60006200053d62000402565b90506200054b8282620004fb565b919050565b600067ffffffffffffffff8211156200056e576200056d620004cc565b5b602082029050602081019050919050565b600080fd5b60006200059b620005958462000550565b62000531565b90508083825260208201905060208402830185811115620005c157620005c06200057f565b5b835b81811015620005ee5780620005d988826200049f565b845260208401935050602081019050620005c3565b5050509392505050565b600082601f83011262000610576200060f620004b6565b5b81516200062284826020860162000584565b91505092915050565b60008060008060008060c087890312156200064b576200064a6200040c565b5b60006200065b89828a0162000464565b96505060206200066e89828a0162000464565b95505060406200068189828a016200049f565b94505060606200069489828a016200049f565b9350506080620006a789828a0162000464565b92505060a087015167ffffffffffffffff811115620006cb57620006ca62000411565b5b620006d989828a01620005f8565b9150509295509295509295565b7f4e487b7100000000000000000000000000000000000000000000000000000000600052601160045260246000fd5b600062000722826200047b565b91506200072f836200047b565b9250817fffffffffffffffffffffffffffffffffffffffffffffffffffffffffffffffff04831182151516156200076b576200076a620006e6565b5b828202905092915050565b7f4e487b7100000000000000000000000000000000000000000000000000000000600052603260045260246000fd5b6000620007b2826200047b565b91507fffffffffffffffffffffffffffffffffffffffffffffffffffffffffffffffff821415620007e857620007e7620006e6565b5b600182019050919050565b600082825260208201905092915050565b7f5061757361626c653a2070617573656400000000000000000000000000000000600082015250565b60006200083c601083620007f3565b9150620008498262000804565b602082019050919050565b600060208201905081810360008301526200086f816200082d565b9050919050565b620008818162000436565b82525050565b60006020820190506200089e600083018462000876565b92915050565b612e4980620008b46000396000f3fe608060405234801561001057600080fd5b50600436106101c45760003560e01c80636e188ea9116100f9578063983d95ce11610097578063b343ae1411610071578063b343ae14146104bd578063c407c5b7146104ed578063e3a9db1a14610509578063f2fde38b14610539576101c4565b8063983d95ce146104535780639a30cae41461046f5780639c675eaa1461049f576101c4565b806386858fa4116100d357806386858fa4146103dd57806387ce25e0146103fb5780638da5cb5b146104195780639788e2ac14610437576101c4565b80636e188ea914610399578063715018a6146103c95780638456cb59146103d3576101c4565b806334fcf43711610166578063515a20ba11610140578063515a20ba14610327578063598b8e71146103435780635c975abb1461035f5780635eac62391461037d576101c4565b806334fcf437146102e35780633f4ba83a146102ff5780634665096d14610309576101c4565b80631852e8d9116101a25780631852e8d914610247578063276184ae146102775780632b403b08146102955780632c4e722e146102c5576101c4565b80630222a2c4146101c9578063068c526f146101e7578063150b7a0214610217575b600080fd5b6101d1610555565b6040516101de919061207e565b60405180910390f35b61020160048036038101906101fc9190612268565b61057b565b60405161020e9190612382565b60405180910390f35b610231600480360381019061022c91906123ff565b6107be565b60405161023e91906124c2565b60405180910390f35b610261600480360381019061025c91906124dd565b6107d3565b60405161026e919061252c565b60405180910390f35b61027f6109e3565b60405161028c919061207e565b60405180910390f35b6102af60048036038101906102aa91906124dd565b610a09565b6040516102bc919061252c565b60405180910390f35b6102cd610bb1565b6040516102da919061252c565b60405180910390f35b6102fd60048036038101906102f89190612547565b610bb7565b005b610307610c3d565b005b610311610cc3565b60405161031e919061252c565b60405180910390f35b610341600480360381019061033c9190612547565b610cc9565b005b61035d600480360381019061035891906125ca565b610d68565b005b610367610ffa565b6040516103749190612632565b60405180910390f35b610397600480360381019061039291906125ca565b611011565b005b6103b360048036038101906103ae91906124dd565b611213565b6040516103c0919061252c565b60405180910390f35b6103d1611238565b005b6103db6112c0565b005b6103e5611346565b6040516103f2919061252c565b60405180910390f35b61040361134c565b604051610410919061207e565b60405180910390f35b610421611372565b60405161042e919061207e565b60405180910390f35b610451600480360381019061044c9190612547565b61139b565b005b61046d600480360381019061046891906125ca565b611421565b005b61048960048036038101906104849190612547565b61178e565b604051610496919061252c565b60405180910390f35b6104a76117a6565b6040516104b4919061207e565b60405180910390f35b6104d760048036038101906104d291906124dd565b6117cc565b6040516104e4919061252c565b60405180910390f35b610507600480360381019061050291906124dd565b6117f1565b005b610523600480360381019061051e919061264d565b6119d7565b6040516105309190612382565b60405180910390f35b610553600480360381019061054e919061264d565b611ad4565b005b600360009054906101000a900473ffffffffffffffffffffffffffffffffffffffff1681565b6060815167ffffffffffffffff811115610598576105976120ef565b5b6040519080825280602002602001820160405280156105c65781602001602082028036833780820191505090505b50905060005b82518110156107b75760008382815181106105ea576105e961267a565b5b6020026020010151905061064581600a60008873ffffffffffffffffffffffffffffffffffffffff1673ffffffffffffffffffffffffffffffffffffffff168152602001908152602001600020611bcc90919063ffffffff16565b156107815760006018603c80600b60008a73ffffffffffffffffffffffffffffffffffffffff1673ffffffffffffffffffffffffffffffffffffffff168152602001908152602001600020600086815260200190815260200160002054426106ad91906126d8565b6106b7919061273b565b6106c1919061273b565b6106cb919061273b565b90506000816008546106dd919061276c565b90503073ffffffffffffffffffffffffffffffffffffffff16632b403b0888836040518363ffffffff1660e01b815260040161071a9291906127c6565b602060405180830381865afa158015610737573d6000803e3d6000fd5b505050506040513d601f19601f8201168201806040525081019061075b9190612804565b85858151811061076e5761076d61267a565b5b60200260200101818152505050506107a3565b60008383815181106107965761079561267a565b5b6020026020010181815250505b5080806107af90612831565b9150506105cc565b5092915050565b600063150b7a0260e01b905095945050505050565b60006018603c80426007546107e891906126d8565b6107f2919061273b565b6107fc919061273b565b610806919061273b565b600010610848576040517f08c379a000000000000000000000000000000000000000000000000000000000815260040161083f906128d7565b60405180910390fd5b60006018603c80600b60008873ffffffffffffffffffffffffffffffffffffffff1673ffffffffffffffffffffffffffffffffffffffff168152602001908152602001600020600087815260200190815260200160002054426108ab91906126d8565b6108b5919061273b565b6108bf919061273b565b6108c9919061273b565b905060095481106109d75760008161092885600a60008973ffffffffffffffffffffffffffffffffffffffff1673ffffffffffffffffffffffffffffffffffffffff168152602001908152602001600020611bcc90919063ffffffff16565b610933576000610936565b60015b60ff16600854610946919061276c565b610950919061276c565b90503073ffffffffffffffffffffffffffffffffffffffff16632b403b0886836040518363ffffffff1660e01b815260040161098d9291906127c6565b602060405180830381865afa1580156109aa573d6000803e3d6000fd5b505050506040513d601f19601f820116820180604052508101906109ce9190612804565b925050506109dd565b60009150505b92915050565b600560009054906101000a900473ffffffffffffffffffffffffffffffffffffffff1681565b600080600460009054906101000a900473ffffffffffffffffffffffffffffffffffffffff1673ffffffffffffffffffffffffffffffffffffffff166370a08231856040518263ffffffff1660e01b8152600401610a67919061207e565b602060405180830381865afa158015610a84573d6000803e3d6000fd5b505050506040513d601f19601f82011682018060405250810190610aa89190612804565b905060038111610ad957600d60008081526020019081526020016000205483610ad1919061276c565b915050610bab565b60068111610b0957600d6000600181526020019081526020016000205483610b01919061276c565b915050610bab565b60098111610b3957600d6000600281526020019081526020016000205483610b31919061276c565b915050610bab565b600f8111610b6957600d6000600381526020019081526020016000205483610b61919061276c565b915050610bab565b600f811115610b9a57600d6000600481526020019081526020016000205483610b92919061276c565b915050610bab565b606483610ba7919061276c565b9150505b92915050565b60085481565b610bbf611be6565b73ffffffffffffffffffffffffffffffffffffffff16610bdd611372565b73ffffffffffffffffffffffffffffffffffffffff1614610c33576040517f08c379a0000000000000000000000000000000000000000000000000000000008152600401610c2a90612943565b60405180910390fd5b8060088190555050565b610c45611be6565b73ffffffffffffffffffffffffffffffffffffffff16610c63611372565b73ffffffffffffffffffffffffffffffffffffffff1614610cb9576040517f08c379a0000000000000000000000000000000000000000000000000000000008152600401610cb090612943565b60405180910390fd5b610cc1611bee565b565b60075481565b610cd1611be6565b73ffffffffffffffffffffffffffffffffffffffff16610cef611372565b73ffffffffffffffffffffffffffffffffffffffff1614610d45576040517f08c379a0000000000000000000000000000000000000000000000000000000008152600401610d3c90612943565b60405180910390fd5b6201518081610d54919061276c565b42610d5f919061276c565b60078190555050565b610d70610ffa565b15610db0576040517f08c379a0000000000000000000000000000000000000000000000000000000008152600401610da7906129af565b60405180910390fd5b600360009054906101000a900473ffffffffffffffffffffffffffffffffffffffff1673ffffffffffffffffffffffffffffffffffffffff163373ffffffffffffffffffffffffffffffffffffffff161415610e41576040517f08c379a0000000000000000000000000000000000000000000000000000000008152600401610e3890612a1b565b60405180910390fd5b610e4b8282611011565b60005b82829050811015610ff557600042905080600c60003373ffffffffffffffffffffffffffffffffffffffff1673ffffffffffffffffffffffffffffffffffffffff1681526020019081526020016000206000868686818110610eb357610eb261267a565b5b90506020020135815260200190815260200160002081905550600360009054906101000a900473ffffffffffffffffffffffffffffffffffffffff1673ffffffffffffffffffffffffffffffffffffffff1663b88d4fde3330878787818110610f1f57610f1e61267a565b5b905060200201356040518463ffffffff1660e01b8152600401610f4493929190612a72565b600060405180830381600087803b158015610f5e57600080fd5b505af1158015610f72573d6000803e3d6000fd5b50505050610fe0848484818110610f8c57610f8b61267a565b5b90506020020135600a60003373ffffffffffffffffffffffffffffffffffffffff1673ffffffffffffffffffffffffffffffffffffffff168152602001908152602001600020611c9090919063ffffffff16565b50508080610fed90612831565b915050610e4e565b505050565b6000600260009054906101000a900460ff16905090565b611019610ffa565b15611059576040517f08c379a0000000000000000000000000000000000000000000000000000000008152600401611050906129af565b60405180910390fd5b60008042905060005b8484905081101561111e57611090338686848181106110845761108361267a565b5b905060200201356107d3565b8361109b9190612abc565b925081600b60003373ffffffffffffffffffffffffffffffffffffffff1673ffffffffffffffffffffffffffffffffffffffff16815260200190815260200160002060008787858181106110f2576110f161267a565b5b90506020020135815260200190815260200160002081905550808061111690612831565b915050611062565b50600082111561120d57600560009054906101000a900473ffffffffffffffffffffffffffffffffffffffff1673ffffffffffffffffffffffffffffffffffffffff166323b872dd600660009054906101000a900473ffffffffffffffffffffffffffffffffffffffff16336064670de0b6b3a7640000876111a0919061276c565b6111aa919061273b565b6040518463ffffffff1660e01b81526004016111c893929190612b12565b6020604051808303816000875af11580156111e7573d6000803e3d6000fd5b505050506040513d601f19601f8201168201806040525081019061120b9190612b75565b505b50505050565b600c602052816000526040600020602052806000526040600020600091509150505481565b611240611be6565b73ffffffffffffffffffffffffffffffffffffffff1661125e611372565b73ffffffffffffffffffffffffffffffffffffffff16146112b4576040517f08c379a00000000000000000000000000000000000000000000000000000000081526004016112ab90612943565b60405180910390fd5b6112be6000611caa565b565b6112c8611be6565b73ffffffffffffffffffffffffffffffffffffffff166112e6611372565b73ffffffffffffffffffffffffffffffffffffffff161461133c576040517f08c379a000000000000000000000000000000000000000000000000000000000815260040161133390612943565b60405180910390fd5b611344611d6e565b565b60095481565b600460009054906101000a900473ffffffffffffffffffffffffffffffffffffffff1681565b60008060009054906101000a900473ffffffffffffffffffffffffffffffffffffffff16905090565b6113a3611be6565b73ffffffffffffffffffffffffffffffffffffffff166113c1611372565b73ffffffffffffffffffffffffffffffffffffffff1614611417576040517f08c379a000000000000000000000000000000000000000000000000000000000815260040161140e90612943565b60405180910390fd5b8060098190555050565b611429610ffa565b15611469576040517f08c379a0000000000000000000000000000000000000000000000000000000008152600401611460906129af565b60405180910390fd5b600260015414156114af576040517f08c379a00000000000000000000000000000000000000000000000000000000081526004016114a690612bee565b60405180910390fd5b60026001819055506114c18282611011565b60005b82829050811015611782576115398383838181106114e5576114e461267a565b5b90506020020135600a60003373ffffffffffffffffffffffffffffffffffffffff1673ffffffffffffffffffffffffffffffffffffffff168152602001908152602001600020611bcc90919063ffffffff16565b611578576040517f08c379a000000000000000000000000000000000000000000000000000000000815260040161156f90612c5a565b60405180910390fd5b60006018603c80600c60003373ffffffffffffffffffffffffffffffffffffffff1673ffffffffffffffffffffffffffffffffffffffff16815260200190815260200160002060008888888181106115d3576115d261267a565b5b90506020020135815260200190815260200160002054426115f491906126d8565b6115fe919061273b565b611608919061273b565b611612919061273b565b9050600954811015611659576040517f08c379a000000000000000000000000000000000000000000000000000000000815260040161165090612cc6565b60405180910390fd5b6116c384848481811061166f5761166e61267a565b5b90506020020135600a60003373ffffffffffffffffffffffffffffffffffffffff1673ffffffffffffffffffffffffffffffffffffffff168152602001908152602001600020611e1190919063ffffffff16565b50600360009054906101000a900473ffffffffffffffffffffffffffffffffffffffff1673ffffffffffffffffffffffffffffffffffffffff1663b88d4fde30338787878181106117175761171661267a565b5b905060200201356040518463ffffffff1660e01b815260040161173c93929190612a72565b600060405180830381600087803b15801561175657600080fd5b505af115801561176a573d6000803e3d6000fd5b5050505050808061177a90612831565b9150506114c4565b50600180819055505050565b600d6020528060005260406000206000915090505481565b600660009054906101000a900473ffffffffffffffffffffffffffffffffffffffff1681565b600b602052816000526040600020602052806000526040600020600091509150505481565b6117f9611be6565b73ffffffffffffffffffffffffffffffffffffffff16611817611372565b73ffffffffffffffffffffffffffffffffffffffff161461186d576040517f08c379a000000000000000000000000000000000000000000000000000000000815260040161186490612943565b60405180910390fd5b62015180600c60008473ffffffffffffffffffffffffffffffffffffffff1673ffffffffffffffffffffffffffffffffffffffff1681526020019081526020016000206000838152602001908152602001600020546118cc91906126d8565b600c60008473ffffffffffffffffffffffffffffffffffffffff1673ffffffffffffffffffffffffffffffffffffffff16815260200190815260200160002060008381526020019081526020016000208190555062015180600b60008473ffffffffffffffffffffffffffffffffffffffff1673ffffffffffffffffffffffffffffffffffffffff16815260200190815260200160002060008381526020019081526020016000205461197f91906126d8565b600b60008473ffffffffffffffffffffffffffffffffffffffff1673ffffffffffffffffffffffffffffffffffffffff1681526020019081526020016000206000838152602001908152602001600020819055505050565b60606000600a60008473ffffffffffffffffffffffffffffffffffffffff1673ffffffffffffffffffffffffffffffffffffffff16815260200190815260200160002090506000611a2782611e2b565b67ffffffffffffffff811115611a4057611a3f6120ef565b5b604051908082528060200260200182016040528015611a6e5781602001602082028036833780820191505090505b50905060005b611a7d83611e2b565b811015611ac957611a978184611e4090919063ffffffff16565b828281518110611aaa57611aa961267a565b5b6020026020010181815250508080611ac190612831565b915050611a74565b508092505050919050565b611adc611be6565b73ffffffffffffffffffffffffffffffffffffffff16611afa611372565b73ffffffffffffffffffffffffffffffffffffffff1614611b50576040517f08c379a0000000000000000000000000000000000000000000000000000000008152600401611b4790612943565b60405180910390fd5b600073ffffffffffffffffffffffffffffffffffffffff168173ffffffffffffffffffffffffffffffffffffffff161415611bc0576040517f08c379a0000000000000000000000000000000000000000000000000000000008152600401611bb790612d58565b60405180910390fd5b611bc981611caa565b50565b6000611bde836000018360001b611e5a565b905092915050565b600033905090565b611bf6610ffa565b611c35576040517f08c379a0000000000000000000000000000000000000000000000000000000008152600401611c2c90612dc4565b60405180910390fd5b6000600260006101000a81548160ff0219169083151502179055507f5db9ee0a495bf2e6ff9c91a7834c1ba4fdd244a5e8aa4e537bd38aeae4b073aa611c79611be6565b604051611c86919061207e565b60405180910390a1565b6000611ca2836000018360001b611e7d565b905092915050565b60008060009054906101000a900473ffffffffffffffffffffffffffffffffffffffff169050816000806101000a81548173ffffffffffffffffffffffffffffffffffffffff021916908373ffffffffffffffffffffffffffffffffffffffff1602179055508173ffffffffffffffffffffffffffffffffffffffff168173ffffffffffffffffffffffffffffffffffffffff167f8be0079c531659141344cd1fd0a4f28419497f9722a3daafe3b4186f6b6457e060405160405180910390a35050565b611d76610ffa565b15611db6576040517f08c379a0000000000000000000000000000000000000000000000000000000008152600401611dad906129af565b60405180910390fd5b6001600260006101000a81548160ff0219169083151502179055507f62e78cea01bee320cd4e420270b5ea74000d11b0c9f74754ebdbfc544b05a258611dfa611be6565b604051611e07919061207e565b60405180910390a1565b6000611e23836000018360001b611eed565b905092915050565b6000611e3982600001612001565b9050919050565b6000611e4f8360000183612012565b60001c905092915050565b600080836001016000848152602001908152602001600020541415905092915050565b6000611e898383611e5a565b611ee2578260000182908060018154018082558091505060019003906000526020600020016000909190919091505582600001805490508360010160008481526020019081526020016000208190555060019050611ee7565b600090505b92915050565b60008083600101600084815260200190815260200160002054905060008114611ff5576000600182611f1f91906126d8565b9050600060018660000180549050611f3791906126d8565b9050818114611fa6576000866000018281548110611f5857611f5761267a565b5b9060005260206000200154905080876000018481548110611f7c57611f7b61267a565b5b90600052602060002001819055508387600101600083815260200190815260200160002081905550505b85600001805480611fba57611fb9612de4565b5b600190038181906000526020600020016000905590558560010160008681526020019081526020016000206000905560019350505050611ffb565b60009150505b92915050565b600081600001805490509050919050565b600082600001828154811061202a5761202961267a565b5b9060005260206000200154905092915050565b600073ffffffffffffffffffffffffffffffffffffffff82169050919050565b60006120688261203d565b9050919050565b6120788161205d565b82525050565b6000602082019050612093600083018461206f565b92915050565b6000604051905090565b600080fd5b600080fd5b6120b68161205d565b81146120c157600080fd5b50565b6000813590506120d3816120ad565b92915050565b600080fd5b6000601f19601f8301169050919050565b7f4e487b7100000000000000000000000000000000000000000000000000000000600052604160045260246000fd5b612127826120de565b810181811067ffffffffffffffff82111715612146576121456120ef565b5b80604052505050565b6000612159612099565b9050612165828261211e565b919050565b600067ffffffffffffffff821115612185576121846120ef565b5b602082029050602081019050919050565b600080fd5b6000819050919050565b6121ae8161219b565b81146121b957600080fd5b50565b6000813590506121cb816121a5565b92915050565b60006121e46121df8461216a565b61214f565b9050808382526020820190506020840283018581111561220757612206612196565b5b835b81811015612230578061221c88826121bc565b845260208401935050602081019050612209565b5050509392505050565b600082601f83011261224f5761224e6120d9565b5b813561225f8482602086016121d1565b91505092915050565b6000806040838503121561227f5761227e6120a3565b5b600061228d858286016120c4565b925050602083013567ffffffffffffffff8111156122ae576122ad6120a8565b5b6122ba8582860161223a565b9150509250929050565b600081519050919050565b600082825260208201905092915050565b6000819050602082019050919050565b6122f98161219b565b82525050565b600061230b83836122f0565b60208301905092915050565b6000602082019050919050565b600061232f826122c4565b61233981856122cf565b9350612344836122e0565b8060005b8381101561237557815161235c88826122ff565b975061236783612317565b925050600181019050612348565b5085935050505092915050565b6000602082019050818103600083015261239c8184612324565b905092915050565b600080fd5b60008083601f8401126123bf576123be6120d9565b5b8235905067ffffffffffffffff8111156123dc576123db6123a4565b5b6020830191508360018202830111156123f8576123f7612196565b5b9250929050565b60008060008060006080868803121561241b5761241a6120a3565b5b6000612429888289016120c4565b955050602061243a888289016120c4565b945050604061244b888289016121bc565b935050606086013567ffffffffffffffff81111561246c5761246b6120a8565b5b612478888289016123a9565b92509250509295509295909350565b60007fffffffff0000000000000000000000000000000000000000000000000000000082169050919050565b6124bc81612487565b82525050565b60006020820190506124d760008301846124b3565b92915050565b600080604083850312156124f4576124f36120a3565b5b6000612502858286016120c4565b9250506020612513858286016121bc565b9150509250929050565b6125268161219b565b82525050565b6000602082019050612541600083018461251d565b92915050565b60006020828403121561255d5761255c6120a3565b5b600061256b848285016121bc565b91505092915050565b60008083601f84011261258a576125896120d9565b5b8235905067ffffffffffffffff8111156125a7576125a66123a4565b5b6020830191508360208202830111156125c3576125c2612196565b5b9250929050565b600080602083850312156125e1576125e06120a3565b5b600083013567ffffffffffffffff8111156125ff576125fe6120a8565b5b61260b85828601612574565b92509250509250929050565b60008115159050919050565b61262c81612617565b82525050565b60006020820190506126476000830184612623565b92915050565b600060208284031215612663576126626120a3565b5b6000612671848285016120c4565b91505092915050565b7f4e487b7100000000000000000000000000000000000000000000000000000000600052603260045260246000fd5b7f4e487b7100000000000000000000000000000000000000000000000000000000600052601160045260246000fd5b60006126e38261219b565b91506126ee8361219b565b925082821015612701576127006126a9565b5b828203905092915050565b7f4e487b7100000000000000000000000000000000000000000000000000000000600052601260045260246000fd5b60006127468261219b565b91506127518361219b565b9250826127615761276061270c565b5b828204905092915050565b60006127778261219b565b91506127828361219b565b9250817fffffffffffffffffffffffffffffffffffffffffffffffffffffffffffffffff04831182151516156127bb576127ba6126a9565b5b828202905092915050565b60006040820190506127db600083018561206f565b6127e8602083018461251d565b9392505050565b6000815190506127fe816121a5565b92915050565b60006020828403121561281a576128196120a3565b5b6000612828848285016127ef565b91505092915050565b600061283c8261219b565b91507fffffffffffffffffffffffffffffffffffffffffffffffffffffffffffffffff82141561286f5761286e6126a9565b5b600182019050919050565b600082825260208201905092915050565b7f436c6f7365205374616b696e6700000000000000000000000000000000000000600082015250565b60006128c1600d8361287a565b91506128cc8261288b565b602082019050919050565b600060208201905081810360008301526128f0816128b4565b9050919050565b7f4f776e61626c653a2063616c6c6572206973206e6f7420746865206f776e6572600082015250565b600061292d60208361287a565b9150612938826128f7565b602082019050919050565b6000602082019050818103600083015261295c81612920565b9050919050565b7f5061757361626c653a2070617573656400000000000000000000000000000000600082015250565b600061299960108361287a565b91506129a482612963565b602082019050919050565b600060208201905081810360008301526129c88161298c565b9050919050565b7f496e76616c696420616464726573730000000000000000000000000000000000600082015250565b6000612a05600f8361287a565b9150612a10826129cf565b602082019050919050565b60006020820190508181036000830152612a34816129f8565b9050919050565b600082825260208201905092915050565b50565b6000612a5c600083612a3b565b9150612a6782612a4c565b600082019050919050565b6000608082019050612a87600083018661206f565b612a94602083018561206f565b612aa1604083018461251d565b8181036060830152612ab281612a4f565b9050949350505050565b6000612ac78261219b565b9150612ad28361219b565b9250827fffffffffffffffffffffffffffffffffffffffffffffffffffffffffffffffff03821115612b0757612b066126a9565b5b828201905092915050565b6000606082019050612b27600083018661206f565b612b34602083018561206f565b612b41604083018461251d565b949350505050565b612b5281612617565b8114612b5d57600080fd5b50565b600081519050612b6f81612b49565b92915050565b600060208284031215612b8b57612b8a6120a3565b5b6000612b9984828501612b60565b91505092915050565b7f5265656e7472616e637947756172643a207265656e7472616e742063616c6c00600082015250565b6000612bd8601f8361287a565b9150612be382612ba2565b602082019050919050565b60006020820190508181036000830152612c0781612bcb565b9050919050565b7f5374616b696e673a20746f6b656e206e6f74206465706f736974656400000000600082015250565b6000612c44601c8361287a565b9150612c4f82612c0e565b602082019050919050565b60006020820190508181036000830152612c7381612c37565b9050919050565b7f467265657a696e67206e667420666f72204c696d697465642064617973000000600082015250565b6000612cb0601d8361287a565b9150612cbb82612c7a565b602082019050919050565b60006020820190508181036000830152612cdf81612ca3565b9050919050565b7f4f776e61626c653a206e6577206f776e657220697320746865207a65726f206160008201527f6464726573730000000000000000000000000000000000000000000000000000602082015250565b6000612d4260268361287a565b9150612d4d82612ce6565b604082019050919050565b60006020820190508181036000830152612d7181612d35565b9050919050565b7f5061757361626c653a206e6f7420706175736564000000000000000000000000600082015250565b6000612dae60148361287a565b9150612db982612d78565b602082019050919050565b60006020820190508181036000830152612ddd81612da1565b9050919050565b7f4e487b7100000000000000000000000000000000000000000000000000000000600052603160045260246000fdfea2646970667358221220a5f08504fc234155986dc3e7affd518d0b8022d179cc3e4976645cd333bf2e5164736f6c634300080b0033",
  "immutableReferences": {},
  "source": "// SPDX-License-Identifier: MIT\npragma solidity ^0.8.0;\n\nimport \"@openzeppelin/contracts/access/Ownable.sol\";\nimport \"@openzeppelin/contracts/utils/math/SafeMath.sol\";\nimport \"@openzeppelin/contracts/token/ERC721/extensions/IERC721Enumerable.sol\";\nimport \"@openzeppelin/contracts/token/ERC721/IERC721Receiver.sol\";\nimport \"@openzeppelin/contracts/utils/structs/EnumerableSet.sol\";\nimport \"@openzeppelin/contracts/security/ReentrancyGuard.sol\";\nimport '@openzeppelin/contracts/utils/math/Math.sol';\nimport \"@openzeppelin/contracts/security/Pausable.sol\";\nimport \"@openzeppelin/contracts/token/ERC20/IERC20.sol\";\n\n\ncontract LostStaking is Ownable, IERC721Receiver, ReentrancyGuard, Pausable {\n    using EnumerableSet for EnumerableSet.UintSet; \n    \n    //addresses \n    address nullAddress = 0x0000000000000000000000000000000000000000;\n    address public stakingDestinationAddress;\n    address public stakingLostGirlAddr;\n    address public erc20Address;\n    address public ownerAddr;\n\n    //uint256's \n    uint256 public expiration; \n    uint256 public rate; \n    uint public freezingDays;\n  \n    // mappings \n    mapping(address => EnumerableSet.UintSet) private _deposits;\n    mapping(address => mapping(uint256 => uint256)) public _depositBlocks;\n    mapping(address => mapping(uint256 => uint256)) public _depositBlocksTmp;\n    mapping(uint256 => uint256) public _rewardArray;\n\n    constructor(\n      address _stakingDestinationAddress, // Nft Contract Address\n      address _stakingLostGirlAddress, //nft Contract girl\n      uint256 _rate,  // token transfer amount\n      uint256 _expiration,  //in days\n      address _erc20Address, // Token address\n      uint256[] memory rewardArray\n    ) {\n        stakingLostGirlAddr = _stakingLostGirlAddress;\n        stakingDestinationAddress = _stakingDestinationAddress;\n        rate = _rate;\n        expiration = block.timestamp * (_expiration * 1 days);\n        erc20Address = _erc20Address;\n        ownerAddr = msg.sender;\n        freezingDays = 0;\n        \n        for (uint256 i; i < rewardArray.length; i++) {\n            _rewardArray[i] = rewardArray[i];\n        }\n        _pause();\n    }\n\n    modifier isExpired() {\n        require(0 < ((expiration - block.timestamp) / 60 / 60 / 24), \"Close Staking\");\n        _;\n    }\n\n    function pause() public onlyOwner {\n        _pause();\n    }\n\n    function unpause() public onlyOwner {\n        _unpause();\n    }\n\n    function setOneDayPrev(address account, uint256 tokenId) public onlyOwner(){\n        _depositBlocksTmp[account][tokenId] = _depositBlocksTmp[account][tokenId] - 1 days;\n        _depositBlocks[account][tokenId] = _depositBlocks[account][tokenId] - 1 days;\n    }\n\n    /* STAKING MECHANICS */\n\n    // Set a multiplier for how many tokens to earn each time a block passes.\n    function setRate(uint256 _rate) public onlyOwner() {\n        rate = _rate;\n    }\n\n    function setfreezingDays(uint _freezDay) public onlyOwner() {\n        freezingDays = _freezDay;\n    }\n\n    // Set this to a block to disable the ability to continue accruing tokens past that block number.\n    function setExpiration(uint256 _expiration) public onlyOwner() {\n        expiration = block.timestamp * (_expiration * 1 days);\n    }\n\n    //check Lostboy Balance. \n    function balanceOfLostGirl(address account, uint256 tokens) external view returns (uint256 balance) {\n        uint256 balanceOfd = IERC721(stakingLostGirlAddr).balanceOf(account);\n        \n        if(balanceOfd <= 3){\n            return (tokens*_rewardArray[0]);\n        }else if(balanceOfd <= 6){\n            return (tokens*_rewardArray[1]);\n        }else if(balanceOfd <= 9){\n            return (tokens*_rewardArray[2]);\n        }else if(balanceOfd <= 15){\n            return (tokens*_rewardArray[3]);\n        }else if(balanceOfd > 15){\n            return (tokens*_rewardArray[4]);\n        }\n        return (tokens*100);\n    }\n\n    //check deposit amount. \n    function depositsOf(address account) external view returns (uint256[] memory) {\n      EnumerableSet.UintSet storage depositSet = _deposits[account];\n      uint256[] memory tokenIds = new uint256[] (depositSet.length());\n\n      for (uint256 i; i < depositSet.length(); i++) {\n        tokenIds[i] = depositSet.at(i);\n      }\n      return tokenIds;\n    }\n\n    function calculateRewards(address account, uint256[] memory tokenIds) \n      public \n      view \n      returns (uint256[] memory rewards) \n    {\n      rewards = new uint256[](tokenIds.length);\n\n      for (uint256 i; i < tokenIds.length; i++) {\n\n            uint256 tokenId = tokenIds[i];\n        \n            if(_deposits[account].contains(tokenId)){\n                uint256 diff = (block.timestamp - _depositBlocks[account][tokenId]) / 60 / 60 / 24;\n                uint256 tokenCount = rate * diff;\n                rewards[i] = this.balanceOfLostGirl(account, tokenCount);\n            }else{\n                rewards[i] = 0;\n            }\n        \n      }\n\n      return rewards;\n    }\n\n    //reward amount by address/tokenIds[]\n    function calculateReward(address account, uint256 tokenId) public view isExpired returns (uint256) {\n        uint256 diff = (block.timestamp - _depositBlocks[account][tokenId]) / 60 / 60 / 24;\n        if(diff >= freezingDays){\n            uint256 totalToken = rate * (_deposits[account].contains(tokenId) ? 1 : 0) * diff;\n            return this.balanceOfLostGirl(account, totalToken);\n        }\n        return 0;\n    }\n\n    //reward claim function \n    function claimRewards(uint256[] calldata tokenIds) public whenNotPaused {\n        uint256 reward; \n        uint256 blockCur = block.timestamp;\n\n        for (uint256 i; i < tokenIds.length; i++) {\n            reward += calculateReward(msg.sender, tokenIds[i]);\n            _depositBlocks[msg.sender][tokenIds[i]] = blockCur;\n        }\n        \n        if (reward > 0) {\n            IERC20(erc20Address).transferFrom(ownerAddr, msg.sender, ((reward * 10**18)/100));\n        } \n    }\n\n    //deposit function. \n    function deposit(uint256[] calldata tokenIds) external whenNotPaused {\n        require(msg.sender != stakingDestinationAddress, \"Invalid address\");\n        claimRewards(tokenIds);\n\n        for (uint256 i; i < tokenIds.length; i++) {\n            uint256 blockCur1 = block.timestamp;\n            _depositBlocksTmp[msg.sender][tokenIds[i]] = blockCur1;\n\n            IERC721(stakingDestinationAddress).safeTransferFrom(\n                msg.sender,\n                address(this),\n                tokenIds[i],\n                \"\"\n            );\n\n            _deposits[msg.sender].add(tokenIds[i]);\n        }\n    }\n\n    //withdrawal function.\n    function withdraw(uint256[] calldata tokenIds) external whenNotPaused nonReentrant() {\n        claimRewards(tokenIds);\n\n        for (uint256 i; i < tokenIds.length; i++) {\n            require( _deposits[msg.sender].contains(tokenIds[i]), \"Staking: token not deposited\");\n            uint256 diff = (block.timestamp - _depositBlocksTmp[msg.sender][tokenIds[i]]) / 60 / 60 / 24;\n            require( diff >= freezingDays , \"Freezing nft for Limited days\");\n\n            _deposits[msg.sender].remove(tokenIds[i]);\n\n            IERC721(stakingDestinationAddress).safeTransferFrom(\n                address(this),\n                msg.sender,\n                tokenIds[i],\n                \"\"\n            );\n        }\n    }\n \n    function onERC721Received(\n        address,\n        address,\n        uint256,\n        bytes calldata\n    ) external pure override returns (bytes4) {\n        return IERC721Receiver.onERC721Received.selector;\n    }\n}",
  "sourcePath": "/home/maulik/Desktop/Solidity/lostb_erc20/contract/contracts/LostStaking.sol",
  "compiler": {
    "name": "solc",
    "version": "0.8.11+commit.d7f03943.Emscripten.clang"
  },
  "schemaVersion": "3.4.3",
  "updatedAt": "2022-01-13T08:45:23.390Z",
  "networkType": "ethereum",
  "devdoc": {
    "kind": "dev",
    "methods": {
      "owner()": {
        "details": "Returns the address of the current owner."
      },
      "paused()": {
        "details": "Returns true if the contract is paused, and false otherwise."
      },
      "renounceOwnership()": {
        "details": "Leaves the contract without owner. It will not be possible to call `onlyOwner` functions anymore. Can only be called by the current owner. NOTE: Renouncing ownership will leave the contract without an owner, thereby removing any functionality that is only available to the owner."
      },
      "transferOwnership(address)": {
        "details": "Transfers ownership of the contract to a new account (`newOwner`). Can only be called by the current owner."
      }
    },
    "version": 1
  },
  "userdoc": {
    "kind": "user",
    "methods": {},
    "version": 1
  }
}